:020000040000FA
:20000000020A38022003FFFFFFFFFF02200BFFFFFFFFFF022013FFFFFFFFFF02201BFFFFE9
:20002000FFFFFF022023FFFFFFFFFF02202BFFFFFFFFFF02007502008E0200960200A002F8
:2000400001D20201D50201E40200D70200E40201F10201F70202350200BA0200F802013C33
:200060000201B80202A80202B50202C302092B02093F020934C2CAF5CC85F0CDF5CA85F017
:20008000CB75C830759852C298C299D2CA223098FDE599C29822D3309805E599C298C3223A
:2000A0003099FDC299F59922C0E0742011A0D0E022C0E0742D11A0D0E022C0E0740D11A022
:2000C000740A11A0D0E02211A001A811B101A811A801A811BA01BAC0E0E0A3600411A080BA
:2000E000F8D0E022C0E0E0A3600B20E70411A080F5547F11A0D0E022C2D5118E51A8B41B23
:2001000003D3E422B40D05D2D5C3E422FA31B840E9CA11A0118E51A8B41B0280E4B40D03B5
:20012000EAC322B4080411A080D0B4150280F7FB31B840E0CB11A0EAC44BC3227A007B009A
:200140007C04C2D5118E51A8B41B07D3E4F583F58222B408028003B47F0CBC040280E5119A
:20016000A031A70C80DEB40D108B838A82BC0407E4F583F582D2D5C322FD31B840C6CD12C1
:2001800000A0EDC0E03196D0E02AFAE43BFBDCB4C38A828B8322EBC454F0FBEAC4540F4BA4
:2001A000FBEAC454F0FA22EAC4540FFAEBC454F04AFAEBC4540FFB2224D0501424F640040F
:2001C000240AC32224F9500824FA40042410C322D32231D4C4C0E0540F2490D43440D4117A
:2001E000A0D0E022C0E0E58331D2E58231D2D0E022C0F0C0E08013C0F0C0E030E70C742D4F
:200200001200A0D0E0C0E0F4240175F06484D2D56007C2D524301200A0E5F075F00A8430D3
:20022000D502600524301200A0E5F024301200A0D0E0D0F022C0E0E8C0E0C2D5AA82AB83F6
:200240007C107D275193600724301200A0D2D57CE87D035193700330D50724301200A0D257
:20026000D57C647D005193700330D50724301200A0D2D5EAABF075F00A84700330D5052423
:20028000301200A0E5F08BF024301200A0D0E0F8D0E022780008C3EA9CFAEB9DFB50F61808
:2002A000EA2CFAEB3DFBE822B461004007B47B00500224E0227800C0E0E0600408A380F97E
:2002C000D0E0227800C0E0E060070820E703A380F6D0E022900AD311D7EF31D2EE31D29028
:2002E0000ADD11D7118EB43A0471EE80E751A875F0D4C0F075F002C0F0F5F090100012093F
:200300009B5022758204E0B4FE140582E0B5F00E11A875822011D711BA758240E47305837C
:20032000E583B4E0D9E5F0B43F07900E2E11D7C1F0B44D07900E4211D7A1DEB45207900EBA
:200340005011D7C158B44407900E5C11D761D1B45507900E6511D7E196B44E09900E6C12A0
:2003600000D702086AB44A07900E7911D7A138B44807900E9111D7A169B44507900EC311BF
:20038000D7A1ABB44308900ED811D702087EB44908900EAA11D702096BB43C08900EFE1105
:2003A000D7020991B43E08900F0D11D7020996B45708900EEE11D70208E9B44208900F1D67
:2003C00011D70208A701BA8E828F8322AE82AF8322900C4511D7B12F118EB41B02806DB447
:2003E0003A02801031B840F07906915E80EA743A11A0B12F7900915E7C00917DF8917DF514
:2004000083917DF582917DB401028029701EE86010917DFA7901915EEAF07902915EA3D850
:20042000ED917DEC60B27904915E80ACE860F2917DD8FC80ECE86004917DD8F3917DEC7014
:20044000E59155900C9311D7119680769155900C7C11D7806D78007900D9FED8FA22E95451
:2004600007232408F907E77002090722D3878209878309E5827005E5837001C322118E5119
:20048000A8B41B06D0E0D0E080C2B43A0A7905915ED0E0D0E061F831B850067907915E80F1
:2004A000DCFA118E51A8B41B0280D9B43A0280DD31B850067907915E80E8CAC44AFA2CFC47
:2004C000EA22EEC0E0EFC0E0900CAC11D779087EB77F0CB12B7ECA7F0CB12B7EDD7F0CB160
:2004E0002B7A05916C4009DAFA900D7A11D78025900CEF11D7790E7EF97F0CB11D7E137FBA
:200500000DB11D7E257F0DB11D7E427F0DB11D7E5C7F0DB11DD0E0FFD0E0FE01BA916C5050
:200520000911A812023571C711D722916C80F27808760008B818FA22900B6A11D771C731BF
:20054000E4900AF911D7313C20D507500302086471CC11BA900D9111D771C7E4F5D075811D
:2005600007F5F078FFF6D8FD737A1011D371C731E4743A11C77B1071C7E0A331D211A8DBBC
:20058000F811CF7B1071C7E0A3547FB47F01E424E04001E4242011A0DBED11BA71CC1196BD
:2005A0004005B41B0201BADAC401BA900BEC11D771C731E4743A11C7742811A071CCE03134
:2005C000D2900BAE11D711F820D50E400C71C7F011BA71C7A371CCA1B2900C1501D7900B3E
:2005E0008811D7781511A8D8FC900B9911D775831012099B400201BA11CF75822011D77546
:20060000822051B57421C398F8742011A0D8FC75820031E47806742011A0D8FC758204E0B3
:20062000AA83B4FE05900E048018B4FD05900E1D8010B42305900E158008B4F90280EE90D7
:200640000E2A11D78A8311BA74DFB58302A1F60583E583B4E09BA1F611D37AFF90100015B6
:20066000830583E583B4E002802112099B501C758204E04403F460E911CF0A74412A11C7AE
:2006800011CB75822011D711BAC161BAFF05900B0D01D7900AE111D7744111A011B1744114
:2006A0002A11A0900AF911D7118EB41B0201BAFB741FC39AEB400251A811A0FB11BAEB2422
:2006C000BF50D0FBEAC39B40CA0B90100015830583E583B4E002801712099B50127582047B
:2006E000E04403F460E9DBE711BA758240A15B22900DCE11D77C3F900E33F18B7C4D900EF2
:2007000042F18B7C52900E50F18B7C44900E5CF18B7C55900E65F18B7C4E900E6CF18B7C91
:200720004A900E79F18B7C48900E91F18B7C49900EAAF18B7C45900EC3F18B7C43900ED811
:20074000F18B7C42900F1DF18B7C57900EEEF18B7C3C900EFEF18B7C3E900F0DF18B900DFD
:20076000E711D790100012099B501E758204E0B4FE1011CF0582E011C711CB75822011D74F
:2007800011BA0583E583B4E0DD01BA11CFEC11C711CB11D701BA12082A900DAA11D7EB31C0
:2007A000D2EA31D2900DC911D7ED31D2EC31D211BA8D838C82A3AC82AD83900B5911D71176
:2007C0008EB41B0302086111D38A828B83ECC39582FAED95837009EA603554F0700280025B
:2007E0007A10743A11A0EA31D231E4E58325822AFBE431D2E031D22BFBA3DAF8EBF4041280
:2008000001D21200BA12009640C3B41BC08052743A1200A0E41201D21201D21201D2041224
:2008200001D274FF1201D20200D31200D3900BBC1200D712013C402520D522C083C0821231
:2008400000BA900BCD1200D712013CAD83AC82D0E0FAD0E0FB400620D5030200BAD0E0D011
:20086000E01200BA900ABD0200D7900B461200D712013C40EF20D5EC1203CC0200D3112A82
:20088000900BDD1200D712008E1200A01202A8B459CF1200D38B838A82E4F0EDB58305EC24
:2008A000B5820122A380F21200D3900F2D1200D712013C402B20D528C082C0831200BA9077
:2008C0000BDD1200D712008E1200A01202A8B4590B1200D3D0F0D0E012007522D0E0D0E0C3
:2008E0001200BA900ABD0200D7112A1200BA1203C7C082C0838A828B837EFF7FFF12092B39
:200900007E217F10E012093FEDB5831CECB582187E007F001209348A828B831201E4D08343
:20092000D0821203CC0200D3A380D9C0E0EEFAEFFBD0E022C0E0EA6EFAEB6FFBD0E022C096
:20094000F0F5F07480F8E5F05860027401F9EB23540169F9EA2AFAEB33FBE96006EA6EFA4C
:20096000EB6FFBE8C31370DDD0F0221200BA78001200BAE81201D2743A1200A01200A8E658
:200980001201D208B800030200D3E8540F70ED80DFC2970200BAD2970200BA758200E0B40E
:2009A000A514A3E0B4E50FA3E0B4E00AA3E0B4A505758200D32274DFB58302C322058380EB
:2009C000DA90100012099B5023758204E0B5F015C0F0C08374E1C0E07409C0E0758240E4BF
:2009E00073D083D0F00583E583B4E0D8228A828B83E493A3AA82AB838E828F83F0A3AE8280
:200A0000AF83EA8CF0B5F0E5EB8DF0B5F0DF228A828B83E0A3AA82AB838E828F83F0A3AE4C
:200A200082AF83EA8CF0B5F0E6EB8DF0B5F0E0227590FEFFFFFFFF22E4F5A8F5B87590FFAF
:200A4000FFFFFFFF75A0FF75D0007581177A007B007C007D207E007F001209ED7A307B0AF2
:200A60007C387D0A7E007F201209ED12200074F775F0FF12007575F0F91209C175F0FD12E0
:200A800009C11200BA1200BA1200BA1200BA900A9E1200D71205DE7E007F200202D45041C0
:200AA000554C4D4F4E322076322E31616220323032343130323430300D0A0D0A00202043CF
:200AC0006F6D6D616E642061626F727465640D0A0D0A004C6F636174696F6E3A00203E207A
:200AE0000053656C6563742070726F6772616D20746F2072756E20280029206F72204553DC
:200B00004320746F2061626F72743A20004E6F2070726F6772616D2068656164657273200C
:200B2000666F756E6420696E206D656D6F72792C20757365204A554D5020696E7374656150
:200B4000640D0A0D0A000D0A0D0A4E6577206C6F636174696F6E3A2000507265737320614A
:200B60006E79206B65792E2E2E000D0A0D0A4A756D7020746F206D656D6F7279206C6F63B7
:200B80006174696F6E2028000D0A0D0A50726F6772616D204E616D65004C6F636174696F80
:200BA0006E202020202020547970650D0A0029204E65772076616C75653A200046697273B0
:200BC00074206C6F636174696F6E3A20004C617374206C6F636174696F6E3A20004172654F
:200BE00020796F7520737572653F20000D0A0D0A45646974696E672065787465726E616CC5
:200C00002052414D2C2045534320746F2061626F72740D0A00202045646974696E672063D4
:200C20006F6D706C6574652C2074686973206C6F636174696F6E20756E6368616E67656474
:200C40000D0A0D0A000D0A0D0A426567696E207472616E73666572206F6620496E74656CBD
:200C6000206865782066696C652C2045534320746F2061626F72740D0A0D0A000D0A446FF5
:200C8000776E6C6F61642061626F727465640D0A0D0A000D0A446F776E6C6F616420636F5F
:200CA0006D706C657465640D0A0D0A0053756D6D6172793A0D0A0020206C696E65732072EF
:200CC000656365697665640D0A00202062797465732072656365697665640D0A00202062A1
:200CE00079746573207772697474656E0D0A004572726F72733A0D0A0020206279746573B6
:200D000020756E61626C6520746F2077726974650D0A00202062616420636865636B73756A
:200D20006D730D0A002020756E657870656374656420626567696E206F66206C696E650D58
:200D40000A002020756E657870656374656420686578206469676974730D0A002020756ED1
:200D60006578706563746564206E6F6E20686578206469676974730D0A004E6F2065727270
:200D80006F72732064657465637465640D0A0D0A000D0A52756E6E696E672070726F67722D
:200DA000616D2E2E2E0D0A0D0A000D0A53656E64696E6720496E74656C206865782066695E
:200DC0006C652066726F6D200020746F20000D0A0D0A5374616E6461726420636F6D6D619F
:200DE0006E64733A0D0A000D0A5573657220696E7374616C6C656420636F6D6D616E647355
:200E00003A0D0A0045787465726E616C20636F6D6D616E640050726F6772616D005374613F
:200E20007274757020636F6465003F3F3F0048656C7000546869732068656C70206C69731D
:200E400074004C6973742070726F6772616D730052756E2070726F6772616D00446F776E12
:200E60006C6F61640055706C6F6164004E6577206C6F636174696F6E004A756D7020746F2B
:200E8000206D656D6F7279206C6F636174696F6E004865782064756D702065787465726E6F
:200EA000616C206D656D6F7279004865782064756D7020696E7465726E616C206D656D6F66
:200EC000727900456469742065787465726E616C206D656D6F727900436C65617220657881
:200EE0007465726E616C206D656D6F72790043616C63756C61746520435243313600456E13
:200F000061626C65206E4353494F37370044697361626C65206E4353494F3737005265730B
:200F200065742062617564207261746500456E746572206E6577206261756420636F6E7359
:1B0F4000743A2000456E746572206E6577206261756420636F6E73743A200003
:20100000A5E5E0A5FE4C00000000000000000000000000000000000000000000FFFFFFFF7B
:081020004C69737400020057D3
:2010400011257D14C2D1114CDDFC0125EFF583514FEEF582514FE493FAA3E493FBA3E4932E
:20106000FCEA5408700FEA035478F8EA5407489016C8938008EAC4540F901362935403F8F0
:201080002EFEEF3400FF743A512A719D20D121EA514F719DB80104790B8011EB514F719DB6
:2010A000B8020479088005EC514F7906719DD9FCEA54087010901748EA035478F8EA5407D3
:2010C0004893F980099017C8EAC4540F93F9901F157808C374204007E99309A2E7547F5193
:2010E0002AD8F1741BC0E07411C0E0EA5408700FEA035478F8EA5407489016C8938008EA33
:20110000C4540F9013629354FC03031490111D232582F582E43583F583E4730125412D4167
:201120003C21812172414841044152415821A221D7415E4169416D4108411021AA21832168
:201140007441714177417D413E411C418121DF411441C54185418B41914195419B41A941B9
:20116000AF41B541BB410C41BF41CB41D741E741ED2231F67440512A7452512AEA540141CE
:201180004531F6EB20E703EB414F9012F5E493A360F5F8C39B700302004BE493A330E7FA2C
:2011A00080EB511031F8742F512AEB547823C4F8EB54806014901372E893901FAA3582F5BE
:2011C000825002058331978005E82420514F742E512AEB5407414531F6318331F8ECFBEBDB
:2011E0002EF582EB20E703E48002E4F43FF5830200457440412A5108742C512A7420412A87
:201200007423412A318331F87441412A31AA31F87443412A31F25108742B512A7444512AE0
:201220007450512A7454512A745202003CEF54F8F8EAC403540748514FEB414F31F6745299
:20124000512AEA5407020042510831F85100EB02003F3183ECFB414A511031F821AA5108B7
:2012600031F85100EB514F21DB513E41603174416051087442412A513E31F821DF318321F0
:20128000DB31AA21DB513E31F84108513E31F82183513E414A318331F8413EEBC0E0ECFB57
:2012A000318331F8D0E0FB2183318331F82174317431F84108317431F821833174414A5186
:2012C0001C31F85100EB514FEC414F31F631F25108742B512A411C31F631F25108742B51C4
:2012E0002A7450512A411031F631F2411C31F2511C31F84108E04143C38153D0824450CCDE
:20130000834450C88050B09050B1A050B2B050B399534255C6CD5448B2C85432434FCECCAA
:20132000544CB2CB5243415032C8CA5243415032CC8C5448B08A544CB08D5448B18B544CCB
:20134000B1F0C2D05053D7A849C5B849D089544D4FC48854434FCE9853434FCE8750434F2C
:20136000CE00595909090909097A7E09763309520971000206080C0E101214161B1E20234F
:201380002425F8F0E493C398227950E58DF404F8D8FED9F722514F743A412A514F74204107
:2013A0002A43616E6E6F74207072696E7420696E7465727275707420766563746F72206112
:2013C0007420000D0A53696E676C652073746570206D6F64653A203C5245543E3D73746517
:0E13E000702C203F3D48656C700D0A0D0A0010
:20140000A5E5E0A5FE5300000000000000000000000000000000000000000000FFFFFFFF70
:0C14200053696E676C652D537465700095
:2014400030B3069017D802004B900013E49324FE6005901DB32197A393F8E4A393F58288D7
:201460008374027182700EA3741471827007A374EF71826011A882A9839013A13197E95167
:201480004FE8514F0125E5B85404F5B8901D813197EF514FEE514F901D6C319712005D202A
:2014A000D50D5007901D9D31970125AE82AF83C28A9013C33197901ED33197E4758108C0F4
:2014C000E0C0E08E828F83F5D0F8F9FAFBFCFDFEFFF5F0757CDD757D14D2AAD2AF737189A6
:2014E000D0E0F9D0E0F8D082D083D0D0D0E032C0E0C0D0C083C082E8C0E0E9C0E07189D2E2
:2015000099719D719DE58124FBF8E6719BE5F0719B08E62354015145719D08E6514F08E640
:20152000719B719D08E6719508E67195EA7195EB7195EC7195ED7195EE7195EF719B719DE6
:20154000E824F8719B719D719DE57C8E7CFEE57D8F7DFFEAC0E0EBC0E0ECC0E0D2D1114CE8
:20156000D0E0FCD0E0FBD0E0FAAF7DAE7CE58124F9F8E6F57C08E6F57D120036120063B471
:201580000D0281DEB4200281DEB43F07901E133197A179B45113901ECC3197C2AA718975D6
:2015A000080075090075810932B44802A1CDB45202A1FDB45302C167B44102C1AAB42E07E6
:2015C000901ED33197A179A179743D412A901DE13197E47195719DA88118E6719B08E651B2
:2015E0004F7802790EA1ECE871957910719DE6514F08D9F81125B880EE1125A17990134497
:201600003197B1C9E58124FCF8E6719B901348A8A8D16090134BA8B8D16090134EA889D13A
:2016200060901353A888D160901358A898D16090135DA887D1607454512A7430512AB1C94B
:20164000E58C514FE58A514F719D7454512A7431512AB1C9E58D514FE58B514F1125A1790D
:201660003197B1C9E8619B7817719DD8FC901DD43197E58124F9F8E68E7CFE08E68F7DFF28
:20168000EAC0E0EBC0E0ECC0E0D2D1114CD0E0FCD0E0FBD0E0FAE58124F9F8EEAE7CF57CA4
:2016A000F608EFAF7DF57DF6A179E58124FBF8901E03319712005A400820D505F61125A11E
:2016C00079901D9D3197A179AD066F393946494963066F39394649496306AD39160E111142
:2016E0006306AD39160E111166061A1F160E111166061A1F160E111166061A1F160E111194
:2017000066062269161F9292660622A14D8386869B06969D160E11112606225D4DAD8E8E93
:201720002606423D2F2B37374606423D390E11114606423D39571111A5061111390E11114F
:20174000A9068989391A89895A0E48732B2B2B2B30004375212121212E0E676E06060606FF
:2017600038006A700A0A0A0A330E5D5D5D5D5D5D3B00121212121212410E8F8F8F8F8F8F70
:201780003E005D354C4C4C4C7C0E124F244C4C4C4C004C4F808080805D0E4C2B57924C4C0C
:2017A00012001C1C15151515630E191984888888600078781F278B8B530E5353194C4C4C1C
:2017C000530053531C4C4C4C2B21060A5D128F4C4C804C1588274C4C0D0A50756C6C2049D9
:1E17E0004E543120646F776E20746F207573652073696E676C6520737465700D0A003B
:20180000A5E5E0A5FE5600000000000000000000000000000000000000000000FFFFFFFF69
:161820004D656D6F727920456469746F7220285654313030290006
:201840007C0051CDECC2E3FC1200363115B41B026194B40B02412BB40A024152B40802418E
:201860006DB41502419CB40C0451CD0144B411026194B4030FEC54FEFC71D6901D53B16315
:2018800051E80144B4040FEC4401FC71D6901D58B16351E80144B4070221E8B4050221DC7A
:2018A000B406022153B4010FEC30E198D2E2FC915B916B71280144B4180FEC30E186C2E227
:2018C000FC915B916B71280144B419024148B41A02414DF5F0EC20E102014430E20EE5F082
:2018E000719FB5F0F48F838E82F0419CE5F012006312006040E3F88F838E82EC20E30AE876
:20190000FDECD2E3FC71280148EDC454F028F0ECC2E3FC419CC0E0EC20E106C2E3FCD0E0F0
:201920002230E3F9D0E0C0E012006312006050EED0E0C0E0B41B0EECC2E3FC7128D0E0D031
:20194000E0D0E001448F838E82EDF0ECC2E3FC712880CBEC540270020144915BECC0E09041
:2019600019BAB16312005D404620D543A882A9839019CEB16312005D403520D532AC82AD8C
:20198000839019D5B16312005A402420D521FAECFEEDFFD0E0FC88828983EAF0EEB5820CAF
:2019A000EFB58308915B916B51E80144A380EBD0E0FC915B916B7128014446696C6C206DFE
:2019C000656D6F72793B2046697273743A00204C6173743A0020776974683A00915BEC64FE
:2019E00002FC916B71280144915B901A19B163ECC0E012005DD0E0FC401320D510AE82AF6E
:201A00008371D6741471DC916B51E8014471D6741471DC916B712801444D656D6F7279201E
:201A20006C6F636174696F6E3A20007154EEC39410FEEF9400FFEEF454F06008740171E401
:201A40007170014451E801441F51E801440F51E801447154EE2410FEEF3400FFEE54F0601F
:201A600008740171DC7170014451E801447154740371ECEEC39401FEEF9400FFEE44F0F483
:201A8000600471700144EEF454F0600C743071F4740171E47170014451E801447154740377
:201AA00071F48E828F83A3AE82AF83EE540F600471700144EE54F0600C743071EC7401713A
:201AC000DC7170014451E801447420A15D901D03B1639142B166911FB1669139B16674101A
:201AE00071DC9139B166916B71D6740271DC7582008F837810B166120045743AB15DAA82CB
:201B0000AB8351C971B1B160A3E582540F70F38A828B8351C951C951C971B1719FB15DA32F
:201B2000E582540F70F3D8CD71D6EEC4540F240371DCEE540F243871F471FC71BA719FB198
:201B40005D9108EE540F23F4243471EC71FC71BAB1608108EE540F23F4243171F471BA7182
:201B60009FB15DEE540F23F4243471EC71BAA160EE540F23F4243171F471BA719F71FCB1F4
:201B80005D9108EE540F23F4243471EC71BA71FCB1608108EE54F0C4F4241371DCA1665437
:201BA0007FB47F03742022C3942050027400242022EC20E003E49322E022C083C0828F83F6
:201BC0008E82EC20E30D20E004E4938001E0D082D08322ED80F891127448A15D9112B169D7
:201BE0007442A15D9112B1697441A15D9112B1697444A15D9112B1697443A15D901C01A18E
:201C0000631B5B303B376D00901C0DA1631B5B306D00C0E0741BB15D745BB15DD0E0229090
:201C20001D0BB163780051C9742BB15DE812004208B810F2901D11A1637848742DB15DD822
:201C4000FA22EC20E005901D538003901D58B163780851C9D8FC901D25A16371D674147157
:201C6000DC7A4851C9DAFC744861ECEC30E112901CC320E203901CDEB163901CF9B1638073
:201C800005901CBBB163901C8BA16320205E473D476F746F20205E433D436F646520205E97
:201CA000443D4461746120205E4C3D52656472617720205E513D51756974005E453D456445
:201CC0006974005E413D1B5B303B376D41534349491B5B306D20205E583D486578005E4153
:201CE0003D415343494920205E583D1B5B303B376D4865781B5B306D0020205E463D46697E
:201D00006C6C001B5B481B5B324A00414444523A0020202041534349492045515549564132
:201D20004C454E54003830353120457874204D656D6F727920456469746F722C20506175BF
:201D40006C2053746F6666726567656E2C203139393600434F444500444154410002003C4C
:201D600002003F02004B02005702005129206F72203C4553433E20746F20657869743A2053
:201D8000000D0A4A756D7020746F206D656D6F7279206C6F636174696F6E20280020204390
:201DA0006F6D6D616E642061626F727465640D0A0D0A004E6F204C4A4D5020666F756E642C
:201DC000206174206C6F636174696F6E20303031330D0A00536B697070696E67202D3E20AA
:201DE000000D0A4C6F633A2020496E742052414D204D656D6F727920436F6E74656E747302
:201E00000D0A004E6577204143432076616C75653A20000D0A53696E676C652053746570CE
:201E200020436F6D6D616E643A0D0A20203F202D207072696E7420746869730D0A3C524597
:201E4000543E2F3C53503E202D206E6578740D0A20202E202D207072696E74207265676992
:201E600073746572206E616D65730D0A202052202D207072696E7420534652730D0A202058
:201E800048202D2068657864756D7020696E7465726E616C2052414D0D0A202053202D20FE
:201EA000736B6970206E6578740D0A202041202D206368616E6765204143430D0A20205192
:201EC000202D20717569740D0A0D0A00517569740D0A002020414343204220432044505416
:201EE000522020523020523120523220523320523420523520523620523720205350202021
:201F000020416464722020496E737472756374696F6E0D0A004143414CCC004144C40041C6
:201F20004444C3414A4DD0414ECC434A4EC5434CD24350CC44C14445C34449D6444A4EDA89
:201F4000494EC34AC24A42C34AC34A4DD04A4EC24A4EC34A4EDA4ADA4C43414CCC4C4A4D42
:201F6000D04D4FD64D4F56C34D4F56D84D55CC4E4FD04F52CC504FD0505553C85245D4526C
:201F80004554C952CC524CC352D25252C3534554C2534A4DD0535542C2535741D05843C8A3
:201FA000584348C45852CC3F3FBF50B054434FCE50B153434FCE50B249C550B349D043B040
:121FC0005432434FCE5053D744B84143C345B8C246B8AF
:00000001FF
