:03000000020A5F92
:08000300022003FFFFFFFFFFD5
:08000B0002200BFFFFFFFFFFC5
:08001300022013FFFFFFFFFFB5
:08001B0002201BFFFFFFFFFFA5
:08002300022023FFFFFFFFFF95
:08002B0002202BFFFFFFFFFF85
:1000330002007502008E0200960200A00201E70290
:1000430001D20201F50200D70200E4020202020219
:10005300080202460200BA0200F802013C0201B89B
:100063000202D00202D70202E50209520209660225
:10007300095BC2CAF5CC85F0CDF5CA85F0CB75C84E
:1000830030759852C298C299D2CA223098FDE59928
:10009300C29822D3309805E599C298C3223099FDBE
:1000A300C299F59922C0E0742011A0D0E022C0E0EB
:1000B300742D11A0D0E022C0E0740D11A0740A11B8
:1000C300A0D0E02211A001A811B101A811A801A894
:1000D30011BA01BAC0E0E0A3600411A080F8D0E037
:1000E30022C0E0E0A3600B20E70411A080F5547F59
:1000F30011A0D0E022C2D5118E51D0B41B03D3E49A
:1001030022B40D05D2D5C3E422FA31B840E9CA11AD
:10011300A0118E51D0B41B0280E4B40D03EAC322B4
:10012300B4080411A080D0B4150280F7FB31B840A5
:10013300E0CB11A0EAC44BC3227A007B007C04C24B
:10014300D5118E51D0B41B07D3E4F583F58222B4C5
:1001530008028003B47F0CBC040280E511A031A720
:100163000C80DEB40D108B838A82BC0407E4F58314
:10017300F582D2D5C322FD31B840C6CD1200A0ED21
:10018300C0E03196D0E02AFAE43BFBDCB4C38A82B8
:100193008B8322EBC454F0FBEAC4540F4BFBEAC439
:1001A30054F0FA22EAC4540FFAEBC454F04AFAEBBF
:1001B300C4540FFB2224D0501424F64004240AC351
:1001C3002224F9500824FA40042410C322D322C065
:1001D300E0540F24F620E70424418002243A12005D
:1001E300A0D0E022C0E0C0E0C431D2D0E031D2D010
:1001F300E022C0E0E58331E7E58231E7D0E022C0C9
:10020300F0C0E08013C0F0C0E030E70C742D1200A2
:10021300A0D0E0C0E0F4240175F06484D2D5600777
:10022300C2D524301200A0E5F075F00A8430D5025F
:10023300600524301200A0E5F024301200A0D0E0C5
:10024300D0F022C0E0E8C0E0C2D5AA82AB837C1024
:100253007D2751A4600724301200A0D2D57CE87D0D
:100263000351A4700330D50724301200A0D2D57CEB
:10027300647D0051A4700330D50724301200A0D24E
:10028300D5EAABF075F00A84700330D5052430123B
:1002930000A0E5F08BF024301200A0D0E0F8D0E00D
:1002A30022780008C3EA9CFAEB9DFB50F618EA2C6F
:1002B300FAEB3DFBE82220E712C0E0249F20E70988
:1002C30024E630E704D0E0D322D0E0C32251B95072
:1002D3000224E0227800C0E0E0600408A380F9D0A3
:1002E300E0227800C0E0E060070820E703A380F67F
:1002F300D0E022900AFA11D7EF31E7EE31E7900B05
:100303000411D7118EB43A04911080E751D075F0DF
:10031300F6C0F075F002C0F0F5F09010001209C2BB
:100323005022758204E0B4FE140582E0B5F00E118C
:10033300A875822011D711BA758240E4730583E54D
:1003430083B4E0D9E5F0B43F07900E5511D7E1121D
:10035300B44D07900E6911D7C100B45207900E77C0
:1003630011D7C17AB44407900E8311D761F3B45502
:1003730007900E8C11D7E1B8B44E09900E9312007A
:10038300D7020891B44A07900EA011D7A15AB448D6
:1003930007900EB811D7A18BB44507900EEA11D779
:1003A300A1CDB44308900EFF11D70208A5B44908A4
:1003B300900ED111D7020992B43C08900F2511D7A2
:1003C3000209B8B43E08900F3411D70209BDB457DF
:1003D30008900F1511D7020910B44208900F441169
:1003E300D70208CE01BA8E828F8322AE82AF8322D8
:1003F300900C6C11D7B151118EB41B02806DB43ABD
:1004030002801031B840F07906918080EA743A1185
:10041300A0B151790091807C00919FF8919FF58361
:10042300919FF582919FB401028029701EE86010AC
:10043300919FFA79019180EAF079029180A3D8ED36
:10044300919FEC60B27904918080ACE860F2919F57
:10045300D8FC80ECE86004919FD8F3919FEC70E5A1
:100463009177900CBA11D7119680769177900CA35F
:1004730011D7806D78007900D9FED8FA22E95407A4
:10048300232408F907E77002090722D38782098723
:100493008309E5827005E5837001C322118E51D073
:1004A300B41B06D0E0D0E080C2B43A0A790591804B
:1004B300D0E0D0E0811A31B850067907918080DC12
:1004C300FA118E51D0B41B0280D9B43A0280DD31C7
:1004D300B850067907918080E8CAC44AFA2CFCEA2E
:1004E30022EEC0E0EFC0E0900CD311D779087EDE96
:1004F3007F0CB14D7EF17F0CB14D7E047F0DB14D6C
:100503007A05918E4009DAFA900DA111D7802590D2
:100513000D1611D7790E7E207F0DB13F7E3A7F0DE8
:10052300B13F7E4C7F0DB13F7E697F0DB13F7E832E
:100533007F0DB13FD0E0FFD0E0FE01BA918E5009AC
:1005430011A812024671E911D722918E80F2780820
:10055300760008B818FA22900B9111D771E931F59A
:10056300900B2011D7313C20D507500302088B7123
:10057300EE11BA900DB811D771E9E4F5D075810782
:10058300F5F078FFF6D8FD737A1011D371E931F5E0
:10059300743A11C77B1071E9E0A331E711A8DBF8C6
:1005A30011CF7B1071E9E0A3547FB47F01E424E011
:1005B3004001E4242011A0DBED11BA71EE11964045
:1005C30005B41B0201BADAC401BA900C1311D77136
:1005D300E931F5743A11C7742811A071EEE031E7DF
:1005E300900BD511D711F820D50E400C71E9F011FD
:1005F300BA71E9A371EEA1D4900C3C01D7900BAF73
:1006030011D7781511A8D8FC900BC011D77583109A
:100613001209C2400201BA11CF75822011D7758227
:100623002051D77421C398F8742011A0D8FC758287
:100633000031F57806742011A0D8FC758204E0AA75
:1006430083B4FE05900E2B8018B4FD05900E4480F4
:1006530010B42305900E3C8008B4F90280EE900E8E
:100663005111D78A8311BA74DFB58302C118058388
:10067300E583B4E09BC11811D37AFF901000158372
:100683000583E583B4E00280211209C2501C758200
:1006930004E04403F460E911CF0A74412A11C7113D
:1006A300CB75822011D711BAC183BAFF05900B34E1
:1006B30001D7900B0811D7744111A011B174412ACD
:1006C30011A0900B2011D7118EB41B0201BAFB7439
:1006D3001FC39AEB400251D011A0FB11BAEB24BF08
:1006E30050D0FBEAC39B40CA0B90100015830583CF
:1006F300E583B4E00280171209C25012758204E048
:100703004403F460E9DBE711BA758240A17D2290CE
:100713000DF511D77C3F900E5AF1AD7C4D900E69CB
:10072300F1AD7C52900E77F1AD7C44900E83F1AD28
:100733007C55900E8CF1AD7C4E900E93F1AD7C4ABE
:10074300900EA0F1AD7C48900EB8F1AD7C49900EAF
:10075300D1F1AD7C45900EEAF1AD7C43900EFFF1F3
:10076300AD7C42900F44F1AD7C57900F15F1AD7CF9
:100773003C900F25F1AD7C3E900F34F1AD900E0E01
:1007830011D79010001209C2501E758204E0B4FE06
:100793001011CF0582E011C711CB75822011D7113B
:1007A300BA0583E583B4E0DD01BA11CFEC11C711BB
:1007B300CB11D701BA120851900DD111D7EB31E704
:1007C300EA31E7900DF011D7ED31E7EC31E711BADB
:1007D3008D838C82A3AC82AD83900B8011D7118E55
:1007E300B41B0302088811D38A828B83ECC39582DE
:1007F300FAED95837009EA603A54F0700280027A48
:1008030010743A1200A0EA1201E71201F5E58325FC
:10081300822AFBE41201E7E01201E72BFBA3DAF7DC
:10082300EBF4041201E71200BA12009640BEB41BA7
:10083300BB8052743A1200A0E41201E71201E712DE
:1008430001E7041201E774FF1201E70200D312006B
:10085300D3900BE31200D712013C402520D522C0D0
:1008630083C0821200BA900BF41200D712013CAD80
:1008730083AC82D0E0FAD0E0FB400620D50302002F
:10088300BAD0E0D0E01200BA900AE40200D7900B8D
:100893006D1200D712013C40EF20D5EC1203EE029B
:1008A30000D31151900C041200D712008E1200A035
:1008B3001202D0B459CF1200D38B838A82E4F0EDB5
:1008C300B58305ECB5820122A380F21200D3900F09
:1008D300541200D712013C402B20D528C082C0837C
:1008E3001200BA900C041200D712008E1200A0124C
:1008F30002D0B4590B1200D3D0F0D0E0120075220D
:10090300D0E0D0E01200BA900AE40200D7115112ED
:1009130000BA1203E9C082C0838A828B837EFF7F81
:10092300FF1209527E217F10E0120966EDB5831C88
:10093300ECB582187E007F0012095B8A828B8312DA
:1009430001F5D083D0821203EE0200D3A380D9C075
:10095300E0EEFAEFFBD0E022C0E0EA6EFAEB6FFBC9
:10096300D0E022C0F0F5F07480F8E5F0586002742E
:1009730001F9EB23540169F9EA2AFAEB33FBE96045
:1009830006EA6EFAEB6FFBE8C31370DDD0F02212B8
:1009930000BA78001200BAE81201E7743A1200A014
:1009A3001200A8E61201E708B800030200D3E854D6
:1009B3000F70ED80DFC2970200BAD2970200BA75BA
:1009C3008200E0B4A514A3E0B4E50FA3E0B4E00A09
:1009D300A3E0B4A505758200D32274DFB58302C3F7
:1009E30022058380DA9010001209C2502375820415
:1009F300E0B5F015C0F0C0837408C0E0740AC0E02D
:100A0300758240E473D083D0F00583E583B4E0D8E6
:100A1300228A828B83E493A3AA82AB838E828F8301
:100A2300F0A3AE82AF83EA8CF0B5F0E5EB8DF0B5C1
:100A3300F0DF228A828B83E0A3AA82AB838E828F2C
:100A430083F0A3AE82AF83EA8CF0B5F0E6EB8DF0D2
:100A5300B5F0E0227590FEFFFFFFFF22E4F5A8F555
:100A6300B87590FFFFFFFFFF75A0FF75D00075817C
:100A7300177A007B007C007D207E007F00120A1421
:100A83007A577B0A7C5F7D0A7E007F20120A14124C
:100A9300200074F775F0FF12007575F0F91209E87C
:100AA30075F0FD1209E81200BA1200BA1200BA1268
:100AB30000BA900AC51200D71206007E007F2002FA
:100AC30002F65041554C4D4F4E322076322E316155
:100AD3006220323032343130323830300D0A0D0A70
:100AE300002020436F6D6D616E642061626F7274CC
:100AF30065640D0A0D0A004C6F636174696F6E3A89
:100B030000203E200053656C6563742070726F672C
:100B130072616D20746F2072756E20280029206F1A
:100B2300722045534320746F2061626F72743A20C0
:100B3300004E6F2070726F6772616D20686561642B
:100B430065727320666F756E6420696E206D656DC6
:100B53006F72792C20757365204A554D5020696E4C
:100B630073746561640D0A0D0A000D0A0D0A4E6562
:100B730077206C6F636174696F6E3A200050726501
:100B8300737320616E79206B65792E2E2E000D0A0A
:100B93000D0A4A756D7020746F206D656D6F7279E3
:100BA300206C6F636174696F6E2028000D0A0D0A53
:100BB30050726F6772616D204E616D65004C6F639B
:100BC3006174696F6E202020202020547970650D98
:100BD3000A0029204E65772076616C75653A2000FE
:100BE3004669727374206C6F636174696F6E3A2027
:100BF300004C617374206C6F636174696F6E3A208B
:100C03000041726520796F7520737572653F20000E
:100C13000D0A0D0A45646974696E67206578746509
:100C2300726E616C2052414D2C2045534320746FEA
:100C33002061626F72740D0A002020456469746933
:100C43006E6720636F6D706C6574652C20746869C2
:100C530073206C6F636174696F6E20756E63686176
:100C63006E6765640D0A0D0A000D0A0D0A42656779
:100C7300696E207472616E73666572206F662049B7
:100C83006E74656C206865782066696C652C2045F8
:100C9300534320746F2061626F72740D0A0D0A0052
:100CA3000D0A446F776E6C6F61642061626F7274BA
:100CB30065640D0A0D0A000D0A446F776E6C6F614F
:100CC3006420636F6D706C657465640D0A0D0A00B2
:100CD30053756D6D6172793A0D0A0020206C696E4F
:100CE30065732072656365697665640D0A0020206B
:100CF30062797465732072656365697665640D0A4C
:100D03000020206279746573207772697474656E4C
:100D13000D0A004572726F72733A0D0A0020206249
:100D23007974657320756E61626C6520746F2077CA
:100D3300726974650D0A002020626164206368652E
:100D4300636B73756D730D0A002020756E65787083
:100D5300656374656420626567696E206F66206CE5
:100D6300696E650D0A002020756E65787065637481
:100D7300656420686578206469676974730D0A0087
:100D83002020756E6578706563746564206E6F6E80
:100D930020686578206469676974730D0A004E6F73
:100DA300206572726F727320646574656374656421
:100DB3000D0A0D0A000D0A52756E6E696E6720707A
:100DC300726F6772616D2E2E2E0D0A0D0A000D0AC9
:100DD30053656E64696E6720496E74656C2068653F
:100DE300782066696C652066726F6D200020746FD1
:100DF30020000D0A0D0A5374616E646172642063EE
:100E03006F6D6D616E64733A0D0A000D0A5573655B
:100E13007220696E7374616C6C656420636F6D6DB1
:100E2300616E64733A0D0A0045787465726E616C85
:100E330020636F6D6D616E640050726F6772616DD8
:100E4300005374617274757020636F6465003F3F73
:100E53003F0048656C7000546869732068656C7066
:100E6300206C697374004C6973742070726F6772BD
:100E7300616D730052756E2070726F6772616D00E1
:100E8300446F776E6C6F61640055706C6F616400C2
:100E93004E6577206C6F636174696F6E004A756D80
:100EA3007020746F206D656D6F7279206C6F636154
:100EB30074696F6E004865782064756D702065787D
:100EC3007465726E616C206D656D6F727900486533
:100ED300782064756D7020696E7465726E616C2024
:100EE3006D656D6F7279004564697420657874650A
:100EF300726E616C206D656D6F727900436C656114
:100F0300722065787465726E616C206D656D6F72A9
:100F1300790043616C63756C61746520435243319E
:100F23003600456E61626C65206E4353494F373717
:100F33000044697361626C65206E4353494F3737D0
:100F43000052657365742062617564207261746513
:100F530000456E746572206E65772062617564204A
:100F6300636F6E73743A2000456E746572206E650C
:0F0F730077206261756420636F6E73743A20009B
:00000001FF
