:020000040000FA
:200000000208FF022003FFFFFFFFFF02200BFFFFFFFFFF022013FFFFFFFFFF02201BFFFF24
:20002000FFFFFF022023FFFFFFFFFF02202BFFFFFFFFFF02099102007502007D020087021E
:2000400001B90201BC0201CB0200BE0200CB0209A60209AC0209EA0200A10200DF020123C5
:2000600002019F0201D80201E502081E02083202082702088E3098FDE599C29822D3309894
:2000800005E599C298C3223099FDC299F59922C0E074201187D0E022C0E0742D1187D0E0A6
:2000A00022C0E0740D1187740A1187D0E0221187018F1198018F118F018F11A101A1C0E0F8
:2000C000E0A36004118780F8D0E022C0E0E0A3600B20E704118780F5547F1187D0E022C2B2
:2000E000D5117531D8B41B03D3E422B40D05D2D5C3E422FA319F40E9CA1187117531D8B423
:200100001B0280E4B40D03EAC322B40804118780D0B4150280F7FB319F40E0CB1187EAC4E5
:200120004BC3227A007B007C04C2D5117531D8B41B07D3E4F583F58222B408028003B47FE2
:200140000CBC040280E51187318E0C80DEB40D108B838A82BC0407E4F583F582D2D5C3229A
:20016000FD319F40C6CD120087EDC0E0317DD0E02AFAE43BFBDCB4C38A828B8322EBC4548B
:20018000F0FBEAC4540F4BFBEAC454F0FA22EAC4540FFAEBC454F04AFAEBC4540FFB22247A
:2001A000D0501424F64004240AC32224F9500824FA40042410C322D32231BBC4C0E0540F02
:2001C0002490D43440D41187D0E022C0E0E58331B9E58231B9D0E022B461004007B47B0045
:2001E000500224E0227800C0E0E0600408A380F9D0E022900A9211BEEF31B9EE31B9900AEF
:200200009C11BE1175B43A04710A80E731D875F0F3C0F075F001C0F0F5F090100012088EC5
:200220005022758204E0B4FE140582E0B5F00E118F75822011BE11A1758240E4730583E55E
:2002400083B4E0D9E5F0B43F07900DED11BEC10EB44D07900E0111BE81FCB45207900E0F0A
:2002600011BEA176B44407900E1B11BE41EDB45507900E2411BEC1B4B44E07900E2B11BE2C
:20028000E173B44A07900E3811BE8157B44807900E5011BE8187B44507900E8211BE81C987
:2002A000B44307900E9711BEE183B44908900E6911BE02085EB43C08900EBD11BE020884E5
:2002C000B43E08900ECC11BE020889B45708900EAD11BE0207DEB44208900EDC11BE0207F4
:2002E000A701A18E828F8322AE82AF8322900C0411BE914E1175B41B028070B43A028010D8
:20030000319F40F07906717D80EA743A1187914E7900717D7C00719CF8719CF583719CF572
:2003200082719CB401028029701EE86010719CFA7901717DEAF07902717DA3D8ED719CECD5
:2003400060B27904717D80ACE860F2719CD8FC80ECE86004719CD8F3719CEC70E571749086
:200360000C5211BE30987A117580767174900C3B11BE806D78007900D9FED8FA22E954071A
:20038000232408F907E77002090722D3878209878309E5827005E5837001C322117531D862
:2003A000B41B06D0E0D0E080C2B43A0A7905717DD0E0D0E06114319F50067907717D80DC9D
:2003C000FA117531D8B41B0280D9B43A0280DD319F50067907717D80E8CAC44AFA2CFCEA3D
:2003E00022EEC0E0EFC0E0900C6B11BE79087E767F0C914A7E897F0C914A7E9C7F0C914A20
:200400007A05718B4009DAFA900D3911BE8025900CAE11BE790E7EB87F0C913C7ED27F0CF1
:20042000913C7EE47F0C913C7E017F0D913C7E1B7F0D913CD0E0FFD0E0FE01A1718B500917
:20044000118F1209EA51E311BE22718B80F27808760008B818FA22900B2911BE51E331CBB7
:20046000900AB811BE312320D5065002E16E51E811A1900D5011BE51E3E4F5D0758107F5F5
:20048000F078FFF6D8FD737A1011BA51E331CB743A11AE7B1051E3E0A331B9118FDBF81115
:2004A000B67B1051E3E0A3547FB47F01E424E04001E424201187DBED11A151E8117D4005CE
:2004C000B41B0201A1DAC401A1900BAB11BE51E331CB743A11AE7428118751E8E031B990F0
:2004E0000B6D11BE11DF20D50E400C51E3F011A151E3A351E881D0900BD401BE900B47111E
:20050000BE7815118FD8FC900B5811BE75831012088E400201A111B675822011BE75822002
:2005200031E57421C398F874201187D8FC75820031CB780674201187D8FC758204E0AA8344
:20054000B4FE05900DC38018B4FD05900DDC8010B42305900DD48008B4F90280EE900DE9B5
:2005600011BE8A8311A174DFB58302A1140583E583B4E09BA11411BA7AFF90100015830556
:2005800083E583B4E002802112088E501C758204E04403F460E911B60A74412A11AE11B294
:2005A00075822011BE11A1A17FBAFF05900ACC01BE900AA011BE74411187119874412A11B1
:2005C00087900AB811BE1175B41B0201A1FB741FC39AEB400231D81187FB11A1EB24BF50F6
:2005E000D0FBEAC39B40CA0B90100015830583E583B4E002801712088E5012758204E04455
:2006000003F460E9DBE711A1758240817922900D8D11BE7C3F900DF2D1A97C4D900E01D1DD
:20062000A97C52900E0FD1A97C44900E1BD1A97C55900E24D1A97C4E900E2BD1A97C4A90B9
:200640000E38D1A97C48900E50D1A97C49900E69D1A97C45900E82D1A97C43900E97D1A99F
:200660007C42900EDCD1A97C57900EADD1A97C3C900EBDD1A97C3E900ECCD1A9900DA611B1
:20068000BE90100012088E501E758204E0B4FE1011B60582E011AE11B275822011BE11A101
:2006A0000583E583B4E0DD01A111B6EC11AE11B211BE01A1F13C900D6911BEEB31B9EA319F
:2006C000B9900D8811BEED31B9EC31B911A18D838C82A3AC82AD83900B1811BE1175B41B18
:2006E00002E16C11A18A828B83ECC39582FAED95837009EA603254F0700280027A10743AB5
:200700001187EA31B931CBE58325822AFBE431B9E031B92BFBA3DAF8EBF40431B911A1117A
:200720007D40C6B41BC38044743A1187E431B931B931B90431B974FF31B901BA11BA900B8C
:200740007B11BE3123402120D51EC083C08211A1900B8C11BE3123AD83AC82D0E0FAD0E04E
:20076000FB400520D50201A1D0E0D0E011A1900A7C01BE900B0511BE312340F220D5EF518F
:20078000E801BAF13C900B9C11BE1175118731D8B459D911BA8B838A82E4F0EDB58305ECA7
:2007A000B5820122A380F211BA900EEC11BE3123402520D522C082C08311A1900B9C11BE99
:2007C0001175118731D8B4590A11BAD0F0D0E012099122D0E0D0E011A1900A7C01BEF13CBE
:2007E00011A151E3C082C0838A828B837EFF7FFF12081E7E217F10E0120832EDB5831CECBA
:20080000B582187E007F001208278A828B831201CBD083D0821202E80200BAA380D9C0E05A
:20082000EEFAEFFBD0E022C0E0EA6EFAEB6FFBD0E022C0F0F5F07480F8E5F0586002740176
:20084000F9EB23540169F9EA2AFAEB33FBE96006EA6EFAEB6FFBE8C31370DDD0F0221200BE
:20086000A178001200A1E81201B9743A12008712008FE61201B908B800030200BAE8540F94
:2008800070ED80DFC2970200A1D2970200A1758200E0B4A514A3E0B4E50FA3E0B4E00AA361
:2008A000E0B4A505758200D32274DFB58302C322058380DA8A828B83E493A3AA82AB838E9E
:2008C000828F83F0A3AE82AF83EA8CF0B5F0E5EB8DF0B5F0DF228A828B83E0A3AA82AB839A
:2008E0008E828F83F0A3AE82AF83EA8CF0B5F0E6EB8DF0B5F0E0227590FEFFFFFFFF22E4DC
:20090000F5A8F5B87590FFFFFFFFFF75A0FF75D0007581177A007B007C007D207E007F001C
:200920001208B47AF77B087CFF7D087E007F201208B412200074F775F0FF12099175F0F9FF
:2009400012096575F0FD1209651200A11200A11200A11200A1900A5D1200BE1204FC7E0012
:200960007F200201F390100012088E5023758204E0B5F015C0F0C0837485C0E07409C0E0E9
:20098000758240E473D083D0F00583E583B4E0D822C2CAF5CC85F0CDF5CA85F0CB75C8303D
:2009A000759852D2CA22C0F0C0E08013C0F0C0E030E70C742D120087D0E0C0E0F4240175AC
:2009C000F06484D2D56007C2D52430120087E5F075F00A8430D50260052430120087E5F0B7
:2009E0002430120087D0E0D0F022C0E0E8C0E0C2D5AA82AB837C107D2751486007243012C9
:200A00000087D2D57CE87D035148700330D5072430120087D2D57C647D005148700330D5AA
:200A2000072430120087D2D5EAABF075F00A84700330D5052430120087E5F08BF024301283
:200A40000087D0E0F8D0E022780008C3EA9CFAEB9DFB50F618EA2CFAEB3DFBE822504155CE
:200A60004C4D4F4E322076322E31616220323032343034313630300D0A0D0A002020436FF1
:200A80006D6D616E642061626F727465640D0A0D0A004C6F636174696F6E3A00203E200029
:200AA00053656C6563742070726F6772616D20746F2072756E20280029206F7220455343D9
:200AC00020746F2061626F72743A20004E6F2070726F6772616D206865616465727320662A
:200AE0006F756E6420696E206D656D6F72792C20757365204A554D5020696E737465616493
:200B00000D0A0D0A000D0A0D0A4E6577206C6F636174696F6E3A2000507265737320616E80
:200B200079206B65792E2E2E000D0A0D0A4A756D7020746F206D656D6F7279206C6F636104
:200B400074696F6E2028000D0A0D0A50726F6772616D204E616D65004C6F636174696F6EB3
:200B6000202020202020547970650D0A0029204E65772076616C75653A20004669727374EA
:200B8000206C6F636174696F6E3A20004C617374206C6F636174696F6E3A200041726520E3
:200BA000796F7520737572653F20000D0A0D0A45646974696E672065787465726E616C2005
:200BC00052414D2C2045534320746F2061626F72740D0A00202045646974696E6720636FC6
:200BE0006D706C6574652C2074686973206C6F636174696F6E20756E6368616E6765640D17
:200C00000A0D0A000D0A0D0A426567696E207472616E73666572206F6620496E74656C20EA
:200C20006865782066696C652C2045534320746F2061626F72740D0A0D0A000D0A446F77DE
:200C40006E6C6F61642061626F727465640D0A0D0A000D0A446F776E6C6F616420636F6DA9
:200C6000706C657465640D0A0D0A0053756D6D6172793A0D0A0020206C696E657320726537
:200C80006365697665640D0A00202062797465732072656365697665640D0A0020206279CD
:200CA000746573207772697474656E0D0A004572726F72733A0D0A0020206279746573204F
:200CC000756E61626C6520746F2077726974650D0A00202062616420636865636B73756D5E
:200CE000730D0A002020756E657870656374656420626567696E206F66206C696E650D0AFC
:200D0000002020756E657870656374656420686578206469676974730D0A002020756E65B6
:200D200078706563746564206E6F6E20686578206469676974730D0A004E6F206572726FA6
:200D400072732064657465637465640D0A0D0A000D0A52756E6E696E672070726F6772617B
:200D60006D2E2E2E0D0A0D0A000D0A53656E64696E6720496E74656C206865782066696C93
:200D8000652066726F6D200020746F20000D0A0D0A5374616E6461726420636F6D6D616EDD
:200DA00064733A0D0A000D0A5573657220696E7374616C6C656420636F6D6D616E64733AC9
:200DC0000D0A0045787465726E616C20636F6D6D616E640050726F6772616D005374617248
:200DE00074757020636F6465003F3F3F0048656C7000546869732068656C70206C6973745C
:200E0000004C6973742070726F6772616D730052756E2070726F6772616D00446F776E6C5A
:200E20006F61640055706C6F6164004E6577206C6F636174696F6E004A756D7020746F20B7
:200E40006D656D6F7279206C6F636174696F6E004865782064756D702065787465726E616E
:200E60006C206D656D6F7279004865782064756D7020696E7465726E616C206D656D6F7295
:200E80007900456469742065787465726E616C206D656D6F727900436C65617220657874BF
:200EA00065726E616C206D656D6F72790043616C63756C61746520435243313600456E6166
:200EC000626C65206E4353494F37370044697361626C65206E4353494F3737005265736548
:200EE000742062617564207261746500456E746572206E6577206261756420636F6E73748B
:030F00003A200094
:20100000A5E5E0A5FE4C00000000000000000000000000000000000000000000FFFFFFFF7B
:081020004C69737400020057D3
:2010400011257D14C2D1114CDDFC0125EFF583514FEEF582514FE493FAA3E493FBA3E4932E
:20106000FCEA5408700FEA035478F8EA5407489016C8938008EAC4540F901362935403F8F0
:201080002EFEEF3400FF743A512A719D20D121EA514F719DB80104790B8011EB514F719DB6
:2010A000B8020479088005EC514F7906719DD9FCEA54087010901748EA035478F8EA5407D3
:2010C0004893F980099017C8EAC4540F93F9901F157808C374204007E99309A2E7547F5193
:2010E0002AD8F1741BC0E07411C0E0EA5408700FEA035478F8EA5407489016C8938008EA33
:20110000C4540F9013629354FC03031490111D232582F582E43583F583E4730125412D4167
:201120003C21812172414841044152415821A221D7415E4169416D4108411021AA21832168
:201140007441714177417D413E411C418121DF411441C54185418B41914195419B41A941B9
:20116000AF41B541BB410C41BF41CB41D741E741ED2231F67440512A7452512AEA540141CE
:201180004531F6EB20E703EB414F9012F5E493A360F5F8C39B700302004BE493A330E7FA2C
:2011A00080EB511031F8742F512AEB547823C4F8EB54806014901372E893901FAA3582F5BE
:2011C000825002058331978005E82420514F742E512AEB5407414531F6318331F8ECFBEBDB
:2011E0002EF582EB20E703E48002E4F43FF5830200457440412A5108742C512A7420412A87
:201200007423412A318331F87441412A31AA31F87443412A31F25108742B512A7444512AE0
:201220007450512A7454512A745202003CEF54F8F8EAC403540748514FEB414F31F6745299
:20124000512AEA5407020042510831F85100EB02003F3183ECFB414A511031F821AA5108B7
:2012600031F85100EB514F21DB513E41603174416051087442412A513E31F821DF318321F0
:20128000DB31AA21DB513E31F84108513E31F82183513E414A318331F8413EEBC0E0ECFB57
:2012A000318331F8D0E0FB2183318331F82174317431F84108317431F821833174414A5186
:2012C0001C31F85100EB514FEC414F31F631F25108742B512A411C31F631F25108742B51C4
:2012E0002A7450512A411031F631F2411C31F2511C31F84108E04143C38153D0824450CCDE
:20130000834450C88050B09050B1A050B2B050B399534255C6CD5448B2C85432434FCECCAA
:20132000544CB2CB5243415032C8CA5243415032CC8C5448B08A544CB08D5448B18B544CCB
:20134000B1F0C2D05053D7A849C5B849D089544D4FC48854434FCE9853434FCE8750434F2C
:20136000CE00595909090909097A7E09763309520971000206080C0E101214161B1E20234F
:201380002425F8F0E493C398227950E58DF404F8D8FED9F722514F743A412A514F74204107
:2013A0002A43616E6E6F74207072696E7420696E7465727275707420766563746F72206112
:2013C0007420000D0A53696E676C652073746570206D6F64653A203C5245543E3D73746517
:0E13E000702C203F3D48656C700D0A0D0A0010
:20140000A5E5E0A5FE5300000000000000000000000000000000000000000000FFFFFFFF70
:0C14200053696E676C652D537465700095
:2014400030B3069017D802004B900013E49324FE6005901DB32197A393F8E4A393F58288D7
:201460008374027182700EA3741471827007A374EF71826011A882A9839013A13197E95167
:201480004FE8514F0125E5B85404F5B8901D813197EF514FEE514F901D6C319712005D202A
:2014A000D50D5007901D9D31970125AE82AF83C28A9013C33197901ED33197E4758108C0F4
:2014C000E0C0E08E828F83F5D0F8F9FAFBFCFDFEFFF5F0757CDD757D14D2AAD2AF737189A6
:2014E000D0E0F9D0E0F8D082D083D0D0D0E032C0E0C0D0C083C082E8C0E0E9C0E07189D2E2
:2015000099719D719DE58124FBF8E6719BE5F0719B08E62354015145719D08E6514F08E640
:20152000719B719D08E6719508E67195EA7195EB7195EC7195ED7195EE7195EF719B719DE6
:20154000E824F8719B719D719DE57C8E7CFEE57D8F7DFFEAC0E0EBC0E0ECC0E0D2D1114CE8
:20156000D0E0FCD0E0FBD0E0FAAF7DAE7CE58124F9F8E6F57C08E6F57D120036120063B471
:201580000D0281DEB4200281DEB43F07901E133197A179B45113901ECC3197C2AA718975D6
:2015A000080075090075810932B44802A1CDB45202A1FDB45302C167B44102C1AAB42E07E6
:2015C000901ED33197A179A179743D412A901DE13197E47195719DA88118E6719B08E651B2
:2015E0004F7802790EA1ECE871957910719DE6514F08D9F81125B880EE1125A17990134497
:201600003197B1C9E58124FCF8E6719B901348A8A8D16090134BA8B8D16090134EA889D13A
:2016200060901353A888D160901358A898D16090135DA887D1607454512A7430512AB1C94B
:20164000E58C514FE58A514F719D7454512A7431512AB1C9E58D514FE58B514F1125A1790D
:201660003197B1C9E8619B7817719DD8FC901DD43197E58124F9F8E68E7CFE08E68F7DFF28
:20168000EAC0E0EBC0E0ECC0E0D2D1114CD0E0FCD0E0FBD0E0FAE58124F9F8EEAE7CF57CA4
:2016A000F608EFAF7DF57DF6A179E58124FBF8901E03319712005A400820D505F61125A11E
:2016C00079901D9D3197A179AD066F393946494963066F39394649496306AD39160E111142
:2016E0006306AD39160E111166061A1F160E111166061A1F160E111166061A1F160E111194
:2017000066062269161F9292660622A14D8386869B06969D160E11112606225D4DAD8E8E93
:201720002606423D2F2B37374606423D390E11114606423D39571111A5061111390E11114F
:20174000A9068989391A89895A0E48732B2B2B2B30004375212121212E0E676E06060606FF
:2017600038006A700A0A0A0A330E5D5D5D5D5D5D3B00121212121212410E8F8F8F8F8F8F70
:201780003E005D354C4C4C4C7C0E124F244C4C4C4C004C4F808080805D0E4C2B57924C4C0C
:2017A00012001C1C15151515630E191984888888600078781F278B8B530E5353194C4C4C1C
:2017C000530053531C4C4C4C2B21060A5D128F4C4C804C1588274C4C0D0A50756C6C2049D9
:1E17E0004E543120646F776E20746F207573652073696E676C6520737465700D0A003B
:20180000A5E5E0A5FE5600000000000000000000000000000000000000000000FFFFFFFF69
:161820004D656D6F727920456469746F7220285654313030290006
:201840007C0051CDECC2E3FC1200363115B41B026194B40B02412BB40A024152B40802418E
:201860006DB41502419CB40C0451CD0144B411026194B4030FEC54FEFC71D6901D53B16315
:2018800051E80144B4040FEC4401FC71D6901D58B16351E80144B4070221E8B4050221DC7A
:2018A000B406022153B4010FEC30E198D2E2FC915B916B71280144B4180FEC30E186C2E227
:2018C000FC915B916B71280144B419024148B41A02414DF5F0EC20E102014430E20EE5F082
:2018E000719FB5F0F48F838E82F0419CE5F012006312006040E3F88F838E82EC20E30AE876
:20190000FDECD2E3FC71280148EDC454F028F0ECC2E3FC419CC0E0EC20E106C2E3FCD0E0F0
:201920002230E3F9D0E0C0E012006312006050EED0E0C0E0B41B0EECC2E3FC7128D0E0D031
:20194000E0D0E001448F838E82EDF0ECC2E3FC712880CBEC540270020144915BECC0E09041
:2019600019BAB16312005D404620D543A882A9839019CEB16312005D403520D532AC82AD8C
:20198000839019D5B16312005A402420D521FAECFEEDFFD0E0FC88828983EAF0EEB5820CAF
:2019A000EFB58308915B916B51E80144A380EBD0E0FC915B916B7128014446696C6C206DFE
:2019C000656D6F72793B2046697273743A00204C6173743A0020776974683A00915BEC64FE
:2019E00002FC916B71280144915B901A19B163ECC0E012005DD0E0FC401320D510AE82AF6E
:201A00008371D6741471DC916B51E8014471D6741471DC916B712801444D656D6F7279201E
:201A20006C6F636174696F6E3A20007154EEC39410FEEF9400FFEEF454F06008740171E401
:201A40007170014451E801441F51E801440F51E801447154EE2410FEEF3400FFEE54F0601F
:201A600008740171DC7170014451E801447154740371ECEEC39401FEEF9400FFEE44F0F483
:201A8000600471700144EEF454F0600C743071F4740171E47170014451E801447154740377
:201AA00071F48E828F83A3AE82AF83EE540F600471700144EE54F0600C743071EC7401713A
:201AC000DC7170014451E801447420A15D901D03B1639142B166911FB1669139B16674101A
:201AE00071DC9139B166916B71D6740271DC7582008F837810B166120045743AB15DAA82CB
:201B0000AB8351C971B1B160A3E582540F70F38A828B8351C951C951C971B1719FB15DA32F
:201B2000E582540F70F3D8CD71D6EEC4540F240371DCEE540F243871F471FC71BA719FB198
:201B40005D9108EE540F23F4243471EC71FC71BAB1608108EE540F23F4243171F471BA7182
:201B60009FB15DEE540F23F4243471EC71BAA160EE540F23F4243171F471BA719F71FCB1F4
:201B80005D9108EE540F23F4243471EC71BA71FCB1608108EE54F0C4F4241371DCA1665437
:201BA0007FB47F03742022C3942050027400242022EC20E003E49322E022C083C0828F83F6
:201BC0008E82EC20E30D20E004E4938001E0D082D08322ED80F891127448A15D9112B169D7
:201BE0007442A15D9112B1697441A15D9112B1697444A15D9112B1697443A15D901C01A18E
:201C0000631B5B303B376D00901C0DA1631B5B306D00C0E0741BB15D745BB15DD0E0229090
:201C20001D0BB163780051C9742BB15DE812004208B810F2901D11A1637848742DB15DD822
:201C4000FA22EC20E005901D538003901D58B163780851C9D8FC901D25A16371D674147157
:201C6000DC7A4851C9DAFC744861ECEC30E112901CC320E203901CDEB163901CF9B1638073
:201C800005901CBBB163901C8BA16320205E473D476F746F20205E433D436F646520205E97
:201CA000443D4461746120205E4C3D52656472617720205E513D51756974005E453D456445
:201CC0006974005E413D1B5B303B376D41534349491B5B306D20205E583D486578005E4153
:201CE0003D415343494920205E583D1B5B303B376D4865781B5B306D0020205E463D46697E
:201D00006C6C001B5B481B5B324A00414444523A0020202041534349492045515549564132
:201D20004C454E54003830353120457874204D656D6F727920456469746F722C20506175BF
:201D40006C2053746F6666726567656E2C203139393600434F444500444154410002003C4C
:201D600002003F02004B02005702005129206F72203C4553433E20746F20657869743A2053
:201D8000000D0A4A756D7020746F206D656D6F7279206C6F636174696F6E20280020204390
:201DA0006F6D6D616E642061626F727465640D0A0D0A004E6F204C4A4D5020666F756E642C
:201DC000206174206C6F636174696F6E20303031330D0A00536B697070696E67202D3E20AA
:201DE000000D0A4C6F633A2020496E742052414D204D656D6F727920436F6E74656E747302
:201E00000D0A004E6577204143432076616C75653A20000D0A53696E676C652053746570CE
:201E200020436F6D6D616E643A0D0A20203F202D207072696E7420746869730D0A3C524597
:201E4000543E2F3C53503E202D206E6578740D0A20202E202D207072696E74207265676992
:201E600073746572206E616D65730D0A202052202D207072696E7420534652730D0A202058
:201E800048202D2068657864756D7020696E7465726E616C2052414D0D0A202053202D20FE
:201EA000736B6970206E6578740D0A202041202D206368616E6765204143430D0A20205192
:201EC000202D20717569740D0A0D0A00517569740D0A002020414343204220432044505416
:201EE000522020523020523120523220523320523420523520523620523720205350202021
:201F000020416464722020496E737472756374696F6E0D0A004143414CCC004144C40041C6
:201F20004444C3414A4DD0414ECC434A4EC5434CD24350CC44C14445C34449D6444A4EDA89
:201F4000494EC34AC24A42C34AC34A4DD04A4EC24A4EC34A4EDA4ADA4C43414CCC4C4A4D42
:201F6000D04D4FD64D4F56C34D4F56D84D55CC4E4FD04F52CC504FD0505553C85245D4526C
:201F80004554C952CC524CC352D25252C3534554C2534A4DD0535542C2535741D05843C8A3
:201FA000584348C45852CC3F3FBF50B054434FCE50B153434FCE50B249C550B349D043B040
:121FC0005432434FCE5053D744B84143C345B8C246B8AF
:00000001FF
