:020000040000FA
:200000000207AF0220038E828F832202200BAE82AF8322022013742D016A0002201B116A15
:20002000016800022023111601680002202B215E016A015E215B216D217A018101C521AE30
:20004000218E02083A020982017402019B0208CB0208D102090F02078502084A2141309837
:20006000FDC298E59922116874203099FDC299F599221174C0E0740D116A740A116AD0E0E1
:2000800022C2D51159318EB41B03D3E422B40D05D2D5C3E422FA314140E9CA116A11593128
:2000A0008EB41B0280E4B40D03EAC322B40804116A80D0B4150280F7FB314140E0CB116A4A
:2000C000EAC44BC3227A007B007C04C2D51159318EB41B07D3E4F583F58222B4080280032E
:2000E000B47F0CBC040280E5116A31300C80DEB40D108B838A82BC0407E4F583F582D2D528
:20010000C322FD314140C6CD12006AEDC0E0311FD0E02AFAE43BFBDCB4C38A828B8322EBF7
:20012000C454F0FBEAC4540F4BFBEAC454F0FA22EAC4540FFAEBC454F04AFAEBC4540FFB08
:200140002224D0501424F64004240AC32224F9500824FA40042410C322D322315DC4C0E0DD
:20016000540F2490D43440D4116AD0E022C0E0E583315BE582315BD0E022C0E0E493A3608C
:200180000AA2E7547F116A400280F1D0E022B461004007B47B00500224E0227800C0E0E4FA
:2001A000936008A2E7084003A380F4D0E022C0E0C3309808E599B41B01D3C298D0E0229077
:2001C0000C231145EF315BEE315B900C2B317A1159B43A0451B880E7318E75F0BFC0F0755F
:2001E000F001C0F0F5F09010001207855024758204E493B4FE150582E493B5F00E116875EF
:200200008220317A1174758240E4730583E583B400D7E5F0B43F07900D8B1145A1BFB44D55
:2002200007900D93114581AAB45207900D981145A125B44407900D9C1145419BB45507909E
:200240000D9F1145C159B44E07900DA21145E14CB44A07900DA611458105B44807900DAC47
:2002600011458135B44507900DB811458176B44307900DBD1145E12AB44908900DB211456D
:2002800002075CB43C08900DC1114502077DB43E08900DD011450207810174900CBD11455C
:2002A00071FC115EB41B028070B43A028010314140F07906712B80EA743A116A71FC7900EB
:2002C000712B7C00714AF8714AF583714AF582714AB401028029701EE86010714AFA7901BE
:2002E000712BEAF07902712BA3D8ED714AEC60B27904712B80ACE860F2714AD8FC80ECE8EE
:200300006004714AD8F3714AEC70E57122900CDC114530987A115E80767122900CD4114596
:20032000806D78007900D9FED8FA22E95407232408F907E77002090722D3878209878309FE
:20034000E5827005E5837001C322115E318EB41B06D0E0D0E080C2B43A0A7905712BD0E09C
:20036000D0E041C2314150067907712B80DCFA115E318EB41B0280D9B43A0280DD31415029
:20038000067907712B80E8CAC44AFA2CFCEA22EEC0E0EFC0E0900CE3114579087EEC7F0C65
:2003A00071F87EF27F0C71F87EF77F0C71F87A0571394009DAFA900D3311458025900D0257
:2003C0001145790E7E067F0D71EA7E177F0D71EA7E1F7F0D71EA7E257F0D71EA7E2A7F0D17
:2003E00071EAD0E0FFD0E0FE017471395009116812090F1106114522713980F27808760089
:2004000008B818FA22900C6511451106316D900C33114511C520D5065002E125110E1174EA
:20042000900D4111451106E4F5D0F5F07807F6D8FD758107737A1011721106316D743A11A8
:200440001E7B101106E493A3315B1168DBF711667B101106E493A3547FB47F01E424E04089
:2004600001E42420116ADBEC1174D1E1110E31AE4002DAC50174900CA711451106316D74C4
:200480003A111E7428116A110EE493315B900C801145118120D50E400C1106F011741106C4
:2004A000A3110E817D900CB20145900C6F114578151168D8FC900C7611457583101207859F
:2004C000400201741166758220317A758220319B7421C398F87420116AD8FC758200316DE9
:2004E00078067420116AD8FC758204E493AA83B4FE05900D798018B4FD05900D808010B480
:200500002305900D7D8008B4F90280EE900D8711458A83117474FFB5830281C20583E58308
:20052000B4009A81C211727AFF90100015830583E583B400028022120785501D758204E4C4
:20054000934403F460E811660A74412A111E1126758220317A1174A12EBAFF05900C3C0112
:2005600045900C2E11457441116A111674412A116A900C3311451159B41B020174FB741F02
:20058000C39AEB4002318E116AFB1174EB24BF50D0FBEAC39B40CA0B90100015830583E52C
:2005A00083B4000280181207855013758204E4934403F460E8DBE61174758240812722909D
:2005C0000D6111457C3F900D8ED14E7C4D900D93D14E7C52900D98D14E7C44900D9CD14E00
:2005E0007C55900D9FD14E7C4E900DA2D14E7C4A900DA6D14E7C48900DACD14E7C49900DF1
:20060000B2D14E7C45900DB8D14E7C43900DBDD14E7C3C900DC1D14E7C3E900DD0D14E9091
:200620000D6F11459010001207855020758204E493B4FE1111660582E493116A11267582E7
:2006400020317A11740583E583B400DB01741166EC116A112611450174D1F3900D4B114574
:20066000EB315BEA315B900D5C1145ED315BEC315B11748D838C82A3AC82AD83900C5B11A1
:2006800045115EB41B02E12311748A828B83ECC39582FAED95837009EA603254F070028042
:2006A000027A10743A116AEA315B316DE58325822AFBE4315BE493315B2BFBA3DAF7EBF451
:2006C00004315B1174D1E131AE50C38056743A116AE4315B315B315B04315B74FF315B014A
:2006E00072E8C0E0780CE58C04000070FBD8F7D0E0F8221172900C89114511C5402120D5D9
:200700001EC083C0821174900C93114511C5AD83AC82D0E0FAD0E0FB400520D5020174D022
:20072000E0D0E01174900C1B0145D1F3900C9D11451159318EB459EB11728B838A82E4F0C2
:20074000EDB58305ECB5820122A380F2900C52114511C540D020D5CD110E01721174780099
:200760001174E8315B743A116A1168E6315B08B8000411740174E8540F70EE80E3C2970148
:2007800074D2970174758200E493B4A517A3E493B4E511A3E493B4E00BA3E493B4A50575BF
:2007A0008200D32274FFB58302C322058380D6E4F5A8F5B875D00075811774FFF590FFFFDC
:2007C000FFFF900000E493F0A3E583B420F774FEF590FFFFFFFF75F0F912080B1208387511
:2007E000F0FD12080B7818120074D8FB780F742012006AD8FB900BE4120982900BFD1209C5
:20080000821204AA7E007F200201BF9010001207855024758204E493B5F015C0F0C0837472
:200820002CC0E07408C0E0758240E473D083D0F00583E583B400D72274FFF58DF58B75891F
:2008400021758780759852D28E2230980612005EB41B5112005EB41B4B11B8209803741B1F
:200860002212005EB45B4411B83098DE12005EB44103740B22B44203740A22B443037415FF
:2008800022B44403740822B435028007B4360280028018C0E011B830980B12005EB47E093E
:2008A000D0E024E422D0E080A1D0E011B830989A12005EB41BF580A1EAC0E07A14E58C20B4
:2008C00098050470FADAF6D0E0FA22C0F0C0E08013C0F0C0E030E70C742D12006AD0E0C08E
:2008E000E0F4240175F06484D2D56007C2D5243012006AE5F075F00A8430D50260052430B5
:2009000012006AE5F0243012006AD0E0D0F022C0E0E8C0E0C2D5AA82AB837C107D27316D3D
:200920006007243012006AD2D57CE87D03316D700330D507243012006AD2D57C647D0031D3
:200940006D700330D507243012006AD2D5EAABF075F00A84700330D505243012006AE5F09A
:200960008BF0243012006AD0E0F8D0E022780008C3EA9CFAEB9DFB50F618EA2CFAEB3DFBDB
:20098000E822C0E0E8C0E0E9C0E0ECC0E0D2D1D2D5E493A3602520E72E547FB40D07120045
:2009A00074D2D180ECB41F04C2D580E5B40E051200748007C2D112006A80D6D0E0FCD0E04C
:2009C000F9D0E0F8D0E022547FF820D103120068C2D1C082C083900A3C7C00E86007F95168
:2009E0002B70FCD9FA512B603CB40F12512B0483801E68667767796278766B716A7A048343
:200A0000800E657461726E69736F6C756D706463A2D592E5D2D5B81402C2E5B80C02C2E5E7
:200A200012006A80C0D083D0822191E493BC00057CFF540F227C00A3C4540F228290E823E6
:200A400086054CF844B3B0B1485FF0117FA0157F1C2ED1405A50F103BFBA0C2F96018D3F04
:200A600095380D6F5F1207710E562F483B6258201F7670322440B840E1618F01340BCA895D
:200A8000D3C0A3B9588004F80285602591F092731F107F12549310444807D126564FD0F655
:200AA0006472E0B83BD5F0164F56306F48025FA8201F017630D5602541A42C60056F013FB8
:200AC000261F30078E1DF06399F042B8201F2330027AD1602FF0F6058F931A5028F0820496
:200AE0006FA30D3F1F514023013E0543017A01176493302A088C243099B0F3196025413522
:200B0000098ECB191230051F311D04144F761204AB279056012FA8D5F0AA26205F1CF0F310
:200B200061FE0141730127C1C0848FD6018770564F19701FA8D99076021743FE01C1840B98
:200B4000157F028B14308F63396F19F011C9106D023F91097A41D0BA0C1D395F07F2111734
:200B600020416B3509F775120BA7CC48023F6412A00C27E39FC014777011407121C0682530
:200B800041F0627FD1D021E16258B0F3051F733077B16F19E01943E0582FF6A414D0230385
:200BA000FE31F5143099F8033F6422516025412FE30156279309FE11FE79BA607542EA628E
:200BC00058A0E51F534FD1C0A3094253F71204621B30F505F7690C351B70822F2F144F5131
:200BE000C064250057656C636F6D658094322076322E312C2062791FF81FFE0D0E2020536A
:200C0000656594322E444F432C94322E455155A494322E484452B4D58D2E0E201F9E1FA0D1
:200C2000210D0E9432204C6F633A00203EA086CA822800292C958C80C83A20001F9782C32F
:200C400073C7A6832CBA204A554D508086A172820D0E0D0D1F8783813A20001FE4FB206B92
:200C600065793A20000D0D1F888083812028000D0D1F821FFD001F8120202020201FC90EA2
:200C800029201F871FB23A200046697273741F813A20004C6173741F813A2020001FB9A111
:200CA00020737572653F000D0D1F9C9A922C8C80C80E20201F9CC12C8E81F70D0E0D0D1FC5
:200CC0009F206173636969F9961F9884892C958C80A00D0E0D1F8AA065640D0E0D1F8AC1C0
:200CE000640D0E53756D6D6172793A0E20C67391640E208B91640E208B20777269747465CB
:200D00006E0E1F9B3A0E208B20756E61626C65802077726974650E2020626164F5730E203D
:200D2000859F96C60E2085849D0E2085206E6F6E849D0E1F979B2064657465637465640D52
:200D40000E0D866E696E67823A0D0E0D0D53656E64696E671F988489AC20200020802020FD
:200D6000000D0D5374616E646172641F9E730E1FDA1FF465641F9E730E1F9A9E001F8200DF
:200D80001F8F1FE21FAA003F3F3F001FD7001F8ED7D1001FD18273001F8682001F8A001FFF
:200DA00093001F8781001F88808381001F84DB9A83001F84DBC083001F9C9A92001FED837C
:200DC00000456E61626C65206E4353494F37370044697361626C65206E4353494F373700C4
:20100000A5E5E0A5FE4C00000000000000000000000000000000000000000000FFFFFFFF7B
:081020004C69737400020048E2
:2010400011257D14C2D1114CDDFC0125EFF583514FEEF582514FE493FAA3E493FBA3E4932E
:20106000FCEA5408700FEA035478F8EA5407489016C8938008EAC4540F901362935403F8F0
:201080002EFEEF3400FF743A512A719D20D121EA514F719DB80104790B8011EB514F719DB6
:2010A000B8020479088005EC514F7906719DD9FCEA54087010901748EA035478F8EA5407D3
:2010C0004893F980099017C8EAC4540F93F9901EF67808C374204007E99309A2E7547F51B3
:2010E0002AD8F1741BC0E07411C0E0EA5408700FEA035478F8EA5407489016C8938008EA33
:20110000C4540F9013629354FC03031490111D232582F582E43583F583E4730125412D4167
:201120003C21812172414841044152415821A221D7415E4169416D4108411021AA21832168
:201140007441714177417D413E411C418121DF411441C54185418B41914195419B41A941B9
:20116000AF41B541BB410C41BF41CB41D741E741ED2231F67440512A7452512AEA540141CE
:201180004531F6EB20E703EB414F9012F5E493A360F5F8C39B7003020038E493A330E7FA3F
:2011A00080EB511031F8742F512AEB547823C4F8EB54806014901372E893901F8B3582F5DD
:2011C000825002058331978005E82420514F742E512AEB5407414531F6318331F8ECFBEBDB
:2011E0002EF582EB20E703E48002E4F43FF5830200367440412A5108742C512A7420412A96
:201200007423412A318331F87441412A31AA31F87443412A31F25108742B512A7444512AE0
:201220007450512A7454512A7452020030EF54F8F8EAC403540748514FEB414F31F67452A5
:20124000512AEA540702002E510831F85100EB0200343183ECFB414A511031F821AA5108D6
:2012600031F85100EB514F21DB513E41603174416051087442412A513E31F821DF318321F0
:20128000DB31AA21DB513E31F84108513E31F82183513E414A318331F8413EEBC0E0ECFB57
:2012A000318331F8D0E0FB2183318331F82174317431F84108317431F821833174414A5186
:2012C0001C31F85100EB514FEC414F31F631F25108742B512A411C31F631F25108742B51C4
:2012E0002A7450512A411031F631F2411C31F2511C31F84108E04143C38153D0824450CCDE
:20130000834450C88050B09050B1A050B2B050B399534255C6CD5448B2C85432434FCECCAA
:20132000544CB2CB5243415032C8CA5243415032CC8C5448B08A544CB08D5448B18B544CCB
:20134000B1F0C2D05053D7A849C5B849D089544D4FC48854434FCE9853434FCE8750434F2C
:20136000CE00595909090909097A7E09763309520971000206080C0E101214161B1E20234F
:201380002425F8F0E493C398227950E58DF404F8D8FED9F722514F743A412A514F74204107
:0113A0002A22
:20140000A5E5E0A5FE5300000000000000000000000000000000000000000000FFFFFFFF70
:0C14200053696E676C652D537465700095
:2014400030B306901D7D020045900013E49324FE6005901DA08146A393F8E4A393F5828836
:201460008374027182700EA3741471827007A374EF71826011A882A983901DAD9146E95142
:201480004FE8514F0125E5B85404F5B8901D609146EF514FEE514F901D4A914612003C2070
:2014A000D50D5007901D6931970125AE82AF83C28A901DBC9146901EB43197E4758108C035
:2014C000E0C0E08E828F83F5D0F8F9FAFBFCFDFEFFF5F0757CDD757D14D2AAD2AF737189A6
:2014E000D0E0F9D0E0F8D082D083D0D0D0E032C0E0C0D0C083C082E8C0E0E9C0E07189D2E2
:2015000099719D719DE58124FBF8E6719BE5F0719B08E62354015145719D08E6514F08E640
:20152000719B719D08E6719508E67195EA7195EB7195EC7195ED7195EE7195EF719B719DE6
:20154000E824F8719B719D719DE57C8E7CFEE57D8F7DFFEAC0E0EBC0E0ECC0E0D2D1114CE8
:20156000D0E0FCD0E0FBD0E0FAAF7DAE7CE58124F9F8E6F57C08E6F57D12005F120040B46B
:201580000D0281DEB4200281DEB43F07901E2D9146A179B45113901EAD3197C2AA718975CC
:2015A000080075090075810932B44802A1CDB45202A1FDB45302C167B44102C1AAB42E07E6
:2015C000901EB43197A179A179743D412A901DFB3197E47195719DA88118E6719B08E651B7
:2015E0004F7802790EA1ECE871957910719DE6514F08D9F81125B880EE1125A17990134497
:201600003197B1C9E58124FCF8E6719B901348A8A8D16090134BA8B8D16090134EA889D13A
:2016200060901353A888D160901358A898D16090135DA887D1607454512A7430512AB1C94B
:20164000E58C514FE58A514F719D7454512A7431512AB1C9E58D514FE58B514F1125A1790D
:201660003197B1C9E8619B7817719DD8FC901DE33197E58124F9F8E68E7CFE08E68F7DFF19
:20168000EAC0E0EBC0E0ECC0E0D2D1114CD0E0FCD0E0FBD0E0FAE58124F9F8EEAE7CF57CA4
:2016A000F608EFAF7DF57DF6A179E58124FBF8901E1D319712003A400820D505F61125A124
:2016C00079901D693197A179AD066F393946494963066F39394649496306AD39160E111176
:2016E0006306AD39160E111166061A1F160E111166061A1F160E111166061A1F160E111194
:2017000066062269161F9292660622A14D8386869B06969D160E11112606225D4DAD8E8E93
:201720002606423D2F2B37374606423D390E11114606423D39571111A5061111390E11114F
:20174000A9068989391A89895A0E48732B2B2B2B30004375212121212E0E676E06060606FF
:2017600038006A700A0A0A0A330E5D5D5D5D5D5D3B00121212121212410E8F8F8F8F8F8F70
:201780003E005D354C4C4C4C7C0E124F244C4C4C4C004C4F808080805D0E4C2B57924C4C0C
:2017A00012001C1C15151515630E191984888888600078781F278B8B530E5353194C4C4C1C
:1817C000530053531C4C4C4C2B21060A5D128F4C4C804C1588274C4CFE
:20180000A5E5E0A5FE5600000000000000000000000000000000000000000000FFFFFFFF69
:161820004D656D6F727920456469746F7220285654313030290006
:201840007C0051BEECC2E3FC12005F3115B41B026185B40B02411CB40A024143B4080241A1
:201860005EB41502418DB40C0451BE0144B411026185B4030FEC54FEFC71C7901D2EB13EAA
:2018800051D90144B4040FEC4401FC71C7901D33B13E51D90144B4070221E4B4050221D8F9
:2018A000B406022153B4010FEC30E198D2E2FC914C915C71190144B4180FEC30E186C2E254
:2018C000FC914C915C71190144B419024139B41A02413EF5F0EC20E102014430E20EE5F0CD
:2018E0007190B5F0F48F838E82F0418DE5F012004012006240E3F88F838E82EC20E30AE8B5
:20190000FDECD2E3FC71190148EDC454F028F0ECC2E3FC418DC0E0EC20E106C2E3FCD0E00E
:201920002230E3F9D0E0C0E012004012006250EED0E0C0E0B41B0EECC2E3FC7119D0E0D061
:20194000E0D0E001448F838E82EDF0ECC2E3FC711980CBEC540270020144914CECC0E0905F
:2019600019BAB14412003C404620D543A882A9839019CAB13E12003C403520D532AC82AD16
:20198000839019D3B14412003A402420D521FAECFEEDFFD0E0FC88828983EAF0EEB5820CF0
:2019A000EFB58308914C915C51D90144A380EBD0E0FC914C915C7119014446696C6C1F8343
:2019C0003B2046697273743A200020204C6173743A200020A83A2000914CEC6402FC915CE2
:2019E00071190144914C901A15B144ECC0E012003CD0E0FC401320D510AE82AF8371C7749B
:201A00001471CD915C51D9014471C7741471CD915C711901441F831F813A20007145EEC35B
:201A20009410FEEF9400FFEEF454F06008740171D57161014451D901441F51D901440F51C5
:201A4000D901447145EE2410FEEF3400FFEE54F06008740171CD7161014451D901447145E7
:201A6000740371DDEEC39401FEEF9400FFEE44F0F4600471610144EEF454F0600C743071A3
:201A8000E5740171D57161014451D901447145740371E58E828F83A3AE82AF83EE540F60C5
:201AA0000471610144EE54F0600C743071DD740171CD7161014451D901447420A138901C29
:201AC000F4B13E9133B1419110B141912AB141741071CD912AB141915C71C7740271CD7570
:201AE00082008F837810B141120036743AB138AA82AB8351BA71A2B13BA3E582540F70F3C5
:201B00008A828B8351BA51BA51BA71A27190B138A3E582540F70F3D8CD71C7EEC4540F24A7
:201B20000371CDEE540F243871E571ED71AB7190B13871F9EE540F23F4243471DD71ED71B6
:201B4000ABB13B61F9EE540F23F4243171E571AB7190B138EE540F23F4243471DD71ABA1B0
:201B60003BEE540F23F4243171E571AB719071EDB13871F9EE540F23F4243471DD71AB71AE
:201B8000EDB13B61F9EE54F0C4F4241371CDA141547FB47F03742022C394205002740024B1
:201BA0002022EC20E003E49322E022C083C0828F838E82EC20E30D20E004E4938001E0D00A
:201BC00082D08322ED80F891037448A1389103B1477442A1389103B1477441A1389103B106
:201BE000477444A1389103B1477443A138901BF2A13E1B5B303B376D00901BFEA13E1B5BF2
:201C0000306D00C0E0741BB138745BB138D0E022901CFCB13E780051BA742BB138E81200E9
:201C20002E08B810F2901D02A13E7848742DB138D8FA22EC20E005901D2E8003901D33B108
:201C40003E780851BAD8FC901D16A14471C7741471CD7A4851BADAFC744861DDEC30E11295
:201C6000901CB420E203901CCFB13E901CEAB13E8005901CACB13E901C7CA13E20205E4758
:201C80003D476F746F20205E433D436F646520205E443D4461746120205E4C3D5265647288
:201CA000617720205E513D51756974005E452D45646974005E413D1B5B303B376D415343EF
:201CC00049491B5B306D20205E583D486578005E413D415343494920205E583D1B5B303BAE
:201CE000376D4865781B5B306D0020205E463D46696C6C001B5B481B5B324A004144445295
:201D00003A002020204153434949204551554956494C414E5400383035311F9A1F831FD87E
:201D20006F722C1FF81FFE2C203139393600434F444500444154410002003002003402009E
:201D400038020048020045020050292C206F72203C4553433E20746F20657869743A200066
:201D60000D1F8880838120280020436F6D6D616E642041626F727465642E0D0A000DA1C56B
:201D800020636F6E6E65637420494E5431202870696E20313329206C6F7780BACFCC0D006D
:201DA0009432B3C7AE8120303031330D001FB8B3FFA520766563746F72AE20000D4E6F77D3
:201DC000866E696E67A6CFCC206D6F64653A20203C5245543E3DCC2C203F3D2048656C7072
:201DE0000D0D00536B697070696E6720496E737472756374696F6E2D3E20000D0A4C6F6302
:201E00003A2020496E742052414D204D656D6F727920436F6E74656E74730D0A004E6577D5
:201E2000204163632056616C75653A20000D1FCF1FCC1F9E3A0D3C5245543E2086D4F60D38
:201E4000203C53503E2086D4F60D20273F272020FF8ED70D20272E272020FFC4FD730D202E
:201E60002752272020FF207370656369616C2066756E6374696F6EC4730D202748272020C2
:201E800084DBC0920D202753272020FCD4F60D202741272020F0A2204163632076616C7530
:201EA000650D202751272020C8CFCC0D0E517569740D0A00202041434320422043204450F9
:201EC00054522020523020523120523220523320523420523520523620523720205350200D
:201EE0002020416464722020496E737472756374696F6E0D0A004143414CCC004144C40008
:201F0000414444C3414A4DD0414ECC434A4EC5434CD24350CC44C14445C34449D6444A4E42
:201F2000DA494EC34AC24A42C34AC34A4DD04A4EC24A4EC34A4EDA4ADA4C43414CCC4C4AD5
:201F40004DD04D4FD64D4F56C34D4F56D84D55CC4E4FD04F52CC504FD0505553C85245D491
:201F6000524554C952CC524CC352D25252C3534554C2534A4DD0535542C2535741D0584339
:201F8000C8584348C45852CC3F3FBF50B054434FCE50B153434FCE50B249C550B349D04348
:111FA000B05432434FCE5053D744B84143C3FDC2FE20
:00000001FF
