:020000040000FA
:200000000208100220038E828F832202200BAE82AF8322022013742D016A0002201B116AB3
:20002000016800022023111601680002202B215E016A015E215B216D217A018101C521AC32
:20004000218D02089D0209E5017402019A02092E0209340209720207EA0208AD2141309880
:20006000FDC298E59922116874203099FDC299F599221174C0E0740D116A740A116AD0E0E1
:2000800022C2D51159318DB41B03D3E422B40D05D2D5C3E422FA314140E9CA116A11593129
:2000A0008DB41B0280E4B40D03EAC322B40804116A80D0B4150280F7FB314140E0CB116A4B
:2000C000EAC44BC3227A007B007C04C2D51159318DB41B07D3E4F583F58222B4080280032F
:2000E000B47F0CBC040280E5116A31300C80DEB40D108B838A82BC0407E4F583F582D2D528
:20010000C322FD314140C6CD12006AEDC0E0311FD0E02AFAE43BFBDCB4C38A828B8322EBF7
:20012000C454F0FBEAC4540F4BFBEAC454F0FA22EAC4540FFAEBC454F04AFAEBC4540FFB08
:200140002224D0501424F64004240AC32224F9500824FA40042410C322D322315DC4C0E0DD
:20016000540F2490D43440D4116AD0E022C0E0E583315BE582315BD0E022C0E0E0A3600A19
:20018000A2E7547F116A400280F2D0E022B461004007B47B00500224E0227800C0E0E060A7
:2001A00008A2E7084003A380F5D0E022C0E0C3309808E599B41B01D3C298D0E022900C84D9
:2001C0001145EF315BEE315B900C8C317A1159B43A0451BF80E7318D75F0BDC0F075F00138
:2001E000C0F0F5F09010001207EA5022758204E0B4FE140582E0B5F00E1168758220317A5F
:200200001174758240E4730583E583B400D9E5F0B43F07900DEC1145A1C0B44D07900DF4A6
:20022000114581AEB45207900DF91145A128B44407900DFD114541A2B45507900E001145A1
:20024000C15FB44E07900E031145E12FB44A07900E071145810CB44807900E0D1145813C20
:20026000B44507900E191145817BB44307900E1E1145E13FB44908900E1311450207C1B4BB
:200280003C08900E3B11450207E2B43E08900E4A11450207E6B45608900E22114502076147
:2002A0000174900D1E11459103115EB41B028070B43A028010314140F07906713280EA74D2
:2002C0003A116A9103790071327C007151F87151F5837151F5827151B401028029701EE878
:2002E00060107151FA79017132EAF079027132A3D8ED7151EC60B27904713280ACE860F20F
:200300007151D8FC80ECE860047151D8F37151EC70E57129900D3D114530987A115E80768E
:200320007129900D351145806D78007900D9FED8FA22E95407232408F907E7700209072234
:20034000D3878209878309E5827005E5837001C322115E318DB41B06D0E0D0E080C2B43A79
:200360000A79057132D0E0D0E041C9314150067907713280DCFA115E318DB41B0280D9B49C
:200380003A0280DD314150067907713280E8CAC44AFA2CFCEA22EEC0E0EFC0E0900D44115C
:2003A0004579087E4D7F0D71FF7E537F0D71FF7E587F0D71FF7A0571404009DAFA900D9493
:2003C00011458025900D631145790E7E677F0D71F17E787F0D71F17E807F0D71F17E867F1F
:2003E0000D71F17E8B7F0D71F1D0E0FFD0E0FE0174714050091168120972110611452271B5
:200400004080F27808760008B818FA22900CC611451106316D900C94114511C520D506502C
:2004200002E12A110E1174900DA211451106E4F5D0F5F07807F6D8FD758107737A1011720A
:200440001106316D743A111E7B101106E0A3315B1168DBF811667B101106E0A3547FB47F6B
:2004600001E424E04001E42420116ADBED1174D1E6110E31AC4002DAC70174900D0811455C
:200480001106316D743A111E7428116A110EE0315B900CE11145118120D50E400C1106F06D
:2004A00011741106A3110E8182900D130145900CD0114578151168D8FC900CD71145758388
:2004C000101207EA400201741166758220317A758220319A7421C398F87420116AD8FC75F7
:2004E0008200316D78067420116AD8FC758204E0AA83B4FE05900DDA8018B4FD05900DE179
:200500008010B42305900DDE8008B4F90280EE900DE811458A83117474FFB5830281C605E9
:2005200083E583B4009B81C611727AFF90100015830583E583B4000280211207EA501C75DB
:200540008204E04403F460E911660A74412A111E1126758220317A1174A131BAFF05900C78
:200560009D0145900C8F11457441116A111674412A116A900C9411451159B41B020174FB35
:20058000741FC39AEB4002318D116AFB1174EB24BF50D0FBEAC39B40CA0B90100015830502
:2005A00083E583B4000280171207EA5012758204E04403F460E9DBE71174758240812E22F0
:2005C000900DC211457C3F900DEFD1547C4D900DF4D1547C52900DF9D1547C44900DFDD1C7
:2005E000547C55900E00D1547C4E900E03D1547C4A900E07D1547C48900E0DD1547C49900A
:200600000E13D1547C45900E19D1547C43900E1ED1547C56900E22D1547C3C900E3BD154EA
:200620007C3E900E4AD154900DD011459010001207EA501E758204E0B4FE1011660582E0A4
:20064000116A1126758220317A11740583E583B400DD01741166EC116A112611450174D1FA
:20066000F8900DAC1145EB315BEA315B900DBD1145ED315BEC315B11748D838C82A3AC82E1
:20068000AD83900CBC1145115EB41B02E12811748A828B83ECC39582FAED95837009EA600C
:2006A0003154F0700280027A10743A116AEA315B316DE58325822AFBE4315BE0315B2BFBD4
:2006C000A3DAF8EBF404315B1174D1E631AC50C48056743A116AE4315B315B315B04315BF2
:2006E00074FF315B0172E8C0E0780CE58C04000070FBD8F7D0E0F8221172900CEA11451193
:20070000C5402120D51EC083C0821174900CF4114511C5AD83AC82D0E0FAD0E0FB400520C2
:20072000D5020174D0E0D0E01174900C7C0145900CB3114511C540F220D5EF110E0172D136
:20074000F8900CFE11451159318DB459DB11728B838A82E4F0EDB58305ECB5820122A3809D
:20076000F2D1F811748B838A82F189E0F197EDB58314ECB58210F18E900E3211458A828B95
:200780008312016D0172A380E27AFF7BFF22EA6400FAEB6400FB22F5F07480F8E5F05860B7
:2007A000027401F9EB23540169F9EA2AFAEB33FBE96008EA6421FAEB6410FBE8C31370DBC0
:2007C00022117478001174E8315B743A116A1168E6315B08B8000411740174E8540F70EE86
:2007E00080E3C2970174D2970174758200E0B4A514A3E0B4E50FA3E0B4E00AA3E0B4A50579
:20080000758200D32274FFB58302C322058380DAE4F5A8F5B875D00075811774FFF590FF01
:20082000FFFFFF900000E493F0A3E583B420F774FEF590FFFFFFFF75F0F912087174FF752A
:20084000F02112089D75F0FD1208717818120074D8FB780F742012006AD8FB900C45120994
:20086000E5900C5E1209E51204AE7E007F200201BD9010001207EA5023758204E0B5F0154D
:20088000C0F0C0837491C0E07408C0E0758240E473D083D0F00583E583B400D822F58DF5EE
:2008A0008B85F089758780759852D28E2230980612005EB41B5112005EB41B4B311B209866
:2008C00003741B2212005EB45B44311B3098DE12005EB44103740B22B44203740A22B44316
:2008E00003741522B44403740822B435028007B4360280028018C0E0311B30980B12005E0A
:20090000B47E09D0E024E422D0E080A1D0E0311B30989A12005EB41BF580A1EAC0E07A1426
:20092000E58C2098050470FADAF6D0E0FA22C0F0C0E08013C0F0C0E030E70C742D12006A0C
:20094000D0E0C0E0F4240175F06484D2D56007C2D5243012006AE5F075F00A8430D502603D
:2009600005243012006AE5F0243012006AD0E0D0F022C0E0E8C0E0C2D5AA82AB837C107D49
:200980002731D06007243012006AD2D57CE87D0331D0700330D507243012006AD2D57C6496
:2009A0007D0031D0700330D507243012006AD2D5EAABF075F00A84700330D5052430120068
:2009C0006AE5F08BF0243012006AD0E0F8D0E022780008C3EA9CFAEB9DFB50F618EA2CFA5F
:2009E000EB3DFBE822C0E0E8C0E0E9C0E0ECC0E0D2D1D2D5E0A3602520E72E547FB40D076B
:200A0000120074D2D180EDB41F04C2D580E6B40E051200748007C2D112006A80D7D0E0FC86
:200A2000D0E0F9D0E0F8D0E022547FF820D103120068C2D1C082C083900A9D7C00E8600740
:200A4000F9518D70FCD9FA518D603CB40F12518D0483801E68667767796278766B716A7AF9
:200A60000483800E657461726E69736F6C756D706463A2D592E5D2D5B81402C2E5B80C02A7
:200A8000C2E512006A80C0D083D08221F4E0BC00057CFF540F227C00A3C4540F228290E836
:200AA0002386054CF844B3B0B1485FF0117FA0157F1C2ED1405A50F103BFBA0C2F96018DC0
:200AC0003F95380D6F5F1207710E562F483B6258201F7670322440B840E1618F01340BCA47
:200AE00089D3C0A3B9588004F80285602591F092731F107F12549310444807D126564FD062
:200B0000F66472E0B83BD5F0164F56306F48025FA8201F017630D5602541A42C60056F01A0
:200B20003F261F30078E1DF06399F042B8201F2330027AD1602FF0F6058F931A5028F082FA
:200B4000046FA30D3F1F514023013E0543017A01176493302A088C243099B0F319602541F2
:200B600035098ECB191230051F311D04144F761204AB279056012FA8D5F0AA26205F1CF06E
:200B8000F361FE0141730127C1C0848FD6018770564F19701FA8D99076021743FE01C18450
:200BA0000B157F028B14308F63396F19F011C9106D023F91097A41D0BA0C1D395F07F211E0
:200BC0001720416B3509F775120BA7CC48023F6412A00C27E39FC014777011407121C068DE
:200BE0002541F0627FD1D021E16258B0F3051F733077B16F19E01943E0582FF6A414D02303
:200C000003FE31F5143099F8033F6422516025412FE30156279309FE11FE79BA607542EA8C
:200C20006258A0E51F534FD1C0A3094253F71204621B30F505F7690C351B70822F2F144FBF
:200C400051C064250057656C636F6D658094322076322E312C2062791FF81FFE0D0E20200B
:200C600053656594322E444F432C94322E455155A494322E484452B4D58D2E0E201F9E1FBE
:200C8000A0210D0E9432204C6F633A00203EA086CA822800292C958C80C83A20001F9782F2
:200CA000C373C7A6832CBA204A554D508086A172820D0E0D0D1F8783813A20001FE4FB20DA
:200CC0006B65793A20000D0D1F888083812028000D0D1F821FFD001F8120202020201FC9E5
:200CE0000E29201F871FB23A200046697273741F813A20004C6173741F813A2020001FB944
:200D0000A120737572653F000D0D1F9C9A922C8C80C80E20201F9CC12C8E81F70D0E0D0DE2
:200D20001F9F206173636969F9961F9884892C958C80A00D0E0D1F8AA065640D0E0D1F8A01
:200D4000C1640D0E53756D6D6172793A0E20C67391640E208B91640E208B2077726974740E
:200D6000656E0E1F9B3A0E208B20756E61626C65802077726974650E2020626164F5730E98
:200D800020859F96C60E2085849D0E2085206E6F6E849D0E1F979B206465746563746564DF
:200DA0000D0E0D866E696E67823A0D0E0D0D53656E64696E671F988489AC202000208020B0
:200DC00020000D0D5374616E646172641F9E730E1FDA1FF465641F9E730E1F9A9E001F825F
:200DE000001F8F1FE21FAA003F3F3F001FD7001F8ED7D1001FD18273001F8682001F8A00BE
:200E00001F93001F8781001F88808381001F84DB9A83001F84DBC083001F9C9A92001FED7F
:200E2000830043616C63756C617465204352433136004352433136203D2000456E61626CA4
:1A0E400065206E4353494F37370044697361626C65206E4353494F3737002B
:20100000A5E5E0A5FE4C00000000000000000000000000000000000000000000FFFFFFFF7B
:081020004C69737400020048E2
:2010400011257D14C2D1114CDDFC0125EFF583514FEEF582514FE493FAA3E493FBA3E4932E
:20106000FCEA5408700FEA035478F8EA5407489016C8938008EAC4540F901362935403F8F0
:201080002EFEEF3400FF743A512A719D20D121EA514F719DB80104790B8011EB514F719DB6
:2010A000B8020479088005EC514F7906719DD9FCEA54087010901748EA035478F8EA5407D3
:2010C0004893F980099017C8EAC4540F93F9901EF67808C374204007E99309A2E7547F51B3
:2010E0002AD8F1741BC0E07411C0E0EA5408700FEA035478F8EA5407489016C8938008EA33
:20110000C4540F9013629354FC03031490111D232582F582E43583F583E4730125412D4167
:201120003C21812172414841044152415821A221D7415E4169416D4108411021AA21832168
:201140007441714177417D413E411C418121DF411441C54185418B41914195419B41A941B9
:20116000AF41B541BB410C41BF41CB41D741E741ED2231F67440512A7452512AEA540141CE
:201180004531F6EB20E703EB414F9012F5E493A360F5F8C39B7003020038E493A330E7FA3F
:2011A00080EB511031F8742F512AEB547823C4F8EB54806014901372E893901F8B3582F5DD
:2011C000825002058331978005E82420514F742E512AEB5407414531F6318331F8ECFBEBDB
:2011E0002EF582EB20E703E48002E4F43FF5830200367440412A5108742C512A7420412A96
:201200007423412A318331F87441412A31AA31F87443412A31F25108742B512A7444512AE0
:201220007450512A7454512A7452020030EF54F8F8EAC403540748514FEB414F31F67452A5
:20124000512AEA540702002E510831F85100EB0200343183ECFB414A511031F821AA5108D6
:2012600031F85100EB514F21DB513E41603174416051087442412A513E31F821DF318321F0
:20128000DB31AA21DB513E31F84108513E31F82183513E414A318331F8413EEBC0E0ECFB57
:2012A000318331F8D0E0FB2183318331F82174317431F84108317431F821833174414A5186
:2012C0001C31F85100EB514FEC414F31F631F25108742B512A411C31F631F25108742B51C4
:2012E0002A7450512A411031F631F2411C31F2511C31F84108E04143C38153D0824450CCDE
:20130000834450C88050B09050B1A050B2B050B399534255C6CD5448B2C85432434FCECCAA
:20132000544CB2CB5243415032C8CA5243415032CC8C5448B08A544CB08D5448B18B544CCB
:20134000B1F0C2D05053D7A849C5B849D089544D4FC48854434FCE9853434FCE8750434F2C
:20136000CE00595909090909097A7E09763309520971000206080C0E101214161B1E20234F
:201380002425F8F0E493C398227950E58DF404F8D8FED9F722514F743A412A514F74204107
:0113A0002A22
:20140000A5E5E0A5FE5300000000000000000000000000000000000000000000FFFFFFFF70
:0C14200053696E676C652D537465700095
:2014400030B306901D7D020045900013E49324FE6005901DA08146A393F8E4A393F5828836
:201460008374027182700EA3741471827007A374EF71826011A882A983901DAD9146E95142
:201480004FE8514F0125E5B85404F5B8901D609146EF514FEE514F901D4A914612003C2070
:2014A000D50D5007901D6931970125AE82AF83C28A901DBC9146901EB43197E4758108C035
:2014C000E0C0E08E828F83F5D0F8F9FAFBFCFDFEFFF5F0757CDD757D14D2AAD2AF737189A6
:2014E000D0E0F9D0E0F8D082D083D0D0D0E032C0E0C0D0C083C082E8C0E0E9C0E07189D2E2
:2015000099719D719DE58124FBF8E6719BE5F0719B08E62354015145719D08E6514F08E640
:20152000719B719D08E6719508E67195EA7195EB7195EC7195ED7195EE7195EF719B719DE6
:20154000E824F8719B719D719DE57C8E7CFEE57D8F7DFFEAC0E0EBC0E0ECC0E0D2D1114CE8
:20156000D0E0FCD0E0FBD0E0FAAF7DAE7CE58124F9F8E6F57C08E6F57D120059120040B471
:201580000D0281DEB4200281DEB43F07901E2D9146A179B45113901EAD3197C2AA718975CC
:2015A000080075090075810932B44802A1CDB45202A1FDB45302C167B44102C1AAB42E07E6
:2015C000901EB43197A179A179743D412A901DFB3197E47195719DA88118E6719B08E651B7
:2015E0004F7802790EA1ECE871957910719DE6514F08D9F81125B880EE1125A17990134497
:201600003197B1C9E58124FCF8E6719B901348A8A8D16090134BA8B8D16090134EA889D13A
:2016200060901353A888D160901358A898D16090135DA887D1607454512A7430512AB1C94B
:20164000E58C514FE58A514F719D7454512A7431512AB1C9E58D514FE58B514F1125A1790D
:201660003197B1C9E8619B7817719DD8FC901DE33197E58124F9F8E68E7CFE08E68F7DFF19
:20168000EAC0E0EBC0E0ECC0E0D2D1114CD0E0FCD0E0FBD0E0FAE58124F9F8EEAE7CF57CA4
:2016A000F608EFAF7DF57DF6A179E58124FBF8901E1D319712003A400820D505F61125A124
:2016C00079901D693197A179AD066F393946494963066F39394649496306AD39160E111176
:2016E0006306AD39160E111166061A1F160E111166061A1F160E111166061A1F160E111194
:2017000066062269161F9292660622A14D8386869B06969D160E11112606225D4DAD8E8E93
:201720002606423D2F2B37374606423D390E11114606423D39571111A5061111390E11114F
:20174000A9068989391A89895A0E48732B2B2B2B30004375212121212E0E676E06060606FF
:2017600038006A700A0A0A0A330E5D5D5D5D5D5D3B00121212121212410E8F8F8F8F8F8F70
:201780003E005D354C4C4C4C7C0E124F244C4C4C4C004C4F808080805D0E4C2B57924C4C0C
:2017A00012001C1C15151515630E191984888888600078781F278B8B530E5353194C4C4C1C
:1817C000530053531C4C4C4C2B21060A5D128F4C4C804C1588274C4CFE
:20180000A5E5E0A5FE5600000000000000000000000000000000000000000000FFFFFFFF69
:161820004D656D6F727920456469746F7220285654313030290006
:201840007C0051BEECC2E3FC1200593115B41B026185B40B02411CB40A024143B4080241A7
:201860005EB41502418DB40C0451BE0144B411026185B4030FEC54FEFC71C7901D2EB13EAA
:2018800051D90144B4040FEC4401FC71C7901D33B13E51D90144B4070221E4B4050221D8F9
:2018A000B406022153B4010FEC30E198D2E2FC914C915C71190144B4180FEC30E186C2E254
:2018C000FC914C915C71190144B419024139B41A02413EF5F0EC20E102014430E20EE5F0CD
:2018E0007190B5F0F48F838E82F0418DE5F012004012005C40E3F88F838E82EC20E30AE8BB
:20190000FDECD2E3FC71190148EDC454F028F0ECC2E3FC418DC0E0EC20E106C2E3FCD0E00E
:201920002230E3F9D0E0C0E012004012005C50EED0E0C0E0B41B0EECC2E3FC7119D0E0D067
:20194000E0D0E001448F838E82EDF0ECC2E3FC711980CBEC540270020144914CECC0E0905F
:2019600019BAB14412003C404620D543A882A9839019CAB13E12003C403520D532AC82AD16
:20198000839019D3B14412003A402420D521FAECFEEDFFD0E0FC88828983EAF0EEB5820CF0
:2019A000EFB58308914C915C51D90144A380EBD0E0FC914C915C7119014446696C6C1F8343
:2019C0003B2046697273743A200020204C6173743A200020A83A2000914CEC6402FC915CE2
:2019E00071190144914C901A15B144ECC0E012003CD0E0FC401320D510AE82AF8371C7749B
:201A00001471CD915C51D9014471C7741471CD915C711901441F831F813A20007145EEC35B
:201A20009410FEEF9400FFEEF454F06008740171D57161014451D901441F51D901440F51C5
:201A4000D901447145EE2410FEEF3400FFEE54F06008740171CD7161014451D901447145E7
:201A6000740371DDEEC39401FEEF9400FFEE44F0F4600471610144EEF454F0600C743071A3
:201A8000E5740171D57161014451D901447145740371E58E828F83A3AE82AF83EE540F60C5
:201AA0000471610144EE54F0600C743071DD740171CD7161014451D901447420A138901C29
:201AC000F4B13E9133B1419110B141912AB141741071CD912AB141915C71C7740271CD7570
:201AE00082008F837810B141120036743AB138AA82AB8351BA71A2B13BA3E582540F70F3C5
:201B00008A828B8351BA51BA51BA71A27190B138A3E582540F70F3D8CD71C7EEC4540F24A7
:201B20000371CDEE540F243871E571ED71AB7190B13871F9EE540F23F4243471DD71ED71B6
:201B4000ABB13B61F9EE540F23F4243171E571AB7190B138EE540F23F4243471DD71ABA1B0
:201B60003BEE540F23F4243171E571AB719071EDB13871F9EE540F23F4243471DD71AB71AE
:201B8000EDB13B61F9EE54F0C4F4241371CDA141547FB47F03742022C394205002740024B1
:201BA0002022EC20E003E49322E022C083C0828F838E82EC20E30D20E004E4938001E0D00A
:201BC00082D08322ED80F891037448A1389103B1477442A1389103B1477441A1389103B106
:201BE000477444A1389103B1477443A138901BF2A13E1B5B303B376D00901BFEA13E1B5BF2
:201C0000306D00C0E0741BB138745BB138D0E022901CFCB13E780051BA742BB138E81200E9
:201C20002E08B810F2901D02A13E7848742DB138D8FA22EC20E005901D2E8003901D33B108
:201C40003E780851BAD8FC901D16A14471C7741471CD7A4851BADAFC744861DDEC30E11295
:201C6000901CB420E203901CCFB13E901CEAB13E8005901CACB13E901C7CA13E20205E4758
:201C80003D476F746F20205E433D436F646520205E443D4461746120205E4C3D5265647288
:201CA000617720205E513D51756974005E452D45646974005E413D1B5B303B376D415343EF
:201CC00049491B5B306D20205E583D486578005E413D415343494920205E583D1B5B303BAE
:201CE000376D4865781B5B306D0020205E463D46696C6C001B5B481B5B324A004144445295
:201D00003A002020204153434949204551554956494C414E5400383035311F9A1F831FD87E
:201D20006F722C1FF81FFE2C203139393600434F444500444154410002003002003402009E
:201D400038020048020045020050292C206F72203C4553433E20746F20657869743A200066
:201D60000D1F8880838120280020436F6D6D616E642041626F727465642E0D0A000DA1C56B
:201D800020636F6E6E65637420494E5431202870696E20313329206C6F7780BACFCC0D006D
:201DA0009432B3C7AE8120303031330D001FB8B3FFA520766563746F72AE20000D4E6F77D3
:201DC000866E696E67A6CFCC206D6F64653A20203C5245543E3DCC2C203F3D2048656C7072
:201DE0000D0D00536B697070696E6720496E737472756374696F6E2D3E20000D0A4C6F6302
:201E00003A2020496E742052414D204D656D6F727920436F6E74656E74730D0A004E6577D5
:201E2000204163632056616C75653A20000D1FCF1FCC1F9E3A0D3C5245543E2086D4F60D38
:201E4000203C53503E2086D4F60D20273F272020FF8ED70D20272E272020FFC4FD730D202E
:201E60002752272020FF207370656369616C2066756E6374696F6EC4730D202748272020C2
:201E800084DBC0920D202753272020FCD4F60D202741272020F0A2204163632076616C7530
:201EA000650D202751272020C8CFCC0D0E517569740D0A00202041434320422043204450F9
:201EC00054522020523020523120523220523320523420523520523620523720205350200D
:201EE0002020416464722020496E737472756374696F6E0D0A004143414CCC004144C40008
:201F0000414444C3414A4DD0414ECC434A4EC5434CD24350CC44C14445C34449D6444A4E42
:201F2000DA494EC34AC24A42C34AC34A4DD04A4EC24A4EC34A4EDA4ADA4C43414CCC4C4AD5
:201F40004DD04D4FD64D4F56C34D4F56D84D55CC4E4FD04F52CC504FD0505553C85245D491
:201F6000524554C952CC524CC352D25252C3534554C2534A4DD0535542C2535741D0584339
:201F8000C8584348C45852CC3F3FBF50B054434FCE50B153434FCE50B249C550B349D04348
:111FA000B05432434FCE5053D744B84143C3FDC2FE20
:00000001FF
