:030000000207886C
:080003000220038E828F83228C
:08000B0002200BAE82AF83223C
:08001300022013742D016A00A4
:08001B0002201B116A016800BC
:08002300022023111601680000
:03002B0002202B85
:10002E00215E016A015E215B216D217A018101C58C
:10003E0021AE218E020811020959017402019B02A0
:10004E0008A20208A80208E602075E020821214162
:10005E003098FDC298E59922116874203099FDC23E
:10006E0099F599221174C0E0740D116A740A116A1F
:10007E00D0E022C2D51159318EB41B03D3E422B481
:10008E000D05D2D5C3E422FA314140E9CA116A11F5
:10009E0059318EB41B0280E4B40D03EAC322B408B6
:1000AE0004116A80D0B4150280F7FB314140E0CBD9
:1000BE00116AEAC44BC3227A007B007C04C2D511BC
:1000CE0059318EB41B07D3E4F583F58222B40802AE
:1000DE008003B47F0CBC040280E5116A31300C80C1
:1000EE00DEB40D108B838A82BC0407E4F583F5829F
:1000FE00D2D5C322FD314140C6CD12006AEDC0E01B
:10010E00311FD0E02AFAE43BFBDCB4C38A828B8336
:10011E0022EBC454F0FBEAC4540F4BFBEAC454F078
:10012E00FA22EAC4540FFAEBC454F04AFAEBC45460
:10013E000FFB2224D0501424F64004240AC3222498
:10014E00F9500824FA40042410C322D322315DC48E
:10015E00C0E0540F2490D43440D4116AD0E022C0B1
:10016E00E0E583315BE582315BD0E022C0E0E493D1
:10017E00A3600AA2E7547F116A400280F1D0E02208
:10018E00B461004007B47B00500224E0227800C026
:10019E00E0E4936008A2E7084003A380F4D0E022D5
:1001AE00C0E0C3309808E599B41B01D3C298D0E0E3
:1001BE0022900BFA1145EF315BEE315B317A11591A
:1001CE00B43A0451B580EA318E75F0BFC0F075F0C7
:1001DE0001C0F0F5F090100012075E5024758204F5
:1001EE00E493B4FE150582E493B5F00E11687582A2
:1001FE0020317A1174758240E4730583E583B4006F
:10020E00D7E5F0B43F07900D621145A1B9B44D0783
:10021E00900D6A114581A7B45207900D6F1145A13B
:10022E001FB44407900D7311454198B45507900DB6
:10023E00761145C135B44E07900D791145E125B4BF
:10024E004A07900D7D11458102B44807900D831128
:10025E00458132B44507900D8F11458173B4430724
:10026E00900D941145E103B44908900D8911450292
:10027E000735B43C08900D981145020756B43E0858
:10028E00900DA7114502075A0174900C94114571F7
:10029E00F9115EB41B028070B43A028010314140F5
:1002AE00F07906712880EA743A116A71F979007151
:1002BE00287C007147F87147F5837147F5827147C5
:1002CE00B401028029701EE860107147FA7901713D
:1002DE0028EAF079027128A3D8ED7147EC60B27963
:1002EE0004712880ACE860F27147D8FC80ECE860BD
:1002FE00047147D8F37147EC70E5711F900CB31180
:10030E004530987A115E8076711F900CAB11458046
:10031E006D78007900D9FED8FA22E9540723240813
:10032E00F907E77002090722D3878209878309E557
:10033E00827005E5837001C322115E318EB41B06F7
:10034E00D0E0D0E080C2B43A0A79057128D0E0D06E
:10035E00E041BF314150067907712880DCFA115E09
:10036E00318EB41B0280D9B43A0280DD3141500681
:10037E007907712880E8CAC44AFA2CFCEA22EEC03A
:10038E00E0EFC0E0900CBA114579087EC37F0C7186
:10039E00F57EC97F0C71F57ECE7F0C71F57A0571F5
:1003AE00364009DAFA900D0A11458025900CD911C4
:1003BE0045790E7EDD7F0C71E77EEE7F0C71E77E58
:1003CE00F67F0C71E77EFC7F0C71E77E017F0D716D
:1003DE00E7D0E0FFD0E0FE017471365009116812CB
:1003EE0008E61106114522713680F278087600086B
:1003FE00B818FA22900C3C11451106316D900C0A7A
:10040E00114511C520D5065002C1FE110E11749072
:10041E000D1811451106E4F5D0F5F07807F6D8FD64
:10042E00758107737A1011721106316D743A111EAF
:10043E007B101106E493A3315B1168DBF711667B29
:10044E00101106E493A3547FB47F01E424E040012D
:10045E00E42420116ADBEC1174D1BA110E31AE40D6
:10046E0002DAC50174900C7E11451106316D743A95
:10047E00111E7428116A110EE493315B900C571102
:10048E0045118120D50E400C1106F011741106A3F2
:10049E00110E817A900C890145900C461145781504
:1004AE001168D8FC114575831012075E4002017465
:1004BE001166758220317A758220319B7421C39822
:1004CE00F87420116AD8FC758200316D780674209C
:1004DE00116AD8FC758204E493AA83B4FE05900DCC
:1004EE00508018B4FD05900D578010B42305900D63
:1004FE00548008B4F90280EE900D5E11458A831186
:10050E007474FFB5830281BC0583E583B4009A81C0
:10051E00BC11727AFF90100015830583E583B40039
:10052E0002802212075E501D758204E4934403F488
:10053E0060E811660A74412A111E11267582203157
:10054E007A1174A128BAFF05900C130145900C0581
:10055E0011457441116A111674412A116A900C0AE0
:10056E0011451159B41B020174FB741FC39AEB4061
:10057E0002318E116AFB1174EB24BF50D0FBEAC31B
:10058E009B40CA0B90100015830583E583B40002CF
:10059E00801812075E5013758204E4934403F460CE
:1005AE00E8DBE61174758240812422900D381145E6
:1005BE007C3F900D65D12A7C4DD12A7C52D12A7C6C
:1005CE0044D12A7C55D12A7C4ED12A7C4AD12A7C10
:1005DE0048D12A7C49D12A7C45D12A7C43D12A7C18
:1005EE003C900D98D12A7C3E900DA7D12A900D46B5
:1005FE00114590100012075E5020758204E493B4EA
:10060E00FE1111660582E493116A1126758220315E
:10061E007A11740583E583B400DB01741166EC1165
:10062E006A112611450174D1CC900D221145EB3182
:10063E005BEA315B1145ED315BEC315B11748D83FF
:10064E008C82A3AC82AD83900C321145115EB41B2B
:10065E0002C1FC11748A828B83ECC39582FAED95EC
:10066E00837009EA603254F0700280027A10743A94
:10067E00116AEA315B316DE58325822AFBE4315B39
:10068E00E493315B2BFBA3DAF7EBF404315B1174CB
:10069E00D1BA31AE50C38056743A116AE4315B312F
:1006AE005B315B04315B74FF315B0172E8C0E07853
:1006BE000CE58C04000070FBD8F7D0E0F822117224
:1006CE00900C60114511C5402120D51EC083C082FB
:1006DE001174900C6A114511C5AD83AC82D0E0FA4D
:1006EE00D0E0FB400520D5020174D0E0D0E01174BB
:1006FE00900BF20145D1CC900C7411451159318EED
:10070E00B459EB11728B838A82E4F0EDB58305EC5C
:10071E00B5820122A380F2900C29114511C540D05B
:10072E0020D5CD110E0172117478001174E8315B71
:10073E00743A116A1168E6315B08B800041174014D
:10074E0074E8540F70EE80E3C2970174D29701746F
:10075E00758200E493B4A517A3E493B4E511A3E462
:10076E0093B4E00BA3E493B4A505758200D3227471
:10077E00FFB58302C322058380D6E4F5A8F5B875CC
:10078E00D00075811774FFF590FFFFFFFF900000FA
:10079E00E493F0A3E583B420F774FEF590FFFFFF1A
:1007AE00FF75F0F9F1E212080F75F0FDF1E278181D
:1007BE00120074D8FB780F742012006AD8FB900BCD
:1007CE00BB120959900BD41209591204A77E007F4F
:1007DE00200201BF90100012075E5024758204E4BF
:1007EE0093B5F015C0F0C0837403C0E07408C0E088
:1007FE00758240E473D083D0F00583E583B400D7CF
:10080E002274FFF58DF58B75892175878075985249
:10081E00D28E2230980612005EB41B5112005EB4C6
:10082E001B4B118F209803741B2212005EB45B4485
:10083E00118F3098DE12005EB44103740B22B44265
:10084E0003740A22B44303741522B44403740822B9
:10085E00B435028007B4360280028018C0E0118FD2
:10086E0030980B12005EB47E09D0E024E422D0E072
:10087E0080A1D0E0118F30989A12005EB41BF580E3
:10088E00A1EAC0E07A14E58C2098050470FADAF635
:10089E00D0E0FA22C0F0C0E08013C0F0C0E030E734
:1008AE000C742D12006AD0E0C0E0F4240175F064DF
:1008BE0084D2D56007C2D5243012006AE5F075F0F7
:1008CE000A8430D5026005243012006AE5F0243027
:1008DE0012006AD0E0D0F022C0E0E8C0E0C2D5AA93
:1008EE0082AB837C107D2731446007243012006A6E
:1008FE00D2D57CE87D033144700330D50724301205
:10090E00006AD2D57C647D003144700330D5072453
:10091E003012006AD2D5EAABF075F00A847003305B
:10092E00D505243012006AE5F08BF0243012006AEF
:10093E00D0E0F8D0E022780008C3EA9CFAEB9DFBE9
:10094E0050F618EA2CFAEB3DFBE822C0E0E8C0E0D6
:10095E00E9C0E0ECC0E0D2D1D2D5E493A36025206B
:10096E00E72E547FB40D07120074D2D180ECB41F61
:10097E0004C2D580E5B40E051200748007C2D112F0
:10098E00006A80D6D0E0FCD0E0F9D0E0F8D0E022CA
:10099E00547FF820D103120068C2D1C082C0839068
:1009AE000A137C00E86007F9510270FCD9FA510273
:1009BE00603CB40F1251020483801E68667767791B
:1009CE006278766B716A7A0483800E657461726EDA
:1009DE0069736F6C756D706463A2D592E5D2D5B8EC
:1009EE001402C2E5B80C02C2E512006A80C0D083C0
:1009FE00D0822168E493BC00057CFF540F227C005A
:100A0E00A3C4540F228290E82386054CF844B3B059
:100A1E00B1485FF0117FA0157F1C2ED1405A50F1C6
:100A2E0003BFBA0C2F96018D3F95380D6F5F1207DD
:100A3E00710E562F483B6258201F7670322440B8F4
:100A4E0040E1618F01340BCA89D3C0A3B958800429
:100A5E00F80285602591F092731F107F1254931047
:100A6E00444807D126564FD0F66472E0B83BD5F015
:100A7E00164F56306F48025FA8201F017630D560A2
:100A8E002541A42C60056F013F261F30078E1DF0F7
:100A9E006399F042B8201F2330027AD1602FF0F60E
:100AAE00058F931A5028F082046FA30D3F1F5140FB
:100ABE0023013E0543017A01176493302A088C24E2
:100ACE003099B0F31960254135098ECB19123005D6
:100ADE001F311D04144F761204AB279056012FA818
:100AEE00D5F0AA26205F1CF0F361FE0141730127A9
:100AFE00C1C0848FD6018770564F19701FA8D99028
:100B0E0076021743FE01C1840B157F028B14308FC2
:100B1E0063396F19F011C9106D023F91097A41D0F6
:100B2E00BA0C1D395F07F2111720416B3509F775A5
:100B3E00120BA7CC48023F6412A00C27E39FC014EF
:100B4E00777011407121C0682541F0627FD1D021AC
:100B5E00E16258B0F3051F733077B16F19E0194396
:100B6E00E0582FF6A414D02303FE31F5143099F873
:100B7E00033F6422516025412FE30156279309FE5E
:100B8E0011FE79BA607542EA6258A0E51F534FD143
:100B9E00C0A3094253F71204621B30F505F7690C26
:100BAE00351B70822F2F144F51C064250057656C72
:100BBE00636F6D658094322076322E312C206279EF
:100BCE001FF81FFE0D0E202053656594322E444FE4
:100BDE00432C94322E455155A494322E484452B48F
:100BEE00D58D2E0E201F9E1FA0210D0E9432204C4F
:100BFE006F633A00203EA086CA822800292C958C6D
:100C0E0080C83A20001F9782C373C7A6832CBA20D0
:100C1E004A554D508086A172820D0E0D0D1F878391
:100C2E00813A20001FE4FB206B65793A20000D0D00
:100C3E001F888083812028000D0D1F821FFD001F3D
:100C4E008120202020201FC90E29201F871FB23A85
:100C5E00200046697273741F813A20004C617374D0
:100C6E001F813A2020001FB9A120737572653F00C5
:100C7E000D0D1F9C9A922C8C80C80E20201F9CC19B
:100C8E002C8E81F70D0E0D0D1F9F20617363696908
:100C9E00F9961F9884892C958C80A00D0E0D1F8AB5
:100CAE00A065640D0E0D1F8AC1640D0E53756D6D1A
:100CBE006172793A0E20C67391640E208B91640E88
:100CCE00208B207772697474656E0E1F9B3A0E200E
:100CDE008B20756E61626C65802077726974650E0B
:100CEE002020626164F5730E20859F96C60E2085C6
:100CFE00849D0E2085206E6F6E849D0E1F979B2007
:100D0E0064657465637465640D0E0D866E696E6739
:100D1E00823A0D0E0D0D53656E64696E671F9884D1
:100D2E0089AC20200020802020000D0D5374616EB0
:100D3E00646172641F9E730E1FDA1FF465641F9E3A
:100D4E00730E1F9A9E001F82001F8F1FE21FAA00A4
:100D5E003F3F3F001FD7001F8ED7D1001FD1827398
:100D6E00001F8682001F8A001F93001F8781001FAD
:100D7E0088808381001F84DB9A83001F84DBC083FD
:100D8E00001F9C9A92001FED8300456E61626C6598
:100D9E00206E4353494F37370044697361626C6567
:090DAE00206E4353494F37370012
:00000001FF
