:030000000208E80B
:08000300022003FFFFFFFFFFD5
:08000B0002200BFFFFFFFFFFC5
:08001300022013FFFFFFFFFFB5
:08001B0002201BFFFFFFFFFFA5
:08002300022023FFFFFFFFFF95
:08002B0002202BFFFFFFFFFF85
:1000330002097A02007202007A0200840201A2021B
:1000430001A50201B40200BB02098F02099502094E
:10005300D302009E0200C802010C0201880201C102
:100063000201CE02080702081B02081002087730BB
:1000730098FDE599C29822D3309805E599C298C3B3
:10008300223099FDC299F59922C0E074201184D0E1
:10009300E022C0E0742D1184D0E022C0E0740D1181
:1000A30084740A1184D0E0221184018C1195018C8F
:1000B300118C018C119E019EC0E0E0A360041184A9
:1000C30080F8D0E022C2D5117231C1B41B03D3E44E
:1000D30022B40D05D2D5C3E422FA318840E9CA110E
:1000E30084117231C1B41B0280E4B40D03EAC3224C
:1000F300B40804118480D0B4150280F7FB31884022
:10010300E0CB1184EAC44BC3227A007B007C04C297
:10011300D5117231C1B41B07D3E4F583F58222B440
:1001230008028003B47F0CBC040280E5118431779C
:100133000C80DEB40D108B838A82BC0407E4F58344
:10014300F582D2D5C322FD318840C6CD120084ED9D
:10015300C0E03166D0E02AFAE43BFBDCB4C38A8218
:100163008B8322EBC454F0FBEAC4540F4BFBEAC469
:1001730054F0FA22EAC4540FFAEBC454F04AFAEBEF
:10018300C4540FFB2224D0501424F64004240AC381
:100193002224F9500824FA40042410C322D3223124
:1001A300A4C4C0E0540F2490D43440D41184D0E0CC
:1001B30022C0E0E58331A2E58231A2D0E022B4611E
:1001C300004007B47B00500224E0227800C0E0E046
:1001D300600408A380F9D0E022900A7B11BBEF31C1
:1001E300A2EE31A2900A8511BB1172B43A0451F305
:1001F30080E731C175F0DCC0F075F001C0F0F5F0B7
:100203009010001208775022758204E0B4FE1405A2
:1002130082E0B5F00E118C75822011BB119E7582A0
:1002230040E4730583E583B4E0D9E5F0B43F079078
:100233000DD811BBA1F7B44D07900DEC11BB81E5AF
:10024300B45207900DFA11BBA15FB44407900E0698
:1002530011BB41D6B45507900E0F11BBC19DB44ECF
:1002630007900E1611BBE15CB44A07900E2311BB35
:100273008140B44807900E3B11BB8170B445079091
:100283000E6D11BB81B2B44307900E8211BBE16CBA
:10029300B44908900E5411BB020847B43C08900EB1
:1002A300A811BB02086DB43E08900EB711BB02083B
:1002B30072B45708900E9811BB0207C7B442089056
:1002C3000EC711BB020790019E8E828F8322AE82DE
:1002D300AF8322900BED11BB91371172B41B0280D7
:1002E30070B43A028010318840F07906716680EA72
:1002F300743A11849137790071667C007185F871C5
:1003030085F5837185F5827185B401028029701E9C
:10031300E860107185FA79017166EAF07902716615
:10032300A3D8ED7185EC60B27904716680ACE860A6
:10033300F27185D8FC80ECE860047185D8F371858F
:10034300EC70E5715D900C3B11BB30987A117280B3
:1003530076715D900C2411BB806D78007900D9FE15
:10036300D8FA22E95407232408F907E7700209079A
:1003730022D3878209878309E5827005E5837001AB
:10038300C322117231C1B41B06D0E0D0E080C2B4E5
:100393003A0A79057166D0E0D0E041FD3188500614
:1003A3007907716680DCFA117231C1B41B0280D9FE
:1003B300B43A0280DD318850067907716680E8CA55
:1003C300C44AFA2CFCEA22EEC0E0EFC0E0900C54E1
:1003D30011BB79087E5F7F0C91337E727F0C913362
:1003E3007E857F0C91337A0571744009DAFA900D9A
:1003F3002211BB8025900C9711BB790E7EA17F0C37
:1004030091257EBB7F0C91257ECD7F0C91257EEAC5
:100413007F0C91257E047F0D9125D0E0FFD0E0FE77
:10042300019E71745009118C1209D351CC11BB2256
:10043300717480F27808760008B818FA22900B12CB
:1004430011BB51CC31B4900AA111BB310C20D5069C
:100453005002E15751D1119E900D3911BB51CCE49B
:10046300F5D0758107F5F078FFF6D8FD737A101192
:10047300B751CC31B4743A11AB7B1051CCE0A331FA
:10048300A2118CDBF811B37B1051CCE0A3547FB4E1
:100493007F01E424E04001E424201184DBED119E7C
:1004A30051D1117A4005B41B02019EDAC4019E901A
:1004B3000B9411BB51CC31B4743A11AB7428118431
:1004C30051D1E031A2900B5611BB11C820D50E407B
:1004D3000C51CCF0119E51CCA351D181B9900BBDDD
:1004E30001BB900B3011BB7815118CD8FC900B41DC
:1004F30011BB7583101208774002019E11B37582F8
:100503002011BB75822031CE7421C398F874201159
:1005130084D8FC75820031B4780674201184D8FC29
:10052300758204E0AA83B4FE05900DAE8018B4FD75
:1005330005900DC78010B42305900DBF8008B4F952
:100543000280EE900DD411BB8A83119E74DFB583B4
:100553000281FD0583E583B4E09B81FD11B77AFF3A
:1005630090100015830583E583B4E002802112080F
:1005730077501C758204E04403F460E911B30A74F4
:10058300412A11AB11AF75822011BB119EA168BA2C
:10059300FF05900AB501BB900A8911BB7441118410
:1005A300119574412A1184900AA111BB1172B41BD5
:1005B30002019EFB741FC39AEB400231C11184FBFD
:1005C300119EEB24BF50D0FBEAC39B40CA0B901093
:1005D3000015830583E583B4E00280171208775082
:1005E30012758204E04403F460E9DBE7119E75822F
:1005F30040816222900D7811BB7C3F900DDDD1923A
:100603007C4D900DECD1927C52900DFAD1927C44AA
:10061300900E06D1927C55900E0FD1927C4E900E87
:1006230016D1927C4A900E23D1927C48900E3BD1F6
:10063300927C49900E54D1927C45900E6DD1927C60
:1006430043900E82D1927C42900EC7D1927C5790F8
:100653000E98D1927C3C900EA8D1927C3E900EB71E
:10066300D192900D9111BB901000120877501E7516
:100673008204E0B4FE1011B30582E011AB11AF7533
:10068300822011BB119E0583E583B4E0DD019E1139
:10069300B3EC11AB11AF11BB019EF125900D5211BB
:1006A300BBEB31A2EA31A2900D7311BBED31A2EC89
:1006B30031A2119E8D838C82A3AC82AD83900B01FA
:1006C30011BB1172B41B02E155119E8A828B83EC1C
:1006D300C39582FAED95837009EA603254F0700293
:1006E30080027A10743A1184EA31A231B4E5832589
:1006F300822AFBE431A2E031A22BFBA3DAF8EBF46C
:100703000431A2119E117A40C6B41BC38044743ACB
:100713001184E431A231A231A20431A274FF31A2C7
:1007230001B711B7900B6411BB310C402120D51ECA
:10073300C083C082119E900B7511BB310CAD83AC8D
:1007430082D0E0FAD0E0FB400520D502019ED0E044
:10075300D0E0119E900A6501BB900AEE11BB310CEB
:1007630040F220D5EF51D101B7F125900B8511BB94
:100773001172118431C1B459D911B78B838A82E4C0
:10078300F0EDB58305ECB5820122A380F211B79099
:100793000ED711BB310C402520D522C082C0831156
:1007A3009E900B8511BB1172118431C1B4590A118A
:1007B300B7D0F0D0E012097A22D0E0D0E0119E90B9
:1007C3000A6501BBF125119E51CCC082C0838A8288
:1007D3008B837EFF7FFF1208077E217F10E01208C4
:1007E3001BEDB5831CECB582187E007F0012081048
:1007F3008A828B831201B4D083D0821202D1020089
:10080300B7A380D9C0E0EEFAEFFBD0E022C0E0EA64
:100813006EFAEB6FFBD0E022C0F0F5F07480F8E5E0
:10082300F05860027401F9EB23540169F9EA2AFADA
:10083300EB33FBE96006EA6EFAEB6FFBE8C3137078
:10084300DDD0F02212009E780012009EE81201A271
:10085300743A12008412008CE61201A208B8000355
:100863000200B7E8540F70ED80DFC29702009ED2FA
:100873009702009E758200E0B4A514A3E0B4E50FCF
:10088300A3E0B4E00AA3E0B4A505758200D3227403
:10089300DFB58302C322058380DA8A828B83E493E4
:1008A300A3AA82AB838E828F83F0A3AE82AF83EA47
:1008B3008CF0B5F0E5EB8DF0B5F0DF228A828B8307
:1008C300E0A3AA82AB838E828F83F0A3AE82AF8331
:1008D300EA8CF0B5F0E6EB8DF0B5F0E0227590FE12
:1008E300FFFFFFFF22E4F5A8F5B87590FFFFFFFFB8
:1008F300FF75A0FF75D0007581177A007B007C001F
:100903007D207E007F0012089D7AE07B087CE87DD5
:10091300087E007F2012089D12200074F775F0FFF7
:1009230012097A75F0F912094E75F0FD12094E128B
:10093300009E12009E12009E12009E900A46120014
:10094300BB1204E57E007F200201DC901000120838
:10095300775023758204E0B5F015C0F0C083746E40
:10096300C0E07409C0E0758240E473D083D0F00521
:1009730083E583B4E0D822C2CAF5CC85F0CDF5CAAD
:1009830085F0CB75C830759852D2CA22C0F0C0E04A
:100993008013C0F0C0E030E70C742D120084D0E067
:1009A300C0E0F4240175F06484D2D56007C2D52475
:1009B30030120084E5F075F00A8430D50260052416
:1009C30030120084E5F02430120084D0E0D0F0220D
:1009D300C0E0E8C0E0C2D5AA82AB837C107D27517A
:1009E3003160072430120084D2D57CE87D03513175
:1009F300700330D5072430120084D2D57C647D0087
:100A03005131700330D5072430120084D2D5EAABBC
:100A1300F075F00A84700330D5052430120084E5A4
:100A2300F08BF02430120084D0E0F8D0E02278007C
:100A330008C3EA9CFAEB9DFB50F618EA2CFAEB3D4F
:100A4300FBE8225041554C4D4F4E322076322E3129
:100A5300616220323032343034313530300D0A0D9A
:100A63000A002020436F6D6D616E642061626F72B6
:100A73007465640D0A0D0A004C6F636174696F6ECF
:100A83003A00203E200053656C6563742070726FDA
:100A93006772616D20746F2072756E2028002920A3
:100AA3006F722045534320746F2061626F72743AF2
:100AB30020004E6F2070726F6772616D20686561F0
:100AC3006465727320666F756E6420696E206D6550
:100AD3006D6F72792C20757365204A554D502069CE
:100AE3006E73746561640D0A0D0A000D0A0D0A4EDA
:100AF3006577206C6F636174696F6E3A2000507282
:100B030065737320616E79206B65792E2E2E000D2F
:100B13000A0D0A4A756D7020746F206D656D6F72D2
:100B230079206C6F636174696F6E2028000D0A0D64
:100B33000A50726F6772616D204E616D65004C6F74
:100B4300636174696F6E20202020202054797065C2
:100B53000D0A0029204E65772076616C75653A2071
:100B6300004669727374206C6F636174696F6E3AC7
:100B730020004C617374206C6F636174696F6E3A0B
:100B8300200041726520796F7520737572653F206F
:100B9300000D0A0D0A45646974696E6720657874EF
:100BA30065726E616C2052414D2C20455343207475
:100BB3006F2061626F72740D0A00202045646974AE
:100BC300696E6720636F6D706C6574652C20746843
:100BD3006973206C6F636174696F6E20756E6368EF
:100BE300616E6765640D0A0D0A000D0A0D0A426500
:100BF30067696E207472616E73666572206F66201A
:100C0300496E74656C206865782066696C652C2074
:100C130045534320746F2061626F72740D0A0D0A8D
:100C2300000D0A446F776E6C6F61642061626F72AE
:100C33007465640D0A0D0A000D0A446F776E6C6FBC
:100C4300616420636F6D706C657465640D0A0D0AD1
:100C53000053756D6D6172793A0D0A0020206C693D
:100C63006E65732072656365697665640D0A00209D
:100C73002062797465732072656365697665640DB6
:100C83000A00202062797465732077726974746531
:100C93006E0D0A004572726F72733A0D0A002020BE
:100CA300627974657320756E61626C6520746F2060
:100CB30077726974650D0A0020206261642063689D
:100CC30065636B73756D730D0A002020756E65780F
:100CD30070656374656420626567696E206F662062
:100CE3006C696E650D0A002020756E65787065630A
:100CF30074656420686578206469676974730D0A94
:100D0300002020756E6578706563746564206E6F6E
:100D13006E20686578206469676974730D0A004EF4
:100D23006F206572726F7273206465746563746596
:100D3300640D0A0D0A000D0A52756E6E696E672006
:100D430070726F6772616D2E2E2E0D0A0D0A000DE3
:100D53000A0D0A53656E64696E6720496E74656C8B
:100D6300206865782066696C652066726F6D200067
:100D730020746F20000D0A0D0A5374616E64617252
:100D83006420636F6D6D616E64733A0D0A000D0A22
:100D93005573657220696E7374616C6C656420634E
:100DA3006F6D6D616E64733A0D0A004578746572F8
:100DB3006E616C20636F6D6D616E640050726F675E
:100DC30072616D005374617274757020636F646532
:100DD300003F3F3F0048656C7000546869732068AA
:100DE300656C70206C697374004C69737420707245
:100DF3006F6772616D730052756E2070726F6772E8
:100E0300616D00446F776E6C6F61640055706C6F39
:100E13006164004E6577206C6F636174696F6E0067
:100E23004A756D7020746F206D656D6F7279206CDB
:100E33006F636174696F6E004865782064756D70C7
:100E43002065787465726E616C206D656D6F727963
:100E5300004865782064756D7020696E7465726EE4
:100E6300616C206D656D6F727900456469742065EE
:100E7300787465726E616C206D656D6F7279004375
:100E83006C6561722065787465726E616C206D6546
:100E93006D6F72790043616C63756C617465204397
:100EA3005243313600456E61626C65206E4353498F
:100EB3004F37370044697361626C65206E43534951
:100EC3004F37370052657365742062617564207211
:100ED30061746500456E746572206E65772062618A
:0B0EE300756420636F6E73743A20008A
:00000001FF
