:0300000002088E65
:080003000220038E828F83228C
:08000B0002200BAE82AF83223C
:08001300022013742D01760098
:08001B0002201B1176017400A4
:080023000220231116017400F4
:03002B0002202B85
:10002E00216A0176016A216721792186018D01D12C
:10003E0021BA219A02093D020A8501800201A70216
:10004E0009CE0209D4020A120208510207CA020797
:10005E00EC02082702094D214D02080B3098FDC213
:10006E0098E59922117474203099FDC299F5992260
:10007E001180C0E0740D1176740A1176D0E022C2A0
:10008E00D51162319AB41B03D3E422B40D05D2D537
:10009E00C3E422FA314D40E9CA11761162319AB4A5
:1000AE001B0280E4B40D03EAC322B4080411768067
:1000BE00D0B4150280F7FB314D40E0CB1176EAC487
:1000CE004BC3227A007B007C04C2D51162319AB4F4
:1000DE001B07D3E4F583F58222B408028003B47FB4
:1000EE000CBC040280E51176313C0C80DEB40D10A0
:1000FE008B838A82BC0407E4F583F582D2D5C322B2
:10010E00FD314D40C6CD120076EDC0E0312BD0E072
:10011E002AFAE43BFBDCB4C38A828B8322EBC45401
:10012E00F0FBEAC4540F4BFBEAC454F0FA22EAC4C3
:10013E00540FFAEBC454F04AFAEBC4540FFB2224CA
:10014E00D0501424F64004240AC32224F950082463
:10015E00FA40042410C322D3223169C4C0E0540FE4
:10016E002490D43440D41176D0E022C0E0E583311F
:10017E0067E5823167D0E022C0E0E493A3600AA273
:10018E00E7547F1176400280F1D0E022B461004046
:10019E0007B47B00500224E0227800C0E0E49360B4
:1001AE0008A2E7084003A380F4D0E022C0E0C330E9
:1001BE009808E599B41B01D3C298D0E022900D2681
:1001CE001145EF3167EE316731861162B43A045151
:1001DE00CF80EA319A75F0CBC0F075F001C0F0F522
:1001EE00F09010001208275024758204E493B4FE98
:1001FE00150582E493B5F00E1174758220318611C7
:10020E0080758240E4730583E583B400D7E5F0B4CE
:10021E003F07900E8E1145A1D9B44D07900E961141
:10022E004581C7B45207900E9B1145A13FB44407B8
:10023E00900E9F114541B2B45507900EA21145C1C3
:10024E005DB44E07900EA51145E14FB44A07900ECE
:10025E00A911458120B44807900EAF11458150B4C5
:10026E004507900EBB11458191B44307900EC01106
:10027E0045E12BB45A0B74006028900EC41145E171
:10028E005FB44908900EB51145020785B43C08903D
:10029E000ED511450207A6B43E08900EE411450294
:1002AE0007AA0180900DC011459117116AB41B0267
:1002BE008074B43A028010314D40F0790671468058
:1002CE00EA743A11769117790071467C007165F8DF
:1002DE007165F5837165F5827165B40102802D70CB
:1002EE0022E860147165FA79017146EA120851E448
:1002FE003402F97146A3D8E97165EC60AE790471E8
:10030E004680A8E860F27165D8FC80ECE860047164
:10031E0065D8F37165EC70E5713D900DDF114530D8
:10032E00987A116A8076713D900DD71145806D785F
:10033E00007900D9FED8FA22E95407232408F907D8
:10034E00E77002090722D3878209878309E5827045
:10035E0005E5837001C322116A319AB41B06D0E001
:10036E00D0E080C2B43A0A79057146D0E0D0E041BF
:10037E00D9314D50067907714680DCFA116A319AEF
:10038E00B41B0280D9B43A0280DD314D5006790794
:10039E00714680E8CAC44AFA2CFCEA22EEC0E0EFAD
:1003AE00C0E0900DE6114579087EEF7F0D91137E2A
:1003BE00F57F0D91137EFA7F0D91137A05715440DE
:1003CE0009DAFA900E3611458025900E0511457901
:1003DE000E7E097F0E91057E1A7F0E91057E227F7D
:1003EE000E91057E287F0E91057E2D7F0E9105D0F4
:1003FE00E0FFD0E0FE0180715450091174120A1210
:10040E001106114522715480F27808760008B8184A
:10041E00FA22900D68114511063179900D3611456D
:10042E0011D120D5065002E126110E1180900E44F6
:10043E0011451106E4F5D0F5F07807F6D8FD758173
:10044E0007737A10117E11063179743A111E7B10E2
:10045E001106E493A331671174DBF711727B10114F
:10046E0006E493A3547FB47F01E424E04001E42426
:10047E00201176DBEC1180D1E2110E31BA4002DA96
:10048E00C50180900DAA114511063179743A111EDD
:10049E0074281176110EE4933167900D8311451176
:1004AE008D20D510400E110612085111801106A391
:1004BE00110E8198900DB50145900D72114578156C
:1004CE001174D8FC11457583101208274002018063
:1004DE001172758220318675822031A77421C398DE
:1004EE00F874201176D8FC75820031797806742064
:1004FE001176D8FC758204E493AA83B4FE05900E9F
:10050E007C8018B4FD05900E838010B42305900EE8
:10051E00808008B4F90280EE900E8A11458A83110C
:10052E008074FFB5830281DC0583E583B4009A8174
:10053E00DC117E7AFF90100015830583E583B400ED
:10054E00028022120827501D758204E4934403F49E
:10055E0060E811720A74412A111E1126758220312B
:10056E00861180A148BAFF05900D3F0145900D31CF
:10057E00114574411176111674412A1176900D367B
:10058E0011451162B41B020180FB741FC39AEB402C
:10059E0002319A1176FB1180EB24BF50D0FBEAC3D7
:1005AE009B40CA0B90100015830583E583B40002AF
:1005BE0080181208275013758204E4934403F460E4
:1005CE00E8DBE61180758240814222900E6411456F
:1005DE007C3F900E91D1527C4DD1527C52D1527CA7
:1005EE0044D1527C55D1527C4ED1527C4AD1527C50
:1005FE0048D1527C49D1527C45D1527C43D1527460
:10060E000060047C5AD1527C3C900ED5D1527C3E77
:10061E00900EE4D152900E721145901000120827E0
:10062E005020758204E493B4FE1111720582E49396
:10063E0011761126758220318611800583E583B4EB
:10064E0000DB01801172EC1176112611450180D16B
:10065E00F4900E4E1145EB3167EA31671145ED31DD
:10066E0067EC316711808D838C82A3AC82AD839051
:10067E000D5E1145116AB41B02E12411808A828B32
:10068E0083ECC39582FAED95837009EA603254F0DB
:10069E00700280027A10743A1176EA31673179E588
:1006AE008325822AFBE43167E49331672BFBA3DABF
:1006BE00F7EBF40431671180D1E231BA50C38056A2
:1006CE00743A1176E431673167316704316774FF2C
:1006DE003167017EE8C0E0780CE58C04000070FB09
:1006EE00D8F7D0E0F822117E900D8C114511D14033
:1006FE002120D51EC083C0821180900D9611451108
:10070E00D1AD83AC82D0E0FAD0E0FB400520D5021B
:10071E000180D0E0D0E01180900D1E0145D1F49003
:10072E000DA011451162319AB459EB117E8B838A5B
:10073E0082E4120851EDB58305ECB5820122A38047
:10074E00F0900D55114511D140CE20D5CB110E0193
:10075E007E117E900EC41145742C111E900DA011A9
:10076E00451162319AB459AE117E1207EC900EC942
:10077E005003900ED00145118078001180E831674A
:10078E00743A11761174E6316708B80004118001CD
:10079E0080E8540F70EE80E3C2970180D2970180FB
:1007AE00C0F0E493F5F00DE493B5F0F8D0F022909C
:1007BE00D55574AAF090AAAA7455F022C8C0E0C00C
:1007CE0082C083F1BD90D55574A0F0D083D082E85D
:1007DE00F0F1AEE493C3686001D3D0E0C82290D5A7
:1007EE0055741012080B908000E493F4700DA374EE
:1007FE0000B582F57400B583F0C322D322C0E0C0E9
:10080E0082C0831207BD90D5557480F01207BDD0FB
:10081E0083D082D0E0F00207AE758200E493B4A5D7
:10082E0017A3E493B4E511A3E493B4E00BA3E4930C
:10083E00B4A505758200D32274FFB58302C32205C9
:10084E008380D6C0E0C0F0F5F074006010E583B48C
:10085E00FF0280225007B48002801B5019E5F0F091
:10086E00E493C395F06009E0C395F06003D3800173
:10087E00C3D0F0D0E022E5F01207CAD0F0D0E022CB
:10088E00E4F5A8F5B875D00075811774FFF590FFE3
:10089E00FFFFFFFFFFFFFF900000E493F0A3E5834F
:1008AE00B420F774FEF590FFFFFFFFFFFFFFFF7907
:1008BE00C87AF9DAFED9FA740060137400600F7802
:1008CE00FAA20079C8D9FE4005D8F61207EC75F0E9
:1008DE00F9310E313B75F0FD310E7818120080D8CB
:1008EE00FB780F7420120076D8FB900CE7120A8565
:1008FE00900D00120A851204C77E007F200201CBE4
:10090E009010001208275024758204E493B5F01558
:10091E00C0F0C083742FC0E07409C0E0758240E45B
:10092E0073D083D0F00583E583B400D72274FFF52E
:10093E008DF58B758921758780759852D28E2230F0
:10094E00980612006AB41B5112006AB41B4B31BBDD
:10095E00209803741B2212006AB45B4431BB30989A
:10096E00DE12006AB44103740B22B44203740A22ED
:10097E00B44303741522B44403740822B4350280C0
:10098E0007B4360280028018C0E031BB30980B12DB
:10099E00006AB47E09D0E024E422D0E080A1D0E049
:1009AE0031BB30989A12006AB41BF580A1EAC0E000
:1009BE007A14E58C2098050470FADAF6D0E0FA2263
:1009CE00C0F0C0E08013C0F0C0E030E70C742D1210
:1009DE000076D0E0C0E0F4240175F06484D2D560D6
:1009EE0007C2D52430120076E5F075F00A8430D5B2
:1009FE000260052430120076E5F02430120076D025
:100A0E00E0D0F022C0E0E8C0E0C2D5AA82AB837C81
:100A1E00107D27517060072430120076D2D57CE805
:100A2E007D035170700330D5072430120076D2D575
:100A3E007C647D005170700330D50724301200762F
:100A4E00D2D5EAABF075F00A84700330D5052430A8
:100A5E00120076E5F08BF02430120076D0E0F8D05C
:100A6E00E022780008C3EA9CFAEB9DFB50F618EAE8
:100A7E002CFAEB3DFBE822C0E0E8C0E0E9C0E0EC78
:100A8E00C0E0D2D1D2D5E493A3602520E72E547FC7
:100A9E00B40D07120080D2D180ECB41F04C2D580F1
:100AAE00E5B40E051200808007C2D112007680D602
:100ABE00D0E0FCD0E0F9D0E0F8D0E022547FF8206E
:100ACE00D103120074C2D1C082C083900B3F7C0050
:100ADE00E86007F9712E70FCD9FA712E603CB40FE4
:100AEE0012712E0483801E68667767796278766B42
:100AFE00716A7A0483800E657461726E69736F6CAD
:100B0E00756D706463A2D592E5D2D5B81402C2E5B4
:100B1E00B80C02C2E512007680C0D083D082419418
:100B2E00E493BC00057CFF540F227C00A3C4540F39
:100B3E00228290E82386054CF844B3B0B1485FF0AA
:100B4E00117FA0157F1C2ED1405A50F103BFBA0C55
:100B5E002F96018D3F95380D6F5F1207710E562F30
:100B6E00483B6258201F7670322440B840E1618FB6
:100B7E0001340BCA89D3C0A3B9588004F80285602A
:100B8E002591F092731F107F12549310444807D191
:100B9E0026564FD0F66472E0B83BD5F0164F56305D
:100BAE006F48025FA8201F017630D5602541A42C26
:100BBE0060056F013F261F30078E1DF06399F042CE
:100BCE00B8201F2330027AD1602FF0F6058F931ACA
:100BDE005028F082046FA30D3F1F514023013E05A4
:100BEE0043017A01176493302A088C243099B0F3AC
:100BFE001960254135098ECB191230051F311D04A0
:100C0E00144F761204AB279056012FA8D5F0AA26C2
:100C1E00205F1CF0F361FE0141730127C1C0848F78
:100C2E00D6018770564F19701FA8D99076021743B8
:100C3E00FE01C1840B157F028B14308F63396F193F
:100C4E00F011C9106D023F91097A41D0BA0C1D39CD
:100C5E005F07F2111720416B3509F775120BA7CC00
:100C6E0048023F6412A00C27E39FC0147770114016
:100C7E007121C0682541F0627FD1D021E16258B068
:100C8E00F3051F733077B16F19E01943E0582FF653
:100C9E00A414D02303FE31F5143099F8033F6422D7
:100CAE00516025412FE30156279309FE11FE79BAB3
:100CBE00607542EA6258A0E51F534FD1C0A30942A6
:100CCE0053F71204621B30F505F7690C351B708261
:100CDE002F2F144F51C064250057656C636F6D65DF
:100CEE008094322076322E312C2062791FF81FFE2E
:100CFE000D0E202053656594322E444F432C9432B2
:100D0E002E455155A494322E484452B4D58D2E0EF4
:100D1E00201F9E1FA0210D0E9432204C6F633A00AF
:100D2E00203EA086CA822800292C958C80C83A20A5
:100D3E00001F9782C373C7A6832CBA204A554D5005
:100D4E008086A172820D0E0D0D1F8783813A2000C1
:100D5E001FE4FB206B65793A20000D0D1F88808300
:100D6E00812028000D0D1F821FFD001F81202020D5
:100D7E0020201FC90E29201F871FB23A2000466966
:100D8E007273741F813A20004C6173741F813A2074
:100D9E0020001FB9A120737572653F000D0D1F9CB9
:100DAE009A922C8C80C80E20201F9CC12C8E81F70D
:100DBE000D0E0D0D1F9F206173636969F9961F98C3
:100DCE0084892C958C80A00D0E0D1F8AA065640D54
:100DDE000E0D1F8AC1640D0E53756D6D6172793AD9
:100DEE000E20C67391640E208B91640E208B20779B
:100DFE0072697474656E0E1F9B3A0E208B20756E91
:100E0E0061626C65802077726974650E2020626164
:100E1E0064F5730E20859F96C60E2085849D0E2048
:100E2E0085206E6F6E849D0E1F979B206465746582
:100E3E00637465640D0E0D866E696E67823A0D0ED3
:100E4E000D0D53656E64696E671F988489AC202002
:100E5E000020802020000D0D5374616E6461726459
:100E6E001F9E730E1FDA1FF465641F9E730E1F9A6A
:100E7E009E001F82001F8F1FE21FAA003F3F3F00F0
:100E8E001FD7001F8ED7D1001FD18273001F8682FD
:100E9E00001F8A001F93001F8781001F8880838197
:100EAE00001F84DB9A83001F84DBC083001F9C9A83
:100EBE0092001FED83001FCB9990001F9990CB6479
:100ECE000D0E1F859B0D0E456E61626C65206E4387
:100EDE0053494F37370044697361626C65206E4326
:060EEE0053494F373700A5
:00000001FF
