:042000000220113277
:03200B0002347F1D
:03206A0002200E43
:03200E0002206D40
:20206D0012346E908003740CF07494A3F0E4A3F09080007432F07494A3F0E4A3F0909432FC
:20208D00740CF07494A3F0E4A3F0908000E0FDA3E0FEA3E0FF74032DFDE43EFE8D828E83E0
:2020AD008FF0E4123758908000E0FDA3E0FEA3E0FF74042DFDE43EFE8D828E838FF0740248
:2020CD00123758908000E0FDA3E0FEA3E0FF74052DFDE43EFE8D828E838FF07428123758C3
:2020ED00A3E4123758908000E0FDA3E0FEA3E0FF74072DFDE43EFE9094CE7400F07445A344
:20210D00F07480A3F08D828E838FF01234ED9094CE741FF07445A3F07480A3F090945F7529
:20212D00F0001234ED90839E740AF0E4A3F0743EC0E07445C0E07480C0E01239B8158115EC
:20214D008115817441C0E07445C0E07480C0E01239B8158115811581743EC0E07445C0E0A9
:20216D007480C0E01239B8158115811581909527E0F5F0A3E045F0602C7472C0E07445C0A5
:20218D00E07480C0E01239B8158115811581743EC0E07445C0E07480C0E01239B81581150C
:2021AD00811581802A749FC0E07445C0E07480C0E01239B8158115811581743EC0E07445E1
:2021CD00C0E07480C0E01239B815811581158174CFC0E07445C0E07480C0E01239B8158190
:2021ED0015811581743EC0E07445C0E07480C0E01239B81581158115817420C0E0744EC0EC
:20220D00E07406C0E07446C0E07480C0E01239B8E58124FBF5811234BCAC82AD83AEF0FFCE
:20222D009093F8ECF0EDA3F0EEA3F0EFA3F07E017F00C374209E74CE8FF063F08095F050BB
:20224D00030224B7C007C00612303C12301E9094587402F0E4A3F090945A7403F0E4A3F071
:20226D009094CE7434F07446A3F07480A3F090947E75F0001234ED90945E7401F09094BEF0
:20228D00747EF07494A3F0E4A3F090945FF5F012332CAC82AD83D006D007EC4DB40100E487
:2022AD0033FD908008F0ED3395E0A3F0909458E0FCA3E0FDC3EC9403ED6480948050679067
:2022CD0094DDECF0EDA3F0900005C007C006C005C004123773E5828583F0D004D00524FD94
:2022ED00FAE5F034FFFB90945CEAF0EBA3F09094AB7403F0E4A3F09094AD745CF07494A313
:20230D00F0E4A3F08C828D83C005C0041230F4D004D005D006D0070CBC00010D909458ECD8
:20232D00F0EDA3F0808E909458ECF0EDA3F090945CE0FAA3E0FB9094B27470F07480A3F031
:20234D00E4A3F09094B5ECF0EDA3F09094B7EAF0EBA3F090800C75F000C007C0061231360A
:20236D00908000E0FBA3E0FCA3E0FD8B828C838DF0122D07D006D0078E048F057B419080E8
:20238D000BE0C39B407B9094BC7443F08B82C007C006C005C004C00312330CAA82D003D09F
:2023AD0004D005D006D00790945EE0F9B5024E9094A7745EF07494A3F0E4A3F0758200C0D4
:2023CD0007C006C005C004C00312304A9094CE7453F07446A3F07480A3F090947E75F000C7
:2023ED001234EDD003D004D005D006D00790945AECF0EDA3F0908006ECF0EDA3F00B0223F8
:20240D008B909458E0FCA3E0FD90945AE0FAA3E0FB9094DDECF0EDA3F08A828B83C007C078
:20242D0006123773E5828583F090945AF0E5F0A3F090945CE0FCA3E0FD90945AE0FAA3E0E1
:20244D00FB9094E5ECF0EDA3F08A828B83C005C004C003C00212381CA882A983D002D00386
:20246D00D004D005909458E8F0E9A3F09094DDEAC39CF0EB9DA3F0900007C001C000123720
:20248D0073E5828583F0D000D00190945AC398F0E5F099A3F090945875F000122F29D006D1
:2024AD00D0070EBE00010F02223F1234BCAC82AD83AEF0FF9093FCECF0EDA3F0EEA3F0EF11
:2024CD00A3F07472C0E07446C0E07480C0E01239B8158115811581743EC0E07445C0E07404
:2024ED0080C0E01239B81581158115817483C0E07446C0E07480C0E01239B8158115811521
:20250D0081743EC0E07445C0E07480C0E01239B8158115811581908006E0C0E0A3E0C0E070
:20252D0074BAC0E07446C0E07480C0E01239B8E58124FBF5817405C0E0E4C0E074D4C0E04F
:20254D007446C0E07480C0E01239B8E58124FBF581908008E0C0E0A3E0C0E074EEC0E07451
:20256D0046C0E07480C0E01239B8E58124FBF5817401C0E0E4C0E074D4C0E07446C0E07487
:20258D0080C0E01239B8E58124FBF58190800AE0FF7E00C007C0067408C0E07447C0E07421
:2025AD0080C0E01239B8E58124FBF5817441C0E0E4C0E07422C0E07447C0E07480C0E012E0
:2025CD0039B8E58124FBF58190800BE0FF7E00C007C006743CC0E07447C0E07480C0E012AC
:2025ED0039B8E58124FBF5817442C0E0E4C0E07422C0E07447C0E07480C0E01239B8E5817A
:20260D0024FBF58190801CE0FEA3E0FFC006C0077456C0E07447C0E07480C0E01239B8E5BE
:20262D008124FBF5817407C0E0E4C0E074D4C0E07446C0E07480C0E01239B8E58124FBF585
:20264D008190839EE0FEA3E0FFC006C0077470C0E07447C0E07480C0E01239B8E58124FB53
:20266D00F581748AC0E07447C0E07480C0E01239B815811581158174B5C0E07447C0E074ED
:20268D0080C0E01239B8158115811581908000E0FDA3E0FEA3E0FF8D828E838FF012449DC6
:2026AD00FDA312449DFEC005C00674C2C0E07447C0E07480C0E01239B8E58124FBF58174BA
:2026CD00DCC0E07447C0E07480C0E01239B8158115811581908000E0FDA3E0FEA3E0FF7459
:2026ED00032DFDE43EFE8D828E838FF012449DFD7F00C005C007740EC0E07448C0E0748074
:20270D00C0E01239B8E58124FBF581E4C0E0C0E074D4C0E07446C0E07480C0E01239B8E52C
:20272D008124FBF581908000E0FDA3E0FEA3E0FF74042DFDE43EFE8D828E838FF012449D32
:20274D00FD7F00C005C0077428C0E07448C0E07480C0E01239B8E58124FBF5817402C0E024
:20276D00E4C0E074D4C0E07446C0E07480C0E01239B8E58124FBF581908000E0FDA3E0FE86
:20278D00A3E0FF74052DFDE43EFE8D828E838FF012449DFDA312449DFEC005C0067442C0C3
:2027AD00E07448C0E07480C0E01239B8E58124FBF5817411C0E0E4C0E074D4C0E07446C033
:2027CD00E07480C0E01239B8E58124FBF581908000E0FDA3E0FEA3E0FF74072DFDE43EFEC5
:2027ED00C005C006C007745CC0E07448C0E07480C0E01239B8E58124FAF5817476C0E0741F
:20280D0048C0E07480C0E01239B815811581158174ACC0E07448C0E07480C0E01239B815A2
:20282D008115811581908003E0FDA3E0FEA3E0FF8D828E838FF012449DFDA312449DFEC008
:20284D0005C00674C2C0E07447C0E07480C0E01239B8E58124FBF58174BEC0E07448C0E0AF
:20286D007480C0E01239B8158115811581908003E0FDA3E0FEA3E0FF74032DFDE43EFE8DB1
:20288D00828E838FF012449DFD7F00C005C007740EC0E07448C0E07480C0E01239B8E581A3
:2028AD0024FBF581E4C0E0C0E074D4C0E07446C0E07480C0E01239B8E58124FBF58190806E
:2028CD0003E0FDA3E0FEA3E0FF74042DFDE43EFE8D828E838FF012449DFD7F00C005C007AC
:2028ED007428C0E07448C0E07480C0E01239B8E58124FBF5817401C0E0E4C0E074D4C0E020
:20290D007446C0E07480C0E01239B8E58124FBF581908003E0FDA3E0FEA3E0FF74052DFD28
:20292D00E43EFE8D828E838FF012449DFDA312449DFEC005C0067442C0E07448C0E0748016
:20294D00C0E01239B8E58124FBF5817412C0E0E4C0E074D4C0E07446C0E07480C0E0123901
:20296D00B8E58124FBF581908003E0FDA3E0FEA3E0FF74072DFDE43EFEC005C006C0077419
:20298D005CC0E07448C0E07480C0E01239B8E58124FAF5817476C0E07448C0E07480C0E0C7
:2029AD001239B8158115811581909458E0C0E0A3E0C0E074FFC0E07448C0E07480C0E01211
:2029CD0039B8E58124FBF5817405C0E0E4C0E074D4C0E07446C0E07480C0E01239B8E58122
:2029ED0024FBF58190945AE0C0E0A3E0C0E07419C0E07449C0E07480C0E01239B8E5812469
:202A0D00FBF581740DC0E0E4C0E074D4C0E07446C0E07480C0E01239B8E58124FBF581902F
:202A2D00945CE0C0E0A3E0C0E07433C0E07449C0E07480C0E01239B8E58124FBF581740745
:202A4D00C0E0E4C0E074D4C0E07446C0E07480C0E01239B8E58124FBF58190945EE0FF7E92
:202A6D0000C007C006744DC0E07449C0E07480C0E01239B8E58124FBF5817401C0E0E4C0B3
:202A8D00E074D4C0E07446C0E07480C0E01239B8E58124FBF581745FC0E07494C0E0E4C0B6
:202AAD00E07467C0E07449C0E07480C0E01239B8E58124FAF5817481C0E07449C0E07480DA
:202ACD00C0E01239B8158115811581747EC0E07494C0E0E4C0E074B7C0E07449C0E07480AA
:202AED00C0E01239B8E58124FAF58174D1C0E07449C0E07480C0E01239B815811581158191
:202B0D00743EC0E07445C0E07480C0E01239B81581158115819093F8E0FCA3E0FDA3E0FEAC
:202B2D00A3E0FF9093FCE0F8A3E0F9A3E0FAA3E0FBE8C39CFCE99DFDEA9EFEEB9FFF90949F
:202B4D0000ECF0EDA3F0EEA3F0EFA3F0C3EC94D0ED9407EE9400EF6480948050427407C038
:202B6D00E0744AC0E07480C0E01239B8158115811581743EC0E0744AC0E07480C0E0123922
:202B8D00B8158115811581743EC0E07445C0E07480C0E01239B8158115811581022D038CEC
:202BAD00828D838EF0EF1236BEAC82AD83AEF0FFC007C006C005C004C004C005C006C007DC
:202BCD0090240075F0747449123546A882A983AAF0FBE58124FCF5817480C0E07496C0E0EC
:202BED007498C0E0744BC0E0888289838AF0EB1243DAA882A983AAF0FBE58124FCF581D05C
:202C0D0004D005D006D007909404E8F0E9A3F0EAA3F0EBA3F0C004C005C006C007909680EE
:202C2D0075F098744B1243DAAC82AD83AEF0FFE58124FCF581909408ECF0EDA3F0EEA3F09C
:202C4D00EFA3F0745FC0E0744AC0E07480C0E01239B8158115811581909404E0FCA3E0FD37
:202C6D00A3E0FEA3E08C828D838EF01236EBAC82AD83AEF0FFC004C005C006C007748CC0A3
:202C8D00E0744AC0E07480C0E01239B8E58124F9F5817493C0E0744AC0E07480C0E0123975
:202CAD00B8158115811581909408E0FCA3E0FDA3E0FEA3E08C828D838EF01236EBAC82AD57
:202CCD0083AEF0FFC004C005C006C007748CC0E0744AC0E07480C0E01239B8E58124F9F5A4
:202CED0081743EC0E07445C0E07480C0E01239B815811581158143870222AFF0AE83E5821D
:202D0D0090949DF0EEA3F0EFA3F090949DE0F510A3E0F511A3E0F512851082851183851272
:202D2D00F012449DFAA312449DFBA312449DFC8A008B018C07881389148F15908000E0FD14
:202D4D00A3E0FEA3E0FF9094D4EDF0EEA3F0EFA3F09094D77426F0E4A3F085138285148359
:202D6D008515F0C004C003C002123617D002D003D00474042510F513E43511F51485121507
:202D8D0074052510F516E43511F5178512188516828517838518F07405123758A3E41237D5
:202DAD005874042AFDE43BFE8C070DBD00010E8516828517838518F012449DF8A312449D3C
:202DCD00F98D828E838FF0E8123758A3E91237588510828511838512F012449DFDA31244F8
:202DED009DFEA312449DFF8A828B838CF0ED123758A3EE123758A3EF1237588A828B838C67
:202E0D00F0C004C003C002122F91D002D003D00474032AFDE43BFE8C078D828E838FF01222
:202E2D00449D6003022EEF74042AF516E43BF5178C1874012516F8E43517F9AF188882897B
:202E4D00838FF07406123758A3E41237588513828514838515F012449DFF9094A7E516F0B8
:202E6D00E517A3F0E518A3F08F82C004C003C00212304AD002D003D004908000E0FDA3E057
:202E8D00FEA3E0FF8D828E838FF012449DFDA312449DFEA312449DFF8A828B838CF0ED1258
:202EAD003758A3EE123758A3EF12375874042AFAE43BFB0ABA00010B8A828B838CF012449F
:202ECD009DFEA312449DFF9094AB740AF0E4A3F09094ADEAF0EBA3F0ECA3F08E828F830235
:202EED0030F4AD10AE11AF128510828511838512F012449DFAA312449DFBA312449DFC900D
:202F0D0094D4EAF0EBA3F0ECA3F09094D77426F0E4A3F08D828E838FF0023617AFF0AE83AB
:202F2D00E5829094A0F0EEA3F0EFA3F09094A0E0FDA3E0FEA3E0FF8D828E838FF012449D30
:202F4D00FBA312449DFC740A2BFBE43CFC90800AE0FABA41281BBBFF011C908006E0F9A37C
:202F6D00E0FAEBC399F9EC9AFA8D828E838FF0E9123758A3EA1237589094A3E4F09094A3F1
:202F8D00E070CA22AFF0AE83E5829094A4F0EEA3F0EFA3F0908000E0FDA3E0FEA3E0FF9076
:202FAD008000E0F5F0A3E045F060339094A4E0FAA3E0FBA3E0FC8D828E838FF012449DFD46
:202FCD00A312449DFEA312449DFF8A828B838CF0ED123758A3EE123758A3EF123758908022
:202FED0006E0FEA3E0FF908000E0FBA3E0FCA3E0FD74052BFBE43CFC9094ABEEF0EFA3F08A
:20300D009094ADEBF0ECA3F0EDA3F090000A0230F490800AE0FFE4BF410104FF7E009080C9
:1D302D0008E04FF0A3E04EF090800B7442F02290800A7441F0908008E4F0A3F0225B
:204500004448525953544F4E452050524F4752414D2C20534F4D4520535452494E470044E8
:2045200048525953544F4E452050524F4752414D2C203127535420535452494E47000D0A6E
:20454000004468727973746F6E652042656E63686D61726B2C2056657273696F6E20322E3E
:204560003120284C616E67756167653A2043290D0A0050726F6772616D20636F6D70696C45
:20458000656420776974682027726567697374657227206174747269627574650D0A005048
:2045A000726F6772616D20636F6D70696C656420776974686F757420277265676973746598
:2045C0007227206174747269627574650D0A00506C65617365206769766520746865206E23
:2045E000756D626572206F662072756E73207468726F756768207468652062656E63686DB4
:2046000061726B3A2000457865637574696F6E207374617274732C2025642072756E7320B0
:204620007468726F756768204468727973746F6E650D0A004448525953544F4E4520505200
:204640004F4752414D2C2032274E4420535452494E47004448525953544F4E452050524FE5
:204660004752414D2C203327524420535452494E4700457865637574696F6E20656E647362
:204680000D0A0046696E616C2076616C756573206F6620746865207661726961626C65733A
:2046A000207573656420696E207468652062656E63686D61726B3A0D0A00496E745F476C78
:2046C0006F623A20202020202020202020202025640D0A00202020202020202073686F75F0
:2046E0006C642062653A20202025640D0A00426F6F6C5F476C6F623A202020202020202020
:2047000020202025640D0A0043685F315F476C6F623A202020202020202020202025630D4C
:204720000A00202020202020202073686F756C642062653A20202025630D0A0043685F3284
:204740005F476C6F623A202020202020202020202025630D0A004172725F315F476C6F62A5
:204760005B385D3A2020202020202025640D0A004172725F325F476C6F625B385D5B375D17
:204780003A2020202025640D0A00202020202020202073686F756C642062653A2020204E61
:2047A000756D6265725F4F665F52756E73202B2031300D0A005074725F476C6F622D3E0D4F
:2047C0000A0020205074725F436F6D703A2020202020202020202025640D0A0020202020D1
:2047E0002020202073686F756C642062653A20202028696D706C656D656E746174696F6E1B
:204800002D646570656E64656E74290D0A00202044697363723A20202020202020202020C5
:2048200020202025640D0A002020456E756D5F436F6D703A20202020202020202025640DC5
:204840000A002020496E745F436F6D703A2020202020202020202025640D0A0020205374D4
:20486000725F436F6D703A2020202020202020202025730D0A0020202020202020207368D4
:204880006F756C642062653A2020204448525953544F4E452050524F4752414D2C20534FFD
:2048A0004D4520535452494E470D0A004E6578745F5074725F476C6F622D3E0D0A0020207F
:2048C00020202020202073686F756C642062653A20202028696D706C656D656E74617469D7
:2048E0006F6E2D646570656E64656E74292C2073616D652061732061626F76650D0A00495B
:204900006E745F315F4C6F633A202020202020202020202025640D0A00496E745F325F4C07
:204920006F633A202020202020202020202025640D0A00496E745F335F4C6F633A20202097
:20494000202020202020202025640D0A00456E756D5F4C6F633A202020202020202020202B
:20496000202025640D0A005374725F315F4C6F633A202020202020202020202025730D0AC8
:2049800000202020202020202073686F756C642062653A2020204448525953544F4E452027
:2049A00050524F4752414D2C203127535420535452494E470D0A005374725F325F4C6F633F
:2049C0003A202020202020202020202025730D0A00202020202020202073686F756C6420DF
:2049E00062653A2020204448525953544F4E452050524F4752414D2C2032274E4420535460
:204A000052494E470D0A004D656173757265642074696D6520746F6F20736D616C6C20740B
:204A20006F206F627461696E206D65616E696E6766756C20726573756C74730D0A00506C1F
:204A40006561736520696E637265617365206E756D626572206F662072756E730D0A004D64
:204A60006963726F7365636F6E647320666F72206F6E652072756E207468726F756768201B
:204A80004468727973746F6E653A2000256C64200D0A004468727973746F6E6573207065A8
:204AA00072205365636F6E643A20202020202020202020202020202020202020202020000E
:024ACB000100E8
:20304A00E5829094AAF09094A7E0FDA3E0FEA3E0FF9094AAE0FC8D828E838FF01237588C20
:20306A0082C007C006C005123452E5828583F0D005D006D00745F0700B8D828E838FF07436
:20308A00031237589094AAE0FC24FB405CEC2C90309D7380088010803A804E80418D828E37
:2030AA00838FF0E4023758908006E0FBA3E0FCC374649B74808CF063F08095F0500A8D82B8
:2030CA008E838FF0E40237588D828E838FF074030237588D828E838FF074010237588D8286
:2030EA008E838FF0740202375822AF83E5829094B0F0EFA3F09094B0E0FEA3E0FF74022E56
:20310A00FEE43FFF9094ADE0FBA3E0FCA3E0FD9094ABE0F9A3E0FAEE29FEEF3AFF8B828CDF
:20312A00838DF0EE123758A3EF023758AFF0AE83E5829094B9F0EEA3F0EFA3F09094B5E013
:20314A00FEA3E0FF74052EFCE43FFD9094B9E0F51BA3E0F51CA3E0F51DEC2CF519ED33F5F1
:20316A001AE519251BF51EE51A351CF51F851D209094B7E0F521A3E0F522851E82851F83FD
:20318A008520F0E521123758A3E52212375874062EF8E43FFAE828F8EA33FAE8251BF8EAB8
:2031AA00351CFAAB1D88828A838BF0E521123758A3E52212375874232EFAE43FFBEA2AFA83
:2031CA00EB33FBEA251BFAEB351CF9AB1D8A8289838BF0EC123758A3ED1237589094B2E0A4
:2031EA00F525A3E0F526A3E0F5279094DDECF0EDA3F0900064C007C006C005C0041237734B
:20320A00858221858322D004D005D006D007E5212525F51EE5223526F51F85272074062EAF
:20322A00F51BE43FF51C8C238D24C3E51B9523E51C64808524F063F08095F0402CE52325F6
:20324A0023F8E52433FBE8251EF8EB351FFBAA2088828B838AF0EC123758A3ED1237580596
:20326A0023E4B523C5052480C1E5212525F8E5223526FAAB271CEC2C28F8E43AFA88828AC0
:20328A00838BF012449DFCA312449DFD0CBC00010D88828A838BF0EC123758A3ED1237587E
:2032AA009094DD74192EF0E43FA3F0900064123773AE82AF83EE2525FEEF3526FFAD27E558
:2032CA00192EFEE51A3FFF9094B9E0FAA3E0FBA3E0FCE5192AFAE51A3BFB8A828B838CF0C1
:2032EA0012449DFAA312449DFB8E828F838DF0EA123758A3EB1237589080067405F0E4A3E7
:20330A00F022E5829094BDF0E0FF9094BCE0FEEFB5060280047582002290800AEFF0758283
:20332A000122AFF0AE83E5829094C1F0EEA3F0EFA3F09094C1E0F528A3E0F529A3E0F52A2C
:20334A009094BEE0FAA3E0FBA3E0FC78027900C3740298748089F063F08095F04062E82572
:20336A0028FDE93529FEAF2A8D828E838FF012449DFD740128FEE439FFC000C001EE2AFE23
:20338A00EF3BF98C078E8289838FF012449D9094BCF08D82C004C003C002C001C0001233F1
:2033AA000CE582D000D001D002D003D004D001D000709C9094C67441F008B8009209808FD0
:2033CA009094C4E8F0E9A3F09094C6E0FFBF5700400EBF5A0050099094C47407F0E4A3F03E
:2033EA009094C6E0FFBF5204900001229094C1E0FDA3E0FEA3E0FF9094DFEAF0EBA3F0EC26
:20340A00A3F08D828E838FF0123793AE82AF83C3E49E74808FF063F08095F050279094C4C3
:20342A00E0FEA3E0FF9094C474072EF0E43FA3F09094C4E0FEA3E0FF908006EEF0EFA3F02D
:1B344A009000012290000022E5829094C7F0E0FFBF02049000012290000022B7
:20346500C0E0E58212003CD0E0C28C758CFA758A9A75890175A882D28C22C0E0C082C0831D
:20348500C0D075D008AC2BAD2CAE2DAF2E74012CF52BE43DF52CE43EF52DE43FF52E909431
:2034A500C87401F0C28C758CFA758A9AD28CD0D0D083D082D0E0329094C8E4F09094CAE5E0
:2034C5002BF0E52CA3F0E52DA3F0E52EA3F09094C8E070E39094CAE0FCA3E0FDA3E0FEA350
:0834E500E08C828D838EF02241
:2034ED00AFF0AE83E5829094D1F0EEA3F0EFA3F09094D1E0FDA3E0FEA3E0FF9094CEE0FAFF
:20350D00A3E0FBA3E0FC8D3D8E3E8F3F8A828B838CF012449DF9A3AA82AB83853D82853EB7
:19352D0083853FF0E9123758A385823D85833EE970DA8D828E838FF022A3
:203546001235E9BC000302393CEF60FA30D502B2D1E583B4FF03023952E582B4FF03023929
:2035660052258340072482400B02393C2483145003023952F582EA8DF0A4A8F0EA8EF0A4DB
:2035860028F8E435F0F9EB8DF0A428E935F0F9E433CA8FF0A429F9EA35F0FAEBF88EF0A494
:2035A60029F9EA35F0FAE433FBEC8DF0A429F9EA35F0FAE43BFBE88FF0A42AFAEB35F0FB3C
:2035C600E433CCFD8EF0A42AFAEB35F0FBE43CFCED8FF0A42BFBEC35F0FC20E70312368B78
:0335E60002391B8C
:2035E900AA82AB83A2F73392D1F5826002D2F7ACF0E58124F9F8E6FD08E6FE0886F008E645
:0E360900A2F73392D5F5836002D2F7AFF0221C
:06204000E478FFF6D8FD74
:20361700AFF0AE83E5829094D9F0EEA3F0EFA3F09094D9E0F53DA3E0F53EA3E0F53FAA3D09
:20363700AB3EAC3F9094D4E0F8A3E0F9A3E0FF9094D7E0F540A3E0F541AD40AE4115407463
:20365700FFB540021541ED4E6020888289838FF012449DFEA3A882A9838A828B838CF0EE49
:14367700123758A3AA82AB8380CF853D82853E83853FF022F2
:20368B007804EC7011E58224F8500AF582E4C9CACBFCD8EF22EC7820058220E713D582013E
:1336AB0022C3E933F9EA33FAEB33FBEC33FCD8EA1582224C
:2036BE00FCABF0AA83A982749EF582C2D1EC30E716D2D1E9F42401F9EAF43400FAEBF4340B
:0D36DE0000FBECF43400FC12368B02391BAB
:2036EB00123746C3749E9582403979001244B930D126E9F42401F582EAF43400F583EBF43A
:20370B003400F5F0ECF43400700AE582458345F0700122E430E70F22EC20E71489828A83B5
:1B372B008BF02230D10AE4F582F583F5F074802274FFF582F583F5F0747F22B1
:20201E007902E94400601B7A01904ACB782775A095E493F2A308B8000205A0D9F4DAF27595
:02203E00A0FF01
:12374600AA82AB83A2F73392D1F5826002D2F7ACF02288
:1B37580020F71130F6138883A88220F509F6A8837583002280FEF280F5F02270
:20377300AA83AB828BF09094DDE0A4F8A9F08AF0E0A429F98BF0A3E0A429F583888222229A
:20379300AFF0AE83E5829094E2F0EEA3F0EFA3F09094E2E0FDA3E0FEA3E0FF9094DFE0FA23
:2037B300A3E0FBA3E0FC8D828E838FF012449DF879008A828B838CF012449DF53DC002C0B9
:2037D30003C004AB3D7C00E8C39BF8E99CF9883E893FD004D003D002E849701BE53D601793
:2037F3000DBD00010E9094E2EDF0EEA3F0EFA3F00ABA00B20B80AF9094E2EDF0EEA3F0EFF4
:09381300A3F0853E82853F83226B
:202046007800E84400600A790075A080E4F309D8FC7827E84415600C7916908000E4F0A348
:04206600D8FCD9FACF
:20381C00AF83E5829094E7F0EFA3F09094E7E0FEA3E0FF30E709C3E49EFCE49FFD80048E18
:20383C00048F059094E5E0FEA3E0FF33E433FB6009C3E49EF9E49FFA80048E018F0290943A
:20385C00E9E9F0EAA3F08C828D83C00312388EAE82AF83D0039094E7E0A3E033E4336B609C
:12387C000CC3E49EFCE49FFD8C828D83228E828F8322E9
:20388E00AF83E5829094EBF0EFA3F09094EDE4F0A3F09094E9E0FEA3E0FF7D109094EBE09F
:2038AE00FBA3E0FC9094EF235401F0EB2BFBEC33FC9094EBEBF0ECA3F09094EDE0FBA3E001
:2038CE00FCEB2BFBEC33FC9094EDEBF0ECA3F09094EFE060089094EDE043E001F09094EDD6
:2038EE00E0FBA3E0FCC3EB9EEC9F40139094EDEBC39EF0EC9FA3F09094EBE043E001F0DDEB
:0D390E009B9094EBE0FEA3E08E82F58322F7
:20391B00B98003EA13B34010EA2401FAE43BFBE43CFC50047C800582BC000EBB000BBA00F0
:20393B0008E4F5F0F583F58222A2D1E582138CF092F78B838A8222E4F583F58275F080F4B0
:0F395B00A2D11322E4F583F58275F0C0747F22A8
:20396A00C03C85813C7E008E83123465D03C22AFF0AE83E5829094F1F0EEA3F0EFA3F090C8
:20398A0094F1E0FDA3E0FEA3E0FF9094F0E0FC909505E4F0A3F0A3F0909508EDF0EEA3F019
:2039AA00EFA3F090950BECF090396A023AC1C03CE581F53C24FBFF909505E4F0A3F0A3F06A
:2039CA00E53C24FBF8909508E6F008E6A3F008E6A3F090950BEFF090396A123AC1D03C2223
:2039EA00E582909501F0E0FF9094F7E0C0E0A3E0C0E0A3E0C0E0123A05800D9094F5E0C0E9
:203A0A00E0A3E0C0E08F82221581158115819094FFE02401F0A3E03400F022E58290950235
:203A2A00F0E02430FF24C6500D74072FFF9094F4E060034307208F820239EAE582909503DF
:203A4A00F0E0FFC4540FF582C007123A25D00753070F8F82023A25E582909504F09094FA67
:203A6A00E0FCA3E0FDA3E0FEA3E0FF9094FEE0FB753D20909504E0F98B00E828F8EF235413
:203A8A000148FBEC2CFCED33FDEE33FEEF33FFC3EB994007EBC399FB430401E53D14FA8A95
:203AAA003D70D59094FAECF0EDA3F0EEA3F0EFA3F09094FEEBF022AF83E58290950CF0EF35
:203ACA00A3F090950CE0FEA3E0FF9094F5EEF0EFA3F0909505E0FDA3E0FEA3E0FF9094F71A
:203AEA00EDF0EEA3F0EFA3F09094FFE4F0A3F0909508E0FDA3E0FEA3E0FF8D828E838FF0A6
:203B0A0012449DFC90950874012DF0E43EA3F0EFA3F0EC70030243B6BC250280030243AE03
:203B2A0090950EE4F090950FF0909510F0909511F0909512F0909513F0909514F090951553
:203B4A00F0909517F0909518F0A3F090951A14F0A3F0909508E0FDA3E0FEA3E0FF8D828EFF
:203B6A00838FF012449DFBA3AD82AE83909508EDF0EEA3F0EFA3F090951EEBF0BB25088BAA
:203B8A00821239EA023AF9BB30005003023C5AEB24C65003023C5A90951AE0F532A3E0F5DB
:203BAA003374FFB53263B53360C005C006C007909518E0FAA3E0FF9094DDEAF0EFA3F090EB
:203BCA00000AC005C003123773AE82AF83D003D0058B027D00EA2EFEED3FFFEE24D0FEEF69
:203BEA0034FFFF909518EEF0EFA3F0D007D006D005909518E0F5F0A3E045F06003023B67A9
:203C0A0090950F7401F0023B67C005C006C0079094DDE532F0E533A3F090000AC006C00533
:203C2A00C003123773AA82AF83D003D005D0067E00EB2AFAEE3FFFEA24D0FAEF34FFFF90DD
:203C4A00951AEAF0EFA3F0D007D006D005023B6790951EE0FBBB2E2FC005C006C00790957C
:203C6A001AE0FAA3E0FFBAFF05BFFF028009D007D006D005023B67D007D006D00590951AD6
:203C8A00E4F0A3F0023B67BB61004014EB2485400F90951E74DF5BF09094F47401F08005D9
:203CAA009094F4E4F090951EE0FBBB20028075BB2B028067BB2D028059BB4202806FBB43A0
:203CCA0002807CBB4403023F51BB4603023F77BB4803023B67BB4903023F51BB4A03023B04
:203CEA0067BB4C028050BB4F03023F5FBB5003023EBFBB53028077BB5403023B67BB5503F0
:203D0A00023F67BB5803023F6FBB5A03023B67023F7F90950E7401F0023B679095107401C9
:203D2A00F0023B679095117401F0023B679095137401F0023B679095147401F0023B679093
:203D4A009513E0600E90950BE014F9F090951EE7F0800F90950BE024FEFFF08F0190951EB9
:203D6A00E7F090951EE0F5821239EA023F8E90950BE024FDFFF08F0187050987060987075B
:203D8A0019199094FAEDF0EEA3F0EFA3F08D828E838FF01243C285823285833390951AE0A0
:203DAA00FAA3E0FDBAFF0DBDFF0A90951AE532F0E533A3F090950EE0704B909518E0FAA37A
:203DCA00E0FDC3E5329AE5339D503A909518EAC39532F0ED9533A3F0909518E0FAA3E0FDC9
:203DEA008A068D071ABAFF011DEE4F6010758220C005C0021239EAD002D00580E3909518DD
:203E0A00EAF0EDA3F090951AE0F535A3E0F5369094FAE0FAA3E0FDA3E0FF8A828D838FF0B2
:203E2A0012449DF534603CC3E4953574808536F063F08095F0502C153574FFB535021536E8
:203E4A008534821239EA9094FAE0FAA3E0FDA3E0FF0ABA00010D9094FAEAF0EDA3F0EFA312
:203E6A00F080AC90950EE07003023F8E909518E0FEA3E0FFC3E5329EE5339F4003023F8EE9
:203E8A00909518EEC39532F0EF9533A3F0909518E0FEA3E0FF8E028F051EBEFF011FEA4D36
:203EAA007003023F86758220C007C0061239EAD006D00780E090950BE024FDFDF08D0187A5
:203ECA003709873809873919199094FAE537F0E538A3F0E539A3F09094FCE0FDBD800040D9
:203EEA000890951E7443F08020BD6000400890951E7450F08013BD4000400890951E7449F2
:203F0A00F0800690951E7458F090951EE0FDF582C0051239EA75823A1239EA7582301239B9
:203F2A00EA7582781239EAD005BD4902800EBD500280099094FBE0F582123A459094FAE0E1
:203F4A00F582123A45803D9095127401F0909517740AF0802F9095177408F0802790951712
:203F6A00740AF0801F9095177410F080179095157401F0800F8B821239EA8008909518EEC0
:203F8A00F0EFA3F0909515E0607190950BE024FCFFF08F01870309870509870609870719A6
:203FAA0019199094FAEBF0EDA3F0EEA3F0EFA3F09094FA74C0F0744AA3F07480A3F090940B
:203FCA00FAE0F537A3E0F538A3E0F53974012537FAE43538FBAF399094FAEAF0EBA3F0EF0C
:203FEA00A3F08537828538838539F012449DFF7003023AF98F821239EA80C3909517E07049
:20400A0003023AF9909513E0604790950BE014F9F087077E007D007B009094FAEFF0EEA300
:20402A00F0EDA3F0EBA3F0909512E060030240D19094FAE0FBA3E0A3E0A3E07D007E007FFF
:20404A00009094FAEBF0EDA3F0EEA3F0EFA3F08076909514E0602890950BE024FCFFF08F95
:20406A000187030987050987060987071919199094FAEBF0EDA3F0EEA3F0EFA3F0804890CA
:20408A00950BE024FEFFF08F01870609870719EF3395E0FDFB9094FAEEF0EFA3F0EDA3F02B
:2040AA00EBA3F0909512E0701E9094FAE0FBA3E0FDA3E0A3E07E007F009094FAEBF0EDA3CE
:2040CA00F0EEA3F0EFA3F0909512E060419094FAE0FBA3E0FDA3E0FEA3E0FF30E72B909449
:2040EA00FAE0FBA3E0FDA3E0FEA3E0FFC3E49BFBE49DFDE49EFEE49FFF9094FAEBF0EDA318
:20410A00F0EEA3F0EFA3F08005909512E4F09095167401F0909517E0F535753A24753B9514
:20412A00E4F532F5339094FEE4F0853582123A61909516E070269094FEE0C4F537853A827F
:20414A00853B83E0FFE5374207853A82853B83EFF0153A74FFB53A02153B800C9094FEE0DA
:20416A00FF853A82853B83F00532E4B532020533909516E0B40100E433F09094FAE0FAA314
:20418A00E0FBA3E0FEA3E0FFEA4B4E4F7097909525E53AF0E53BA3F090951CE532F0E533F2
:2041AA00A3F0909518E0F5F0A3E045F070099095187401F0E4A3F090950FE0FFE0704790DC
:2041CA00950EE0704185323A85333B909518E0FAA3E0FBC007AF3A0F8F067F00C3EE9AEF1B
:2041EA009BD0075019758220C007C003C0021239EAD002D003D0071ABAFF011B80D590955D
:20420A0018EAF0EBA3F0909512E0602075822DC0071239EAD007909518E024FFFDA3E034A2
:20422A00FFFE909518EDF0EEA3F0805690951CE0F5F0A3E045F0604A909510E06020758212
:20424A002BC0071239EAD007909518E024FFFDA3E034FFFE909518EDF0EEA3F08024909501
:20426A0011E0601E758220C0071239EAD007909518E024FFFDA3E034FFFE909518EDF0EEE2
:20428A00A3F090950EE0704890951CE0F53AA3E0F53B909518E0FAA3E0FBC0078A068B0735
:2042AA001ABAFF011BC3E53A9EE53B9FD0075053EF60067D307E0080047D207E008D82C05E
:2042CA0007C003C0021239EAD002D003D00780CA909518E0FEA3E0FF90951CE0F53AA3E0DD
:2042EA00F53BC3E53A9EE53B9F500F909518EEC3953AF0EF953BA3F08011909518E4F0A3A2
:20430A00F08008909518EAF0EBA3F0909525E0FEA3E0FF90951CE0F53AA3E0F53BAA3AAD48
:20432A003B153A74FFB53A02153BEA4D6045909516E0B40100E433F0909516E070140EBE17
:20434A0000010F8E828F83E0C4540FFD9094FEF0800E8E828F83E0FD53050F9094FEEDF018
:20436A009094FEE0F582C007C006123A25D006D00780AA90950EE07003023AF9909518E00D
:20438A00FEA3E0FF8E038F051EBEFF011FEB4D7003023AF9758220C007C0061239EAD006E4
:1843AA00D00780E08C821239EA023AF99094FFE0FEA3E08E82F583221E
:0B4AC0003C4E4F20464C4F41543E003E
:1843C200AA82AB8312449D6003A380F8C3E5829AF582E5839BF5832240
:2043DA001235E930D502B2D1BF0009BC000302395F023952BC000302393CE583B4FF0BE51A
:2043FA0082B4FF0302395F02393CE582B4FF03023952C395835007247F400B02393C248075
:20441A00145003023952F582C3ED9AEE9BEF9C40111582C3EA33F9EB33FAEC33FBE433FCB3
:20443A008005E4CCCBCAF9C08275F019C3E99DEA9EEB9FEC9400D5F002802D400EE99DF9C3
:20445A00EA9EFAEB9FFBEC9400FCC3B3E833F8E58233F582E58333F583C3E933F9EA33FA23
:20447A00EB33FBEC33FC80C4B3E4F938FAE43582FBE43583FCD082500405827C8012368BBE
:03449A00023933B1
:0D2011007581411244FCE582600302200E3F
:1C449D0020F71430F6148883A88220F507E6A88375830022E280F7E49322E0222E
:2044B9006040F82582500274FFF582E824F8501ECCCBCAF9E4CC24F85014CBCAF9E4CB240B
:2044D900F8500BCAF9E4CA24F8500379002224086010F8C3EC13FCEB13FBEA13FAE913F9BE
:0344F900D8F122D5
:0444FC0075820022A3
:00000001FF
