:042000000220113277
:03200B000220AF01
:03206A0002200E43
:03200E000220EFBE
:20206D00D29775A0FF78107600227810740426F874FFF27810E6F8E4F27810E604F8E4F2B7
:20208D007810740226F8E4F27810740326F8E4F222D2A9D2AF22758901758C4C758A00D2F1
:2020AD008C22C0E0C0F0C0D075D0087819860F74075FFE78108609EE2411F8E6F37810E6C1
:2020CD0004F98EF005F07401800225E0D5F0FBF37819EF04F6758C4C758A00D0D0D0F0D0DE
:2020ED00E03212206D1220777810740426F874FCF2781976007F00EF2411F876000FBF080B
:20210D000040F41220A312209E7F00EF2411F9E704F7EF2411F9E770F00FBF070040EC8076
:01212D00E8C9
:06204000E478FFF6D8FD74
:20201E007900E94400601B7A00902132780075A030E493F2A308B8000205A0D9F4DAF275E6
:02203E00A0FF01
:202046007800E84400600A790075A030E4F309D8FC7800E84400600C7900903000E4F0A33A
:04206600D8FCD9FACF
:0D20110075811912212EE582600302200E58
:04212E007582002294
:00000001FF
