:06200000022019022082FB
:01200B0032A2
:0320130002209612
:0320720002201633
:032016000220ACF9
:10207500E582020030120032C283F58222C0E0C040
:1020850082C083908000E4F0A3F0D083D082D0E0BA
:1020950032C0E0C082C0839080007401F0E4A3F0F8
:1020A500D083D082D0E03290800074FFF0A3F0D2CC
:1020B50088D28AD2A8D2AAD2AF7E007F00908000B3
:1020C500E0FCA3E0FD30E728C007C006C006C00756
:1020D50074C5C0E0742BC0E07480C0E0122163E5D4
:1020E5008124FBF581D006D0070EBE00D00F80CD30
:1020F500C004C00574D5C0E0742BC0E07480C0E096
:10210500122163E58124FBF58112207A0200002269
:102BC500776F726B696E672025642E2E2E0A0D00B5
:102BD500676F7420696E74657272757074202564F0
:032BE5000A0D00D6
:06204800E478FFF6D8FD6C
:102026007900E94400601B7A00902BF3783B75A099
:1020360080E493F2A308B8000205A0D9F4DAF27599
:02204600A0FFF9
:10204E007800E84400600A790075A080E4F309D8AE
:10205E00FC783BE84400600C7901908000E4F0A32A
:04206E00D8FCD9FAC7
:10211500C01A85811A7E008E83122075D01A22AFCF
:10212500F0AE83E582908003F0EEA3F0EFA3F0908C
:102135008003E0FDA3E0FEA3E0FF908002E0FC90B9
:102145008017E4F0A3F0A3F090801AEDF0EEA3F071
:10215500EFA3F090801DECF090211502226CC01ABF
:10216500E581F51A24FBFF908017E4F0A3F0A3F0B6
:10217500E51A24FBF890801AE6F008E6A3F008E6D5
:10218500A3F090801DEFF090211512226CD01A2239
:10219500E582908013F0E0FF908009E0C0E0A3E0C5
:1021A500C0E0A3E0C0E01221B0800D908007E0C040
:1021B500E0A3E0C0E08F8222158115811581908012
:1021C50011E02401F0A3E03400F022E582908014B0
:1021D500F0E02430FF24C6500D74072FFF908006D1
:1021E500E060034307208F82022195E582908015E8
:1021F500F0E0FFC4540FF582C0071221D0D0075379
:10220500070F8F820221D0E582908016F090800C16
:10221500E0FCA3E0FDA3E0FEA3E0FF908010E0FB5F
:10222500751B20908016E0F98B00E828F8EF235401
:102235000148FBEC2CFCED33FDEE33FEEF33FFC321
:10224500EB994007EBC399FB430401E51B14FA8A9C
:102255001B70D590800CECF0EDA3F0EEA3F0EFA38E
:10226500F0908010EBF022AF83E58290801EF0EFB6
:10227500A3F090801EE0FEA3E0FF908007EEF0EF54
:10228500A3F0908017E0FDA3E0FEA3E0FF90800996
:10229500EDF0EEA3F0EFA3F0908011E4F0A3F09041
:1022A500801AE0FDA3E0FEA3E0FF8D828E838FF010
:1022B500122BA5FC90801A74012DF0E43EA3F0EFDB
:1022C500A3F0EC7003022B61BC25028003022B599D
:1022D500908020E4F0908021F0908022F09080237F
:1022E500F0908024F0908025F0908026F090802753
:1022F500F0908029F090802AF0A3F090802C14F0C3
:10230500A3F090801AE0FDA3E0FEA3E0FF8D828E8E
:10231500838FF0122BA5FBA3AD82AE8390801AEDBF
:10232500F0EEA3F0EFA3F0908030EBF0BB25088B27
:10233500821221950222A4BB30005003022405EB32
:1023450024C6500302240590802CE0F510A3E0F587
:102355001174FFB51063B51160C005C006C00790C4
:10236500802AE0FAA3E0FF908039EAF0EFA3F0902D
:10237500000AC005C003122B85AE82AF83D003D0FF
:10238500058B027D00EA2EFEED3FFFEE24D0FEEF29
:1023950034FFFF90802AEEF0EFA3F0D007D006D0EF
:1023A5000590802AE0F5F0A3E045F06003022312D2
:1023B5009080217401F0022312C005C006C0079069
:1023C5008039E510F0E511A3F090000AC006C005BC
:1023D500C003122B85AA82AF83D003D005D0067E19
:1023E50000EB2AFAEE3FFFEA24D0FAEF34FFFF9024
:1023F500802CEAF0EFA3F0D007D006D00502231217
:10240500908030E0FBBB2E2FC005C006C007908032
:102415002CE0FAA3E0FFBAFF05BFFF028009D00751
:10242500D006D005022312D007D006D00590802C07
:10243500E4F0A3F0022312BB61004014EB248540B5
:102445000F90803074DF5BF09080067401F080059A
:10245500908006E4F0908030E0FBBB20028075BBE5
:102465002B028067BB2D028059BB4202806FBB43A4
:1024750002807CBB44030226FCBB4603022722BB29
:102485004803022312BB49030226FCBB4A0302236D
:1024950012BB4C028050BB4F0302270ABB500302FC
:1024A500266ABB53028077BB5403022312BB550334
:1024B500022712BB580302271ABB5A030223120232
:1024C500272A9080207401F0022312908022740143
:1024D500F00223129080237401F0022312908025CC
:1024E5007401F00223129080267401F002231290E9
:1024F5008025E0600E90801DE014F9F0908030E7B3
:10250500F0800F90801DE024FEFFF08F0190803059
:10251500E7F0908030E0F58212219502273990800E
:102525001DE024FDFFF08F01870509870609870750
:10253500191990800CEDF0EEA3F0EFA3F08D828ECB
:10254500838FF0122B6D85821085831190802CE08E
:10255500FAA3E0FDBAFF0DBDFF0A90802CE510F04F
:10256500E511A3F0908020E0704B90802AE0FAA35B
:10257500E0FDC3E5109AE5119D503A90802AEAC323
:102585009510F0ED9511A3F090802AE0FAA3E0FDF7
:102595008A068D071ABAFF011DEE4F60107582205D
:1025A500C005C002122195D002D00580E390802A93
:1025B500EAF0EDA3F090802CE0F513A3E0F514907C
:1025C500800CE0FAA3E0FDA3E0FF8A828D838FF003
:1025D500122BA5F512603CC3E4951374808514F0A5
:1025E50063F08095F0502C151374FFB51302151484
:1025F50085128212219590800CE0FAA3E0FDA3E0FC
:10260500FF0ABA00010D90800CEAF0EDA3F0EFA3EC
:10261500F080AC908020E0700302273990802AE09A
:10262500FEA3E0FFC3E5109EE5119F400302273995
:1026350090802AEEC39510F0EF9511A3F090802AB3
:10264500E0FEA3E0FF8E028F051EBEFF011FEA4DCF
:102655007003022731758220C007C006122195D06C
:1026650006D00780E090801DE024FDFDF08D0187F8
:1026750015098716098717191990800CE515F0E5D6
:1026850016A3F0E517A3F090800EE0FDBD80004095
:10269500089080307443F08020BD60004008908031
:1026A500307450F08013BD4000400890803074496C
:1026B500F080069080307458F0908030E0FDF5820F
:1026C500C00512219575823A122195758230122125
:1026D50095758278122195D005BD4902800EBD50B1
:1026E50002800990800DE0F5821221F090800CE0C7
:1026F500F5821221F0803D9080247401F0908029AC
:10270500740AF0802F9080297408F0802790802922
:10271500740AF0801F9080297410F080179080272C
:102725007401F0800F8B82122195800890802AEE2B
:10273500F0EFA3F0908027E0607190801DE024FC0D
:10274500FFF08F01870309870509870609870719A0
:10275500191990800CEBF0EDA3F0EEA3F0EFA3F0C8
:1027650090800C74E8F0742BA3F07480A3F0908033
:102775000CE0F515A3E0F516A3E0F5177401251592
:10278500FAE43516FBAF1790800CEAF0EBA3F0EFF7
:10279500A3F08515828516838517F0122BA5FF708A
:1027A500030222A48F8212219580C3908029E070B4
:1027B500030222A4908025E0604790801DE014F973
:1027C500F087077E007D007B0090800CEFF0EEA384
:1027D500F0EDA3F0EBA3F0908024E0600302287CE9
:1027E50090800CE0FBA3E0A3E0A3E07D007E007FEA
:1027F5000090800CEBF0EDA3F0EEA3F0EFA3F080DA
:1028050076908026E0602890801DE024FCFFF08F04
:10281500018703098705098706098707191919908B
:10282500800CEBF0EDA3F0EEA3F0EFA3F080489061
:10283500801DE024FEFFF08F01870609870719EF49
:102845003395E0FDFB90800CEEF0EFA3F0EDA3F0E7
:10285500EBA3F0908024E0701E90800CE0FBA3E0D9
:10286500FDA3E0A3E07E007F0090800CEBF0EDA3DC
:10287500F0EEA3F0EFA3F0908024E0604190800C8F
:10288500E0FBA3E0FDA3E0FEA3E0FF30E72B908093
:102895000CE0FBA3E0FDA3E0FEA3E0FFC3E49BFB8C
:1028A500E49DFDE49EFEE49FFF90800CEBF0EDA31C
:1028B500F0EEA3F0EFA3F08005908024E4F0908083
:1028C500287401F0908029E0F51375183675198084
:1028D500E4F510F511908010E4F085138212220CB6
:1028E500908028E07026908010E0C4F51585188248
:1028F500851983E0FFE5154207851882851983EF61
:10290500F0151874FFB518021519800C908010E0A9
:10291500FF851882851983F00510E4B510020511AD
:10292500908028E0B40100E433F090800CE0FAA335
:10293500E0FBA3E0FEA3E0FFEA4B4E4F70979080CB
:1029450037E518F0E519A3F090802EE510F0E511B4
:10295500A3F090802AE0F5F0A3E045F0700990809F
:102965002A7401F0E4A3F0908021E0FFE070479025
:102975008020E0704185101885111990802AE0FAB1
:10298500A3E0FBC007AF180F8F067F00C3EE9AEFD9
:102995009BD0075019758220C007C003C0021221C1
:1029A50095D002D003D0071ABAFF011B80D59080BD
:1029B5002AEAF0EBA3F0908024E0602075822DC018
:1029C50007122195D00790802AE024FFFDA3E0346B
:1029D500FFFE90802AEDF0EEA3F0805690802EE069
:1029E500F5F0A3E045F0604A908022E06020758212
:1029F5002BC007122195D00790802AE024FFFDA364
:102A0500E034FFFE90802AEDF0EEA3F08024908064
:102A150023E0601E758220C007122195D0079080A3
:102A25002AE024FFFDA3E034FFFE90802AEDF0EEBE
:102A3500A3F0908020E0704890802EE0F518A3E088
:102A4500F51990802AE0FAA3E0FBC0078A068B07F8
:102A55001ABAFF011BC3E5189EE5199FD00750530D
:102A6500EF60067D307E0080047D207E008D82C073
:102A750007C003C002122195D002D003D00780CA37
:102A850090802AE0FEA3E0FF90802EE0F518A3E0F9
:102A9500F519C3E5189EE5199F500F90802AEEC3DE
:102AA5009518F0EF9519A3F0801190802AE4F0A312
:102AB500F0800890802AEAF0EBA3F0908037E0FEE2
:102AC500A3E0FF90802EE0F518A3E0F519AA18AD54
:102AD50019151874FFB518021519EA4D604590804F
:102AE50028E0B40100E433F0908028E070140EBEB5
:102AF50000010F8E828F83E0C4540FFD908010F08B
:102B0500800E8E828F83E0FD53050F908010EDF0CF
:102B1500908010E0F582C007C0061221D0D006D003
:102B25000780AA908020E070030222A490802AE00A
:102B3500FEA3E0FF8E038F051EBEFF011FEB4D7048
:102B4500030222A4758220C007C006122195D00673
:102B5500D00780E08C821221950222A4908011E09A
:082B6500FEA3E08E82F583223D
:0B2BE8003C4E4F20464C4F41543E0035
:102B6D00AA82AB83122BA56003A380F8C3E5829ADA
:102B7D00F582E5839BF58322AA83AB828BF090804F
:102B8D0039E0A4F8A9F08AF0E0A429F98BF0A3E0CC
:082B9D00A429F583888222229D
:0D20190075811B122BC1E5826003022016A9
:102BA50020F71430F6148883A88220F507E6A88359
:102BB50075830022E280F7E49322E02275820022E9
:00000001FF
