:06200000022019022083FA
:01200B0032A2
:0320130002209612
:0320720002201633
:0320160002235D45
:10207500E582020030120032F58275830022C0E04D
:10208500C082C0839080007401F0D083D082D0E0FC
:1020950032C0E0C082C0839080017401F0D083D04B
:1020A50082D0E032E582FF70030222717DEC7E2B47
:1020B5007F808D828E838FF0122AB4FC60107B00A6
:1020C5008C828B831220750DBD00E70E80E4908C09
:1020D50015E4F0A3F0908C15E0FEA3E07403C39E15
:1020E500FEC2D575F002EE30E704B2D5F404A43093
:1020F500D50AF42401C5F0F43400C5F0240BF582AB
:10210500748C35F0F583E0FEA3E0FF8E04EFFDC48B
:10211500540F30E30244F0FE3395E053060F7F0081
:10212500EE24DCF582EF342BF583E493FF7E008FFC
:10213500828E831220758D0753070F7E00EF24DCF6
:10214500F582EE342BF583E493FF7E008F828E8338
:102155001220758C06EDC4CEC4540F6ECE540FCE2E
:102165006ECE30E30244F053060F7F00EE24DCF51B
:1021750082EF342BF583E493FF7E008F828E8312EA
:10218500207553040F7D00EC24DCF582ED342BF52E
:1021950083E493FF7E008F828E83122075908C15C9
:1021A500E0FEA3E0FFC3EE9403EF64809480500645
:1021B500900020122075908C15E02401F0A3E034E6
:1021C50000F0908C15E0FEA3E0FFC3EE9404EF64ED
:1021D50080948050030220DA7DF47E2B7F808D82EF
:1021E5008E838FF0122AB4FC60107B008C828B8367
:1021F5001220750DBD00E70E80E4908C15E4F0A368
:10220500F0908C15E0FEA3E0FFEE2EFEEF33FFEE1F
:10221500240BFEEF348CFF8E828F83E0FCA3E0FD60
:102225000CBC00010D8E828F83ECF0EDA3F0908C39
:1022350015E0FEA3E0FFEE2EFCEF33FDEC240BF5DD
:1022450082ED348CF583E0FCA3E0FD4C701E908C90
:102255001574012EF0E43FA3F0908C15E0FEA3E089
:10226500FFC3EE9404EF648094804095908C02E463
:10227500F0A3F0908C04E4F0A3F0908C04E0FEA3AE
:10228500E0C42354E0CEC423CE6ECE54E0CE6EFF20
:10229500908C02E0FCA3E0FDEC2EFEED3FFFEE246A
:1022A50002FEEF3484FF8E828F83E060227DF77E0D
:1022B5002B7F808D828E838FF0122AB4FC60327B57
:1022C500008C828B831220750DBD00E70E80E47DA6
:1022D500FA7E2B7F808D828E838FF0122AB4FC606C
:1022E500107B008C828B831220750DBD00E70E805C
:1022F500E4908C04E02401F0A3E03400F0908C0419
:10230500E0FEA3E0FFC3EE9420EF648094805003C9
:1023150002227F7DF47E2B7F808D828E838FF0124B
:102325002AB4FC60107B008C828B831220750DBD56
:1023350000E70E80E4908C02E02401F0A3E0340075
:10234500F0908C02E0FEA3E0FFC3EE9420EF6480E2
:102355009480500302227822C010858110058105E2
:1023650081D288D28AD2A8D2AAD2AF908000E4F0D6
:10237500908001F0E4C0E07404C0E0E4C0E0908423
:102385000275F000122A4A158115811581E4C0E015
:102395007404C0E0E4C0E090800275F000122A4A9F
:1023A5001581158115817D087E2C7F808D828E8318
:1023B5008FF0122AB4FC60107B008C828B83122074
:1023C500750DBD00E70E80E412207A908C15E4F0BF
:1023D500A3F07DFD7E2B7F808D828E838FF0122A68
:1023E500B4FC60107B008C828B831220750DBD00C0
:1023F500E70E80E4908C04E4F0A3F0908C02E4F006
:10240500A3F012207AAE82AF83908C17EEF0EFA383
:10241500F0BE3041BF003E908C04E0FCA3E0C42335
:1024250054E0CCC423CC6CCC54E0CC6CFD908C0235
:10243500E0FAA3E0FBEA2CFCEB3DFDEC2402F5827F
:10244500ED3484F583E4F0908C15E02401F0A3E0ED
:102455003400F0804DBE3142BF003F908C04E0FC5B
:10246500A3E0C42354E0CCC423CC6CCC54E0CC6CA6
:10247500FD908C02E0FAA3E0FBEA2CFCEB3DFDECC1
:102485002402F582ED3484F5837401F0908C15E017
:102495002401F0A3E03400F08008BE2305BF00024C
:1024A5008044908C02E02401F0A3E03400F0908C8D
:1024B50002E0FEA3E0FFC3EE9420EF648094805019
:1024C50003022407908C04E02401F0A3E03400F01B
:1024D500908C04E0FEA3E0FFC3EE9420EF648094AB
:1024E500805003022400908C17E0FEA3E0FFBE237A
:1024F50005BF0002801512207AAE82AF83908C173B
:10250500EEF0EFA3F0BE23EEBF00EB908C15E0FEDE
:10251500A3E08E04FDC4540F30E30244F0FE33956E
:10252500E053060F7F00EE24DCF582EF342BF583B4
:10253500E493FF7E008F828E831220758D075307EB
:102545000F7E00EF24DCF582EE342BF583E493FF58
:102555007E008F828E831220758C06EDC4CEC45406
:102565000F6ECE540FCE6ECE30E30244F053060FFD
:102575007F00EE24DCF582EF342BF583E493FF7EB8
:10258500008F828E8312207553040F7D00EC24DCAE
:10259500F582ED342BF583E493FF7E008F828E83E5
:1025A5001220757D047E2C7F808D828E838FF012A4
:1025B5002AB4FC60107B008C828B831220750DBDC4
:1025C50000E70E80E47582001220A97D167E2C7F1F
:1025D500808D828E838FF0122AB4FC60107B008C74
:1025E500828B831220750DBD00E70E80E412207AE0
:1025F500908C15E4F0A3F0908C15E0FEA3E0FFEEBF
:102605002EFEEF33FFEE240BF582EF348CF583E4D9
:10261500F0A3F0908C15E02401F0A3E03400F090D5
:102625008C15E0FEA3E0FFC3EE9404EF6480948074
:1026350040C5908000E06003022953758201122095
:10264500A9908C137401F0908C14F0908C04E4F034
:10265500A3F0908C02E4F0A3F0908C04E0FEA3E0DC
:10266500FF8E04C42354E0CCC423CC6CCC54E0CC02
:102675006CFD908C02E0FAA3E0FBEA2CFCEB3DFD3F
:10268500EC2402F582ED3484F583E0FD908C0AC3D9
:10269500E49DF01EBEFF011F908C08EEF0EFA3F045
:1026A500908C04E0FEA3E0FF74012EFCE43FFD9056
:1026B5008C08E0FAA3E0FBC3EC9AED64808BF06331
:1026C500F08095F050030227AB908C02E0FCA3E06C
:1026D500FD1CBCFF011D908C06ECF0EDA3F0908C69
:1026E50002E0FCA3E0FD0CBC00010D908C06E0FAB5
:1026F500A3E0FBC3EC9AED64808BF063F08095F06A
:10270500500302279C908C08E0FCA3E0FD74202C6C
:10271500FCE43DFDC003C0027420C0E0E4C0E08CD1
:10272500828D83122AD0AC82AD8315811581D002AA
:10273500D0038C07EDC42354E0CFC423CF6FCF540F
:10274500E0CF6FFE74202AFCE43BFDC007C006C045
:1027550003C0027420C0E0E4C0E08C828D83122A9D
:10276500D0AC82AD8315811581D002D003D006D0BF
:1027750007EC2FFCED3EFDEC2402F582ED3484F5EB
:1027850083E0FD908C0AE02DF0908C0674012AF010
:10279500E43BA3F00226E3908C08E02401F0A3E0DB
:1027A5003400F00226A5EFC42354E0CEC423CE6E38
:1027B500CE54E0CE6EFF908C02E0FCA3E0FDEC2E43
:1027C500FAED3FFBEA2402FAEB3488FB908C0AA869
:1027D5001008E0F6A81008B60302801FA81008B676
:1027E5000215EC2EFEED3FFFEE2402FEEF3484FFD2
:1027F5008E828F83E07004C2008002D200A200E4C2
:10280500338A828B83F0908C04E0FEA3E0C42354CA
:10281500E0CEC423CE6ECE54E0CE6EFF908C02E0A7
:10282500FCA3E0FDEC2EFEED3FFFEE2402F582EF6A
:102835003480F583E0FDEE2402F582EF3488F583DC
:10284500E0FFEDB507028005908C14E4F0908C0450
:10285500E0FEA3E0C42354E0CEC423CE6ECE54E004
:10286500CE6EFF908C02E0FCA3E0FDEC2EFEED3F6A
:10287500FFEE2402F582EF3484F583E0FDEE2402B9
:10288500F582EF3488F583E0FFEDB507028005900A
:102895008C13E4F0908C02E02401F0A3E03400F006
:1028A500908C02E0FEA3E0FFC3EE9420EF648094D9
:1028B50080500302265E908C04E02401F0A3E034EE
:1028C50000F0908C04E0FEA3E0FFC3EE9420EF64DB
:1028D5008094805003022657E4C0E07404C0E0747D
:1028E50002C0E07484C0E0E4C0E090800275F000AE
:1028F5001229B7E58124FBF581E4C0E07404C0E04A
:102905007402C0E07488C0E0E4C0E090840275F011
:10291500001229B7E58124FBF581908C13E070093D
:10292500908C14E070030226377D1C7E2C7F808DF1
:10293500828E838FF0122AB4FC60107B008C828B10
:10294500831220750DBD00E70E80E412207A908079
:1029550001E060257D237E2C7F808D828E838FF024
:10296500122AB4FC60107B008C828B831220750DBB
:10297500BD00E70E80E412207A908000E07003022B
:102985002379C2AF7D2B7E2C7F808D828E838FF045
:10299500122AB4FC60107B008C828B831220750D8B
:1029A500BD00E70E80E412207A020000851081D078
:0229B5001022EE
:102BDC003031323334353637383961626364656687
:102BEC001B5B324A1B5B6D000D0A005B5D002323EF
:102BFC00004C4F4144203C003E0D0A001B5B324A06
:102C0C001B5B6D494E49540D0A005244590D0A0084
:102C1C00444F4E450D0A00425245414B0D0A00549B
:062C2C0045524D0D0A00A7
:06204800E478FFF6D8FD6C
:102026007900E94400601B7A00902C32781975A07B
:102036008CE493F2A308B8000205A0D9F4DAF2758D
:02204600A0FFF9
:10204E007800E84400600A790075A080E4F309D8AE
:10205E00FC7819E8440C600C790D908000E4F0A334
:04206E00D8FCD9FAC7
:1029B700C010E581F5102408F581AD82AE83AFF034
:1029C700E5102406F8A60508A60608A607E51024BC
:1029D700FBF8A91009E6F70809E6F70809E6F7E59D
:1029E7001024F9F8E5102404F9E6F70809E6F7E5F5
:1029F700102404F88603088604E5102404F816B6A4
:102A0700FF020816EB4C6028A81008868208868308
:102A17000886F0122AB4FCA31818A68208A6838D8C
:102A2700828E838FF0EC122BC1A3AD82AE8380BF61
:102A3700E5102406F886820886830886F0851081CB
:102A4700D01022C010858110C082C083C0F00581DC
:102A57000581A810088602088603088604E5102465
:102A6700FBF8E5102404F9E6F70809E6F7E5102472
:102A770004F88606088607E5102404F816B6FF0250
:102A87000816EE4F60168A828B838CF0E51024FDC2
:102A9700F8E6122BC1A3AA82AB8380D1A8100886BF
:0D2AA700820886830886F0851081D01022F9
:0D201900758120122BBDE5826003022016A8
:102AB40020F71430F6148883A88220F507E6A8834B
:102AC40075830022E280F7E49322E022C01085811E
:102AD40010AE82E583FF33E433FD6009C3E49EFB5B
:102AE400E49FFC80048E038F04E51024FCF808E6C0
:102AF40030E70FE51024FCF8C3E496FE08E496FFE3
:102B0400800AE51024FCF88606088607C005C0067E
:102B1400C0078B828C83122B3EAE82AF8315811546
:102B240081D005ED600DC3E49EFCE49FFD8C828D95
:102B34008380048E828F83D01022C010858110AED2
:102B440082AF837D007C00E51024FCF808E6235462
:102B540001FB702FE51024FCF8E626F608E633F6B0
:102B6400E51024FCF8C3EE96EF08965011E5102406
:102B7400FCF808E618C313C613C608F680050C8CC7
:102B84000580C4E51024FCF8C3EE96EF0896400DCA
:102B9400E51024FCF8EEC396FEEF0896FFE510243A
:102BA400FCF808E618C313C613C608F68D041DEC1A
:102BB40070D18E828F83D010227582002220F7116B
:102BC40030F6138883A88220F509F6A8837583005C
:082BD4002280FEF280F5F022E0
:00000001FF
