:06200000022019022083FA
:01200B0032A2
:0320130002209612
:0320720002201633
:0320160002230E94
:20207500E582020030120032F58275830022C0E0C082C0839080007401F0D083D082D0E0EE
:2020950032C0E0C082C0839080017401F0D083D082D0E032E582FF700302224F7D9B7E2BCA
:2020B5007F808D828E838FF0122A63FC60107B008C828B831220750DBD00E70E80E4908CE5
:2020D50014E0FEA3E0FFC4540F30E30244F0FC3395E053040F7D00EC248BF582ED342BF52D
:2020F50083E493FD7C008D828C831220758F0553050F7C00ED248BF582EC342BF583E493CF
:20211500FD7C008D828C831220758E04EFC4CCC4540F6CCC540FCC6CCC30E30244F05304F5
:202135000F7D00EC248BF582ED342BF583E493FD7C008D828C8312207553060F7F00EE247A
:202155008BF582EF342BF583E493FF7E008F828E83122075908C12E0FEA3E0FFC4540F3000
:20217500E30244F0FC3395E053040F7D00EC248BF582ED342BF583E493FD7C008D828C83C6
:202195001220758F0553050F7C00ED248BF582EC342BF583E493FD7C008D828C8312207581
:2021B5008E04EFC4CCC4540F6CCC540FCC6CCC30E30244F053040F7D00EC248BF582ED34D4
:2021D5002BF583E493FD7C008D828C8312207553060F7F00EE248BF582EF342BF583E4935A
:2021F500FF7E008F828E831220757DA37E2B7F808D828E838FF0122A63FC60107B008C8289
:202215008B831220750DBD00E70E80E4908C12E0FEA3E0FF0EBE00010F908C12EEF0EFA3C9
:20223500F0EE4F7015908C14E0FEA3E0FF0EBE00010F908C14EEF0EFA3F0908C02E4F0A346
:20225500F0908C04E4F0A3F0908C04E0FEA3E0C42354E0CEC423CE6ECE54E0CE6EFF908C0C
:2022750002E0FCA3E0FDEC2EFEED3FFFEE2402FEEF3484FF8E828F83E0600E90005B122063
:202295007590005D122075800C900023122075900023122075908C04E02401F0A3E0340014
:2022B500F0908C04E0FEA3E0FFC3EE9420EF6480948040947DA37E2B7F808D828E838FF012
:2022D500122A63FC60107B008C828B831220750DBD00E70E80E4908C02E02401F0A3E034B3
:2022F50000F0908C02E0FEA3E0FFC3EE9420EF64809480500302225622C0108581100581B4
:202315000581D288D28AD2A8D2AAD2AF908000E4F0E4C0E07404C0E0E4C0E090840275F076
:20233500001229F9158115811581E4C0E07404C0E0E4C0E090800275F0001229F91581151C
:202355008115817DB17E2B7F808D828E838FF0122A63FC60107B008C828B831220750DBDC9
:2023750000E70E80E412207A908C0AE4F0A3F07DA67E2B7F808D828E838FF0122A63FC6051
:20239500107B008C828B831220750DBD00E70E80E4908C04E4F0A3F0908C02E4F0A3F01299
:2023B500207AAE82AF83908C0CEEF0EFA3F0BE3041BF003E908C04E0FCA3E0C42354E0CCF2
:2023D500C423CC6CCC54E0CC6CFD908C02E0FAA3E0FBEA2CFCEB3DFDEC2402F582ED3484B9
:2023F500F583E4F0908C0AE02401F0A3E03400F0804DBE3142BF003F908C04E0FCA3E0C47B
:202415002354E0CCC423CC6CCC54E0CC6CFD908C02E0FAA3E0FBEA2CFCEB3DFDEC2402F57C
:2024350082ED3484F5837401F0908C0AE02401F0A3E03400F08008BE2305BF00028044903E
:202455008C02E02401F0A3E03400F0908C02E0FEA3E0FFC3EE9420EF6480948050030223FB
:20247500B4908C04E02401F0A3E03400F0908C04E0FEA3E0FFC3EE9420EF648094805003B8
:202495000223AD908C0CE0FEA3E0FFBE2305BF0002801512207AAE82AF83908C0CEEF0EF8E
:2024B500A3F0BE23EEBF00EB908C0AE0FEA3E08E04FDC4540F30E30244F0FE3395E0530676
:2024D5000F7F00EE248BF582EF342BF583E493FF7E008F828E831220758D0753070F7E0047
:2024F500EF248BF582EE342BF583E493FF7E008F828E831220758C06EDC4CEC4540F6ECEBC
:20251500540FCE6ECE30E30244F053060F7F00EE248BF582EF342BF583E493FF7E008F822A
:202535008E8312207553040F7D00EC248BF582ED342BF583E493FF7E008F828E8312207558
:202555007DAD7E2B7F808D828E838FF0122A63FC60107B008C828B831220750DBD00E70EED
:2025750080E47582001220A97DBF7E2B7F808D828E838FF0122A63FC60107B008C828B83EB
:202595001220750DBD00E70E80E412207A908C12E4F0A3F0908C14F0A3F0908001F0908057
:2025B50000E060030228FE908001E060030228FE7582011220A9908C107401F0908C11F09E
:2025D500908C0EE4F0908C04F0A3F0908C0EE090296293FF7E008F828E8312207590000DAA
:2025F500122075908C0EE0FF0F74035FF0908C02E4F0A3F0908C04E0FEA3E0FF8E04C423C3
:2026150054E0CCC423CC6CCC54E0CC6CFD908C02E0FAA3E0FBEA2CFCEB3DFDEC2402F5821B
:20263500ED3484F583E0FD908C0FC3E49DF01EBEFF011F908C08EEF0EFA3F0908C04E0FEAF
:20265500A3E0FF74012EFCE43FFD908C08E0FAA3E0FBC3EC9AED64808BF063F08095F0506B
:2026750003022756908C02E0FCA3E0FD1CBCFF011D908C06ECF0EDA3F0908C02E0FCA3E059
:20269500FD0CBC00010D908C06E0FAA3E0FBC3EC9AED64808BF063F08095F0500302274728
:2026B500908C08E0FCA3E0FD74202CFCE43DFDC003C0027420C0E0E4C0E08C828D83122A14
:2026D5007FAC82AD8315811581D002D0038C07EDC42354E0CFC423CF6FCF54E0CF6FFE74F5
:2026F500202AFCE43BFDC007C006C003C0027420C0E0E4C0E08C828D83122A7FAC82AD8362
:2027150015811581D002D003D006D007EC2FFCED3EFDEC2402F582ED3484F583E0FD908C48
:202735000FE02DF0908C0674012AF0E43BA3F002268E908C08E02401F0A3E03400F0022677
:2027550050EFC42354E0CEC423CE6ECE54E0CE6EFF908C02E0FCA3E0FDEC2EFAED3FFBEA3D
:202775002402FAEB3488FB908C0FA81008E0F6A81008B60302801FA81008B60215EC2EFE02
:20279500ED3FFFEE2402FEEF3484FF8E828F83E07004C2008002D200A200E4338A828B83E2
:2027B500F0908C04E0FEA3E0C42354E0CEC423CE6ECE54E0CE6EFF908C02E0FCA3E0FDECE4
:2027D5002EFEED3FFFEE2402F582EF3480F583E0FDEE2402F582EF3488F583E0FFEDB507D4
:2027F500028005908C11E4F0908C04E0FEA3E0C42354E0CEC423CE6ECE54E0CE6EFF908C56
:2028150002E0FCA3E0FDEC2EFEED3FFFEE2402F582EF3484F583E0FDEE2402F582EF348845
:20283500F583E0FFEDB507028005908C10E4F0908C02E02401F0A3E03400F0908C02E0FE46
:20285500A3E0FFC3EE9420EF648094805003022609908C04E02401F0A3E03400F0908C0435
:20287500E0FEA3E0FFC3EE9420EF6480948050030225E0E4C0E07404C0E07402C0E0748493
:20289500C0E0E4C0E090800275F000122966E58124FBF581E4C0E07404C0E07402C0E074C6
:2028B50088C0E0E4C0E090840275F000122966E58124FBF581908C10E07009908C11E0703E
:2028D500030225B37DC57E2B7F808D828E838FF0122A63FC60107B008C828B831220750D27
:2028F500BD00E70E80E412207A908001E060257DCC7E2B7F808D828E838FF0122A63FC6000
:20291500107B008C828B831220750DBD00E70E80E412207A908000E07003022326C2AF7DE9
:20293500D47E2B7F808D828E838FF0122A63FC60107B008C828B831220750DBD00E70E80DF
:0D295500E412207A020000851081D01022CB
:202B8B00303132333435363738396162636465661B5B324A1B5B6D000D0A004C4F4144209C
:062BAB003C003E0D0A0093
:042962005C7C2F2D3D
:202BB1001B5B324A1B5B6D494E49540D0A005244590D0A00444F4E450D0A00425245414B3C
:0A2BD1000D0A005445524D0D0A0094
:06204800E478FFF6D8FD6C
:202026007900E94400601B7A00902BDB781675A08CE493F2A308B8000205A0D9F4DAF275B9
:02204600A0FFF9
:20204E007800E84400600A790075A080E4F309D8FC7816E8440C600C790D908000E4F0A363
:04206E00D8FCD9FAC7
:20296600C010E581F5102408F581AD82AE83AFF0E5102406F8A60508A60608A607E5102431
:20298600FBF8A91009E6F70809E6F70809E6F7E51024F9F8E5102404F9E6F70809E6F7E5F3
:2029A600102404F88603088604E5102404F816B6FF020816EB4C6028A8100886820886832E
:2029C6000886F0122A63FCA31818A68208A6838D828E838FF0EC122B70A3AD82AE8380BF32
:1329E600E5102406F886820886830886F0851081D0102218
:2029F900C010858110C082C083C0F005810581A810088602088603088604E51024FBF8E53B
:202A1900102404F9E6F70809E6F7E5102404F88606088607E5102404F816B6FF020816EE7D
:202A39004F60168A828B838CF0E51024FDF8E6122B70A3AA82AB8380D1A8100886820886DD
:0A2A5900830886F0851081D010225A
:0D201900758120122B6CE5826003022016F9
:1C2A630020F71430F6148883A88220F507E6A88375830022E280F7E49322E02282
:202A7F00C010858110AE82E583FF33E433FD6009C3E49EFBE49FFC80048E038F04E510248A
:202A9F00FCF808E630E70FE51024FCF8C3E496FE08E496FF800AE51024FCF886060886078E
:202ABF00C005C006C0078B828C83122AEDAE82AF8315811581D005ED600DC3E49EFCE49FDF
:0E2ADF00FD8C828D8380048E828F83D0102226
:202AED00C010858110AE82AF837D007C00E51024FCF808E6235401FB702FE51024FCF8E688
:202B0D0026F608E633F6E51024FCF8C3EE96EF08965011E51024FCF808E618C313C613C6AB
:202B2D0008F680050C8C0580C4E51024FCF8C3EE96EF0896400DE51024FCF8EEC396FEEFB5
:1F2B4D000896FFE51024FCF808E618C313C613C608F68D041DEC70D18E828F83D0102247
:042B6C00758200224C
:1B2B700020F71130F6138883A88220F509F6A8837583002280FEF280F5F02264
:00000001FF
