:06200000022019022083FA
:01200B0032A2
:0320130002209612
:0320720002201633
:0320160002230E94
:10207500E582020030120032F58275830022C0E04D
:10208500C082C0839080007401F0D083D082D0E0FC
:1020950032C0E0C082C0839080017401F0D083D04B
:1020A50082D0E032E582FF700302224F7D357E2D1E
:1020B5007F808D828E838FF0122BFDFC60107B005C
:1020C5008C828B831220750DBD00E70E80E4908C09
:1020D50014E0FEA3E0FFC4540F30E30244F0FC33E8
:1020E50095E053040F7D00EC2425F582ED342DF5A4
:1020F50083E493FD7C008D828C831220758F0553BC
:10210500050F7C00ED2425F582EC342DF583E49351
:10211500FD7C008D828C831220758E04EFC4CCC4A7
:10212500540F6CCC540FCC6CCC30E30244F0530408
:102135000F7D00EC2425F582ED342DF583E493FD28
:102145007C008D828C8312207553060F7F00EE2450
:1021550025F582EF342DF583E493FF7E008F828E83
:1021650083122075908C12E0FEA3E0FFC4540F305B
:10217500E30244F0FC3395E053040F7D00EC242585
:10218500F582ED342DF583E493FD7C008D828C83FF
:102195001220758F0553050F7C00ED2425F582EC83
:1021A500342DF583E493FD7C008D828C831220759C
:1021B5008E04EFC4CCC4540F6CCC540FCC6CCC3013
:1021C500E30244F053040F7D00EC2425F582ED3441
:1021D5002DF583E493FD7C008D828C83122075534D
:1021E500060F7F00EE2425F582EF342DF583E49369
:1021F500FF7E008F828E831220757D3D7E2D7F8030
:102205008D828E838FF0122BFDFC60107B008C82FB
:102215008B831220750DBD00E70E80E4908C12E0D3
:10222500FEA3E0FF0EBE00010F908C12EEF0EFA3AF
:10223500F0EE4F7015908C14E0FEA3E0FF0EBE008B
:10224500010F908C14EEF0EFA3F0908C02E4F0A354
:10225500F0908C04E4F0A3F0908C04E0FEA3E0C4BD
:102265002354E0CEC423CE6ECE54E0CE6EFF908CC8
:1022750002E0FCA3E0FDEC2EFEED3FFFEE2402FEA6
:10228500EF3484FF8E828F83E0600E90005B122016
:102295007590005D122075800C90002312207590BA
:1022A5000023122075908C04E02401F0A3E0340093
:1022B500F0908C04E0FEA3E0FFC3EE9420EF648071
:1022C500948040947D3D7E2D7F808D828E838FF01E
:1022D500122BFDFC60107B008C828B831220750D08
:1022E500BD00E70E80E4908C02E02401F0A3E03409
:1022F50000F0908C02E0FEA3E0FFC3EE9420EF64B3
:10230500809480500302225622C010E581F51024E6
:102315000FF581D288D28AD2A8D2AAD2AF908000F6
:10232500E4F0908001F0E4C0E07404C0E0E4C0E0B3
:1023350090840275F000122B93158115811581E4A7
:10234500C0E07404C0E0E4C0E090800275F00012C3
:102355002B931581158115817D4B7E2D7F808D8277
:102365008E838FF0122BFDFC60107B008C828B839B
:102375001220750DBD00E70E80E412207A908C0ABC
:10238500E4F0A3F07D407E2D7F808D828E838FF0DB
:10239500122BFDFC60107B008C828B831220750D47
:1023A500BD00E70E80E4908C04E4F0A3F0908C026D
:1023B500E4F0A3F012207AAE82AF83908C0CEEF09D
:1023C500EFA3F0BE3041BF003E908C04E0FCA3E0DB
:1023D500C42354E0CCC423CC6CCC54E0CC6CFD902D
:1023E5008C02E0FAA3E0FBEA2CFCEB3DFDEC2402B9
:1023F500F582ED3484F583E4F0908C0AE02401F055
:10240500A3E03400F0804DBE3142BF003F908C0404
:10241500E0FCA3E0C42354E0CCC423CC6CCC54E052
:10242500CC6CFD908C02E0FAA3E0FBEA2CFCEB3DC2
:10243500FDEC2402F582ED3484F5837401F0908C73
:102445000AE02401F0A3E03400F08008BE2305BFB4
:1024550000028044908C02E02401F0A3E03400F0F7
:10246500908C02E0FEA3E0FFC3EE9420EF6480941D
:102475008050030223B9908C04E02401F0A3E034DA
:1024850000F0908C04E0FEA3E0FFC3EE9420EF641F
:1024950080948050030223B2908C0CE0FEA3E0FFF1
:1024A500BE2305BF0002801512207AAE82AF83904D
:1024B5008C0CEEF0EFA3F0BE23EEBF00EB908C0A80
:1024C500E0FEA3E08E04FDC4540F30E30244F0FEA9
:1024D5003395E053060F7F00EE2425F582EF342D6A
:1024E500F583E493FF7E008F828E831220758D071E
:1024F50053070F7E00EF2425F582EE342DF583E496
:1025050093FF7E008F828E831220758C06EDC4CEDC
:10251500C4540F6ECE540FCE6ECE30E30244F0534A
:10252500060F7F00EE2425F582EF342DF583E49325
:10253500FF7E008F828E8312207553040F7D00EC81
:102545002425F582ED342DF583E493FF7E008F82FB
:102555008E831220757D477E2D7F808D828E838FA1
:10256500F0122BFDFC60107B008C828B8312207592
:102575000DBD00E70E80E47582001220A97D597E0D
:102585002D7F808D828E838FF0122BFDFC60107B5A
:10259500008C828B831220750DBD00E70E80E4123E
:1025A500207AAE82AF83908C0CEEF0EFA3F0BE5391
:1025B500EEBF00EB908C12E4F0A3F0908C14F0A326
:1025C500F0908000E06003022A987582011220A92C
:1025D500908C107401F0908C11F0908C0EE4F090BA
:1025E5008C04F0A3F0908C0EE0902AFC93FF7E0003
:1025F5008F828E8312207590000D122075908C0E9F
:10260500E0FF0F74035FF0908C02E4F0A3F0908C70
:1026150004E0FEA3E0FFA81008A606EFC42354E0DB
:10262500C6C423C666C654E0C66608F6908C02E0AA
:10263500FAA3E0FBA81008E5102403F9EA26F7EB56
:10264500083609F7E5102403F8E62402F58208E6C2
:102655003484F583E0FDE5102405F8C3E49DF674A4
:102665001F2EFCE43FFDC007C006C003C002742056
:10267500C0E0E4C0E08C828D83122C19AC82AD835E
:1026850015811581D002D003E5102406F8A604EDC6
:10269500C42354E0C6C423C666C654E0C66608F61D
:1026A500741F2AFCE43BFDC003C0027420C0E0E4B3
:1026B500C0E08C828D83122C19C8E5102408C8A6A9
:1026C5008208A68315811581D002D003E510240662
:1026D500F8E5102408F9E726FC09E70836FDEC249F
:1026E50002F582ED3484F583E0FDE5102405F8ED6F
:1026F50026F674202AFCE43BFDC003C0027420C00A
:10270500E0E4C0E08C828D83122C19C8E510240A00
:10271500C8A68208A68315811581D002D003E510CD
:102725002406F8E510240AF9E726FC09E70836FD32
:10273500EC2402F582ED3484F583E0FDE5102405F3
:10274500F8ED26F674212AFCE43BFDC003C00274B3
:1027550020C0E0E4C0E08C828D83122C19C8E510FE
:10276500240CC8A68208A68315811581D002D00342
:10277500D006D007E5102406F8E510240CF9E72665
:10278500FC09E70836FDEC2402F582ED3484F58377
:10279500E0FDE5102405F8E5102406F9ED26F774AB
:1027A500202EFCE43FFDC007C006C003C002742014
:1027B500C0E0E4C0E08C828D83122C19AC82AD831D
:1027C50015811581D002D003D006D007E510240E5F
:1027D500F8A604EDC42354E0C6C423C666C654E077
:1027E500C66608F6E510240EF8E5102408F9E72674
:1027F500FC09E70836FDEC2402F582ED3484F58307
:10280500E0FDE5102406F8E5102406F9ED26F7E5C8
:1028150010240EF8E510240AF9E726FC09E7083626
:10282500FDEC2402F582ED3484F583E0FDE510240A
:1028350006F8E5102406F9ED26F7E510240EF8E56F
:1028450010240CF9E726FC09E70836FDEC2402F50F
:1028550082ED3484F583E0FDE5102406F8E51024C7
:102865000EF9ED26F774212EFEE43FFFC003C002EA
:102875007420C0E0E4C0E08E828F83122C19AE82F2
:10288500AF8315811581D002D003EFC42354E0CE68
:10289500C423CE6ECE54E0CE6EFFE5102408F8E6D4
:1028A5002EFC08E63FFDEC2402F582ED3484F58329
:1028B500E0FDE510240EF8E510240EF9ED26F7E508
:1028C50010240AF8E62EFC08E63FFDEC2402F5820A
:1028D500ED3484F583E0FDE510240EF8ED26FD903A
:1028E5008C087401F0E4A3F0908C0604F0E4A3F0E6
:1028F500E510240CF8E62EFE08E63FFFEE2402F56F
:1029050082EF3484F583E02DFF908C0FF0E51024E1
:1029150003F8E62402FD08E63488FEBF03028020A2
:10292500BF0219A81008EA26FAEB0836FBEA2402CA
:10293500FAEB3484FB8A828B83E07004C200800248
:10294500D200A200E4338D828E83F0908C04E0FEE9
:10295500A3E0C42354E0CEC423CE6ECE54E0CE6EA5
:10296500FF908C02E0FCA3E0FDEC2EFEED3FFFEEB8
:102975002402F582EF3480F583E0FDEE2402F58232
:10298500EF3488F583E0FFEDB507028005908C11E3
:10299500E4F0908C04E0FEA3E0C42354E0CEC4230D
:1029A500CE6ECE54E0CE6EFF908C02E0FCA3E0FD2F
:1029B500EC2EFEED3FFFEE2402F582EF3484F58325
:1029C500E0FDEE2402F582EF3488F583E0FFEDB5F6
:1029D50007028005908C10E4F0908C02E02401F051
:1029E500A3E03400F0908C02E0FEA3E0FFC3EE9478
:1029F50020EF648094805003022613908C04E02419
:102A050001F0A3E03400F0908C04E0FEA3E0FFC3E6
:102A1500EE9420EF6480948050030225EAE4C0E040
:102A25007404C0E07402C0E07484C0E0E4C0E090C7
:102A3500800275F000122B00E58124FBF581E4C0CE
:102A4500E07404C0E07402C0E07488C0E0E4C0E053
:102A550090840275F000122B00E58124FBF581902E
:102A65008C10E07009908C11E070030225C67D6121
:102A75007E2D7F808D828E838FF0122BFDFC601062
:102A85007B008C828B831220750DBD00E70E80E4E0
:102A950012207A908001E060257D687E2D7F808DF3
:102AA500828E838FF0122BFDFC60107B008C828B55
:102AB500831220750DBD00E70E80E412207A908008
:102AC50000E0700302232BC2AF7D707E2D7F808DC9
:102AD500828E838FF0122BFDFC60107B008C828B25
:102AE500831220750DBD00E70E80E412207A0200E6
:072AF50000851081D01022C2
:102D2500303132333435363738396162636465663C
:102D35001B5B324A1B5B6D000D0A004C4F41442062
:062D45003C003E0D0A00F7
:042AFC005C7C2F2DA2
:102D4B001B5B324A1B5B6D494E49540D0A005245C1
:102D5B004144590D0A00444F4E450D0A004252455D
:0C2D6B00414B0D0A005445524D0D0A006A
:06204800E478FFF6D8FD6C
:102026007900E94400601B7A00902D77781675A038
:102036008CE493F2A308B8000205A0D9F4DAF2758D
:02204600A0FFF9
:10204E007800E84400600A790075A080E4F309D8AE
:10205E00FC7816E8440C600C790D908000E4F0A337
:04206E00D8FCD9FAC7
:102B0000C010E581F5102408F581AD82AE83AFF0E9
:102B1000E5102406F8A60508A60608A607E5102471
:102B2000FBF8A91009E6F70809E6F70809E6F7E552
:102B30001024F9F8E5102404F9E6F70809E6F7E5AA
:102B4000102404F88603088604E5102404F816B659
:102B5000FF020816EB4C6028A810088682088683BE
:102B60000886F0122BFDFCA31818A68208A6838DF8
:102B7000828E838FF0EC122D0AA3AD82AE8380BFCC
:102B8000E5102406F886820886830886F085108181
:102B9000D01022C010858110C082C083C0F0058192
:102BA0000581A810088602088603088604E510241B
:102BB000FBF8E5102404F9E6F70809E6F7E5102428
:102BC00004F88606088607E5102404F816B6FF0206
:102BD0000816EE4F60168A828B838CF0E51024FD78
:102BE000F8E6122D0AA3AA82AB8380D1A81008862A
:0D2BF000820886830886F0851081D01022AF
:0D201900758120122D06E58260030220165D
:102BFD0020F71430F6148883A88220F507E6A88301
:102C0D0075830022E280F7E49322E022C0108581D3
:102C1D0010AE82E583FF33E433FD6009C3E49EFB10
:102C2D00E49FFC80048E038F04E51024FCF808E675
:102C3D0030E70FE51024FCF8C3E496FE08E496FF98
:102C4D00800AE51024FCF88606088607C005C00634
:102C5D00C0078B828C83122C87AE82AF83158115B2
:102C6D0081D005ED600DC3E49EFCE49FFD8C828D4B
:102C7D008380048E828F83D01022C010858110AE88
:102C8D0082AF837D007C00E51024FCF808E6235418
:102C9D0001FB702FE51024FCF8E626F608E633F666
:102CAD00E51024FCF8C3EE96EF08965011E51024BC
:102CBD00FCF808E618C313C613C608F680050C8C7D
:102CCD000580C4E51024FCF8C3EE96EF0896400D80
:102CDD00E51024FCF8EEC396FEEF0896FFE51024F0
:102CED00FCF808E618C313C613C608F68D041DECD0
:102CFD0070D18E828F83D010227582002220F71121
:102D0D0030F6138883A88220F509F6A88375830011
:082D1D002280FEF280F5F02295
:00000001FF
