:06200000022019022083FA
:01200B0032A2
:0320130002209612
:0320720002201633
:0320160002230E94
:20207500E582020030120032F58275830022C0E0C082C0839080007401F0D083D082D0E0EE
:2020950032C0E0C082C0839080017401F0D083D082D0E032E582FF700302224F7D2C7E2D37
:2020B5007F808D828E838FF0122BF4FC60107B008C828B831220750DBD00E70E80E4908C53
:2020D50014E0FEA3E0FFC4540F30E30244F0FC3395E053040F7D00EC241CF582ED342DF59A
:2020F50083E493FD7C008D828C831220758F0553050F7C00ED241CF582EC342DF583E4933C
:20211500FD7C008D828C831220758E04EFC4CCC4540F6CCC540FCC6CCC30E30244F05304F5
:202135000F7D00EC241CF582ED342DF583E493FD7C008D828C8312207553060F7F00EE24E7
:202155001CF582EF342DF583E493FF7E008F828E83122075908C12E0FEA3E0FFC4540F306D
:20217500E30244F0FC3395E053040F7D00EC241CF582ED342DF583E493FD7C008D828C8333
:202195001220758F0553050F7C00ED241CF582EC342DF583E493FD7C008D828C83122075EE
:2021B5008E04EFC4CCC4540F6CCC540FCC6CCC30E30244F053040F7D00EC241CF582ED3443
:2021D5002DF583E493FD7C008D828C8312207553060F7F00EE241CF582EF342DF583E493C5
:2021F500FF7E008F828E831220757D347E2D7F808D828E838FF0122BF4FC60107B008C8264
:202215008B831220750DBD00E70E80E4908C12E0FEA3E0FF0EBE00010F908C12EEF0EFA3C9
:20223500F0EE4F7015908C14E0FEA3E0FF0EBE00010F908C14EEF0EFA3F0908C02E4F0A346
:20225500F0908C04E4F0A3F0908C04E0FEA3E0C42354E0CEC423CE6ECE54E0CE6EFF908C0C
:2022750002E0FCA3E0FDEC2EFEED3FFFEE2402FEEF3484FF8E828F83E0600E90005B122063
:202295007590005D122075800C900023122075900023122075908C04E02401F0A3E0340014
:2022B500F0908C04E0FEA3E0FFC3EE9420EF6480948040947D347E2D7F808D828E838FF07F
:2022D500122BF4FC60107B008C828B831220750DBD00E70E80E4908C02E02401F0A3E03421
:2022F50000F0908C02E0FEA3E0FFC3EE9420EF64809480500302225622C010E581F51024C1
:202315000FF581D288D28AD2A8D2AAD2AF908000E4F0E4C0E07404C0E0E4C0E09084027567
:20233500F000122B8A158115811581E4C0E07404C0E0E4C0E090800275F000122B8A15811B
:20235500158115817D427E2D7F808D828E838FF0122BF4FC60107B008C828B831220750D4C
:20237500BD00E70E80E412207A908C0AE4F0A3F07D377E2D7F808D828E838FF0122BF4FCCF
:2023950060107B008C828B831220750DBD00E70E80E4908C04E4F0A3F0908C02E4F0A3F04B
:2023B50012207AAE82AF83908C0CEEF0EFA3F0BE3041BF003E908C04E0FCA3E0C42354E0AC
:2023D500CCC423CC6CCC54E0CC6CFD908C02E0FAA3E0FBEA2CFCEB3DFDEC2402F582ED3471
:2023F50084F583E4F0908C0AE02401F0A3E03400F0804DBE3142BF003F908C04E0FCA3E0BB
:20241500C42354E0CCC423CC6CCC54E0CC6CFD908C02E0FAA3E0FBEA2CFCEB3DFDEC2402AD
:20243500F582ED3484F5837401F0908C0AE02401F0A3E03400F08008BE2305BF00028044D9
:20245500908C02E02401F0A3E03400F0908C02E0FEA3E0FFC3EE9420EF648094805003028E
:2024750023B5908C04E02401F0A3E03400F0908C04E0FEA3E0FFC3EE9420EF648094805097
:20249500030223AE908C0CE0FEA3E0FFBE2305BF0002801512207AAE82AF83908C0CEEF079
:2024B500EFA3F0BE23EEBF00EB908C0AE0FEA3E08E04FDC4540F30E30244F0FE3395E0538D
:2024D500060F7F00EE241CF582EF342DF583E493FF7E008F828E831220758D0753070F7EAE
:2024F50000EF241CF582EE342DF583E493FF7E008F828E831220758C06EDC4CEC4540F6EF7
:20251500CE540FCE6ECE30E30244F053060F7F00EE241CF582EF342DF583E493FF7E008F4B
:20253500828E8312207553040F7D00EC241CF582ED342DF583E493FF7E008F828E831220B8
:20255500757D3E7E2D7F808D828E838FF0122BF4FC60107B008C828B831220750DBD00E761
:202575000E80E47582001220A97D507E2D7F808D828E838FF0122BF4FC60107B008C828B3B
:20259500831220750DBD00E70E80E412207A908C12E4F0A3F0908C14F0A3F0908001F09054
:2025B5008000E06003022A8F908001E06003022A8F7582011220A9908C107401F0908C11E8
:2025D500F0908C0EE4F0908C04F0A3F0908C0EE0902AF393FF7E008F828E83122075900035
:2025F5000D122075908C0EE0FF0F74035FF0908C02E4F0A3F0908C04E0FEA3E0FFA810086F
:20261500A606EFC42354E0C6C423C666C654E0C66608F6908C02E0FAA3E0FBA81008E510C7
:202635002403F9EA26F7EB083609F7E5102403F8E62402F58208E63484F583E0FDE510248A
:2026550005F8C3E49DF6741F2EFCE43FFDC007C006C003C0027420C0E0E4C0E08C828D8369
:20267500122C10AC82AD8315811581D002D003E5102406F8A604EDC42354E0C6C423C66626
:20269500C654E0C66608F6741F2AFCE43BFDC003C0027420C0E0E4C0E08C828D83122C1083
:2026B500C8E5102408C8A68208A68315811581D002D003E5102406F8E5102408F9E726FCF0
:2026D50009E70836FDEC2402F582ED3484F583E0FDE5102405F8ED26F674202AFCE43BFD42
:2026F500C003C0027420C0E0E4C0E08C828D83122C10C8E510240AC8A68208A68315811565
:2027150081D002D003E5102406F8E510240AF9E726FC09E70836FDEC2402F582ED3484F5F4
:2027350083E0FDE5102405F8ED26F674212AFCE43BFDC003C0027420C0E0E4C0E08C828D56
:2027550083122C10C8E510240CC8A68208A68315811581D002D003D006D007E5102406F8F0
:20277500E510240CF9E726FC09E70836FDEC2402F582ED3484F583E0FDE5102405F8E51064
:202795002406F9ED26F774202EFCE43FFDC007C006C003C0027420C0E0E4C0E08C828D8331
:2027B500122C10AC82AD8315811581D002D003D006D007E510240EF8A604EDC42354E0C643
:2027D500C423C666C654E0C66608F6E510240EF8E5102408F9E726FC09E70836FDEC24022E
:2027F500F582ED3484F583E0FDE5102406F8E5102406F9ED26F7E510240EF8E510240AF9DF
:20281500E726FC09E70836FDEC2402F582ED3484F583E0FDE5102406F8E5102406F9ED26AA
:20283500F7E510240EF8E510240CF9E726FC09E70836FDEC2402F582ED3484F583E0FDE5B3
:20285500102406F8E510240EF9ED26F774212EFEE43FFFC003C0027420C0E0E4C0E08E82D7
:202875008F83122C10AE82AF8315811581D002D003EFC42354E0CEC423CE6ECE54E0CE6E77
:20289500FFE5102408F8E62EFC08E63FFDEC2402F582ED3484F583E0FDE510240EF8E5103A
:2028B500240EF9ED26F7E510240AF8E62EFC08E63FFDEC2402F582ED3484F583E0FDE51001
:2028D500240EF8ED26FD908C087401F0E4A3F0908C0604F0E4A3F0E510240CF8E62EFE08E5
:2028F500E63FFFEE2402F582EF3484F583E02DFF908C0FF0E5102403F8E62402FD08E6348F
:2029150088FEBF03028020BF0219A81008EA26FAEB0836FBEA2402FAEB3484FB8A828B832E
:20293500E07004C2008002D200A200E4338D828E83F0908C04E0FEA3E0C42354E0CEC423FE
:20295500CE6ECE54E0CE6EFF908C02E0FCA3E0FDEC2EFEED3FFFEE2402F582EF3480F58386
:20297500E0FDEE2402F582EF3488F583E0FFEDB507028005908C11E4F0908C04E0FEA3E026
:20299500C42354E0CEC423CE6ECE54E0CE6EFF908C02E0FCA3E0FDEC2EFEED3FFFEE240208
:2029B500F582EF3484F583E0FDEE2402F582EF3488F583E0FFEDB507028005908C10E4F0D2
:2029D500908C02E02401F0A3E03400F0908C02E0FEA3E0FFC3EE9420EF6480948050030209
:2029F500260A908C04E02401F0A3E03400F0908C04E0FEA3E0FFC3EE9420EF6480948050BA
:202A1500030225E1E4C0E07404C0E07402C0E07484C0E0E4C0E090800275F000122AF7E539
:202A35008124FBF581E4C0E07404C0E07402C0E07488C0E0E4C0E090840275F000122AF7EB
:202A5500E58124FBF581908C10E07009908C11E070030225B47D567E2D7F808D828E838F5A
:202A7500F0122BF4FC60107B008C828B831220750DBD00E70E80E412207A908001E0602531
:202A95007D5D7E2D7F808D828E838FF0122BF4FC60107B008C828B831220750DBD00E70E64
:202AB50080E412207A908000E07003022327C2AF7D657E2D7F808D828E838FF0122BF4FC79
:1E2AD50060107B008C828B831220750DBD00E70E80E412207A020000851081D010224C
:202D1C00303132333435363738396162636465661B5B324A1B5B6D000D0A004C4F41442009
:062D3C003C003E0D0A0000
:042AF3005C7C2F2DAB
:202D42001B5B324A1B5B6D494E49540D0A005244590D0A00444F4E450D0A00425245414BA9
:0A2D62000D0A005445524D0D0A0001
:06204800E478FFF6D8FD6C
:202026007900E94400601B7A00902D6C781675A08CE493F2A308B8000205A0D9F4DAF27526
:02204600A0FFF9
:20204E007800E84400600A790075A080E4F309D8FC7816E8440C600C790D908000E4F0A363
:04206E00D8FCD9FAC7
:202AF700C010E581F5102408F581AD82AE83AFF0E5102406F8A60508A60608A607E510249F
:202B1700FBF8A91009E6F70809E6F70809E6F7E51024F9F8E5102404F9E6F70809E6F7E560
:202B3700102404F88603088604E5102404F816B6FF020816EB4C6028A8100886820886839B
:202B57000886F0122BF4FCA31818A68208A6838D828E838FF0EC122D01A3AD82AE8380BF7A
:132B7700E5102406F886820886830886F0851081D0102285
:202B8A00C010858110C082C083C0F005810581A810088602088603088604E51024FBF8E5A8
:202BAA00102404F9E6F70809E6F7E5102404F88606088607E5102404F816B6FF020816EEEB
:202BCA004F60168A828B838CF0E51024FDF8E6122D01A3AA82AB8380D1A8100886820886B8
:0A2BEA00830886F0851081D01022C8
:0D201900758120122CFDE582600302201667
:1C2BF40020F71430F6148883A88220F507E6A88375830022E280F7E49322E022F0
:202C1000C010858110AE82E583FF33E433FD6009C3E49EFBE49FFC80048E038F04E51024F7
:202C3000FCF808E630E70FE51024FCF8C3E496FE08E496FF800AE51024FCF88606088607FB
:202C5000C005C006C0078B828C83122C7EAE82AF8315811581D005ED600DC3E49EFCE49FB9
:0E2C7000FD8C828D8380048E828F83D0102293
:202C7E00C010858110AE82AF837D007C00E51024FCF808E6235401FB702FE51024FCF8E6F5
:202C9E0026F608E633F6E51024FCF8C3EE96EF08965011E51024FCF808E618C313C613C619
:202CBE0008F680050C8C0580C4E51024FCF8C3EE96EF0896400DE51024FCF8EEC396FEEF23
:1F2CDE000896FFE51024FCF808E618C313C613C608F68D041DEC70D18E828F83D01022B5
:042CFD0075820022BA
:1B2D010020F71130F6138883A88220F509F6A8837583002280FEF280F5F022D1
:00000001FF
