:06200000022019022083FA
:01200B0032A2
:0320130002209612
:0320720002201633
:032016000220A9FC
:10207500E582020030120032F58275830022C0E04D
:10208500C082C0839080007401F0D083D082D0E0FC
:1020950032C0E0C082C0839080017401F0D083D04B
:1020A50082D0E032C0108581100581D288D28AD2D3
:1020B500A8D2AAD2AF908000E4F0908001F0908C75
:1020C50004E4F0A3F0908C02E4F0A3F0908C04E01B
:1020D500FEA3E0C42354E0CEC423CE6ECE54E0CE9E
:1020E5006EFFEE2402FEEF3484FF908C02E0FCA329
:1020F500E0FDEC2EF582ED3FF583E4F0908C04E0F5
:10210500FEA3E0C42354E0CEC423CE6ECE54E0CE6D
:102115006EFFEE2402FEEF3480FF908C02E0FCA3FC
:10212500E0FDEC2EF582ED3FF583E4F0908C02E0C6
:102135002401F0A3E03400F0908C02E0FEA3E0FF60
:10214500C3EE9420EF6480948050030220D1908CDC
:1021550004E02401F0A3E03400F0908C04E0FEA339
:10216500E0FFC3EE9420EF6480948050030220CA00
:102175007D077E2C7F808D828E838FF0122AD5FC81
:1021850060107B008C828B831220750DBD00E70EDD
:1021950080E412207A7D157E2C7F808D828E838F40
:1021A500F0122AD5FC60107B008C828B831220757F
:1021B5000DBD00E70E80E412207A908C15E4F0A3A3
:1021C500F090003C122075908C04E4F0A3F0908C04
:1021D50002E4F0A3F012207AAE82AF83908C17EE62
:1021E500F0EFA3F0BE3041BF003E908C04E0FCA3AD
:1021F500E0C42354E0CCC423CC6CCC54E0CC6CFDBF
:10220500EC2402FCED3484FD908C02E0FAA3E0FBA3
:10221500EA2CF582EB3DF583E4F0908C15E0240182
:10222500F0A3E03400F0804DBE3142BF003F908CFA
:1022350004E0FCA3E0C42354E0CCC423CC6CCC5410
:10224500E0CC6CFDEC2402FCED3484FD908C02E0C6
:10225500FAA3E0FBEA2CF582EB3DF5837401F090DF
:102265008C15E02401F0A3E03400F08008BE2305BE
:10227500BF00028044908C02E02401F0A3E034000A
:10228500F0908C02E0FEA3E0FFC3EE9420EF6480A3
:10229500948050030221DA908C04E02401F0A3E03D
:1022A5003400F0908C04E0FEA3E0FFC3EE9420EF31
:1022B5006480948050030221D3908C17E0FEA3E044
:1022C500FFBE2305BF0002801512207AAE82AF83C0
:1022D500908C17EEF0EFA3F0BE23EEBF00EB908CD1
:1022E50015E0FEA3E0FF8E04EFFDC4540F30E302BA
:1022F50044F0FE3395E053060F7F00EE24E2F582AD
:10230500EF342BF583E493FF7E008F828E831220BA
:10231500758D0753070F7E00EF24E2F582EE342B0F
:10232500F583E493FF7E008F828E831220758C06E1
:10233500EDC4CEC4540F6ECE540FCE6ECE30E30234
:1023450044F053060F7F00EE24E2F582EF342BF5BF
:1023550083E493FF7E008F828E8312207553040FD2
:102365007D00EC24E2F582ED342BF583E493FF7ECA
:10237500008F828E831220757D037E2C7F808D8257
:102385008E838FF0122AD5FC60107B008C828B83A4
:102395001220750DBD00E70E80E47D1C7E2C7F802C
:1023A5008D828E838FF0122AD5FC60107B008C8283
:1023B5008B831220750DBD00E70E80E412207A9004
:1023C5008C15E4F0A3F0908C15E0FEA3E0FFEE2E53
:1023D500FEEF33FFEE240BF582EF348CF583E4F04A
:1023E500A3F0908C15E02401F0A3E03400F0908C6C
:1023F50015E0FEA3E0FFC3EE9404EF6480948040F3
:10240500C5908000E06003022A727DF27E2B7F80FA
:102415008D828E838FF0122AD5FC60107B008C8212
:102425008B831220750DBD00E70E80E4908C15E4BA
:10243500F0A3F0908C15E0FEA3E07403C39EFEC2EA
:10244500D575F002EE30E704B2D5F404A430D50A10
:10245500F42401C5F0F43400C5F0240BF582748C26
:1024650035F0F583E0FEA3E0FF8E04EFFDC4540FC5
:1024750030E30244F0FE3395E053060F7F00EE246F
:10248500E2F582EF342BF583E493FF7E008F828E95
:10249500831220758D0753070F7E00EF24E2F58226
:1024A500EE342BF583E493FF7E008F828E8312201A
:1024B500758C06EDC4CEC4540F6ECE540FCE6ECEC1
:1024C50030E30244F053060F7F00EE24E2F582EF7D
:1024D500342BF583E493FF7E008F828E8312207563
:1024E50053040F7D00EC24E2F582ED342BF583E4F3
:1024F50093FF7E008F828E83122075908C15E0FEEF
:10250500A3E0FFC3EE9403EF64809480500690002F
:1025150020122075908C15E02401F0A3E03400F022
:10252500908C15E0FEA3E0FFC3EE9404EF64809465
:102535008050030224387DFA7E2B7F808D828E8326
:102545008FF0122AD5FC60107B008C828B831220C1
:10255500750DBD00E70E80E4908C15E4F0A3F090B6
:102565008C15E0FEA3E0FFEE2EFEEF33FFEE240B0D
:10257500FEEF348CFF8E828F83E0FCA3E0FD0CBC64
:1025850000010D8E828F83ECF0EDA3F0908C15E0A9
:10259500FEA3E0FFEE2EFCEF33FDEC240BF582ED00
:1025A500348CF583E0FCA3E0FD4C701E908C157413
:1025B500012EF0E43FA3F0908C15E0FEA3E0FFC3ED
:1025C500EE9404EF648094804095908C02E4F0A32F
:1025D500F0908C04E4F0A3F0908C04E0FEA3E0C43A
:1025E5002354E0CEC423CE6ECE54E0CE6EFFEE244F
:1025F50002FEEF3484FF908C02E0FCA3E0FDEC2E9C
:10260500FEED3FFF8E828F83E060227DFD7E2B7F76
:10261500808D828E838FF0122AD5FC60327B008CF0
:10262500828B831220750DBD00E70E80E47D007E50
:102635002C7F808D828E838FF0122AD5FC60107BD3
:10264500008C828B831220750DBD00E70E80E4900F
:102655008C04E02401F0A3E03400F0908C04E0FE4B
:10266500A3E0FFC3EE9420EF64809480500302251D
:10267500DD7DFA7E2B7F808D828E838FF0122AD5A9
:10268500FC60107B008C828B831220750DBD00E7EA
:102695000E80E4908C02E02401F0A3E03400F09079
:1026A5008C02E0FEA3E0FFC3EE9420EF64809480EB
:1026B50050030225D6908C137401F0908C14F09081
:1026C5008C04E4F0A3F0908C02E4F0A3F0908C0A63
:1026D500E4F0908C04E0FEA3E0FF1EBEFF011F9016
:1026E5008C08EEF0EFA3F0908C04E0FEA3E0FF74FD
:1026F500012EFCE43FFD908C08E0FAA3E0FBC3EC5F
:102705009AED64808BF063F08095F050030227ED1D
:10271500908C02E0FCA3E0FD1CBCFF011D908C0623
:10272500ECF0EDA3F0908C02E0FCA3E0FD0CBC0006
:10273500010D908C06E0FAA3E0FBC3EC9AED6480F2
:102745008BF063F08095F050030227DE908C08E053
:10275500FCA3E0FD74202CFCE43DFDC003C0027425
:1027650020C0E0E4C0E08C828D83122AF1AC82ADFA
:102775008315811581D002D003EDC42354E0CCC468
:1027850023CC6CCC54E0CC6CFDEC2402FCED348401
:10279500FD74202AFAE43BFBC005C0047420C0E0A8
:1027A500E4C0E08A828B83122AF1AA82AB83158169
:1027B5001581D004D005EA2CFCEB3DFD8C828D8380
:1027C500E06007908C0AE02401F0908C06E024017B
:1027D500F0A3E03400F002272A908C08E02401F0F1
:1027E500A3E03400F00226ECEFC42354E0CEC4236A
:1027F500CE6ECE54E0CE6EFFEE2402FEEF3484FFA3
:10280500908C02E0FCA3E0FDEC2EFEED3FFF8E82F6
:102815008F83E06006908C0AE014F0908C04E0FE53
:10282500A3E0C42354E0CEC423CE6ECE54E0CE6ED6
:10283500FFEE2402FCEF3488FD908C02E0FAA3E061
:10284500FBEA2CFCEB3DFD908C0AA81008E0F6A8ED
:102855001008B60302801FA81008B60215EE240260
:10286500FEEF3484FFEA2EFAEB3FFB8A828B83E08E
:102875007004C2008002D200A200E4338C828D83F2
:10288500F0908C02E02401F0A3E03400F0908C027B
:10289500E0FEA3E0FFC3EE9420EF64809480500334
:1028A5000226D2908C04E02401F0A3E03400F090DD
:1028B5008C04E0FEA3E0FFC3EE9420EF64809480D7
:1028C50050030226CB908C04E4F0A3F0908C02E434
:1028D500F0A3F0908C04E0FEA3E0C42354E0CEC442
:1028E50023CE6ECE54E0CE6EFFEE2402FCEF348094
:1028F500FD908C02E0FAA3E0FBEA2CF582EB3DF5B6
:1029050083EE2402FEEF3488FFEA2EFAEB3FFBE06C
:10291500FF8A828B83E0FAEFB502028005908C1462
:10292500E4F0908C04E0FEA3E0C42354E0CEC4237D
:10293500CE6ECE54E0CE6EFFEE2402FCEF3484FD65
:10294500908C02E0FAA3E0FBEA2CF582EB3DF583DF
:10295500EE2402FEEF3488FFEA2EFAEB3FFBE0FFA0
:102965008A828B83E0FAEFB502028005908C13E42E
:10297500F0908C04E0FEA3E0C42354E0CEC423CE43
:102985006ECE54E0CE6EFFEE2402FCEF3480FD9057
:102995008C02E0FAA3E0FBEA2CFCEB3DFDEE240201
:1029A500FEEF3484FFEA2EF582EB3FF583E08C825F
:1029B5008D83F0908C04E0FEA3E0C42354E0CEC4E4
:1029C50023CE6ECE54E0CE6EFFEE2402FCEF3484AF
:1029D500FD908C02E0FAA3E0FBEA2CFCEB3DFDEE5A
:1029E5002402FEEF3488FFEA2EF582EB3FF583E003
:1029F5008C828D83F0908C02E02401F0A3E03400FA
:102A0500F0908C02E0FEA3E0FFC3EE9420EF64801B
:102A1500948050030228D8908C04E02401F0A3E0B0
:102A25003400F0908C04E0FEA3E0FFC3EE9420EFA9
:102A35006480948050030228D1908C13E070099033
:102A45008C14E070030224067D227E2C7F808D820B
:102A55008E838FF0122AD5FC60107B008C828B83CD
:102A65001220750DBD00E70E80E412207A908001DA
:102A7500E060257D297E2C7F808D828E838FF012EC
:102A85002AD5FC60107B008C828B831220750DBDCE
:102A950000E70E80E412207A908000E070030220A7
:102AA500C3C2AF7D317E2C7F808D828E838FF012E5
:102AB5002AD5FC60107B008C828B831220750DBD9E
:102AC50000E70E80E412207A0200001581D0102262
:102BE2003031323334353637383961626364656681
:102BF2001B5B324A1B5B6D000D0A005B5D002323E9
:102C0200003E0D0A001B5B324A1B5B6D494E495464
:102C12000D0A004C4F41440D0A005244590D0A005E
:102C2200444F4E450D0A00425245414B0D0A005495
:062C320045524D0D0A00A1
:06204800E478FFF6D8FD6C
:102026007900E94400601B7A00902C38781975A075
:102036008CE493F2A308B8000205A0D9F4DAF2758D
:02204600A0FFF9
:10204E007800E84400600A790075A080E4F309D8AE
:10205E00FC7819E8440C600C790D908000E4F0A334
:04206E00D8FCD9FAC7
:0D201900758120122BDEE582600302201687
:102AD50020F71430F6148883A88220F507E6A8832A
:102AE50075830022E280F7E49322E022C0108581FD
:102AF50010AE82E583FF33E433FD6009C3E49EFB3A
:102B0500E49FFC80048E038F04E51024FCF808E69E
:102B150030E70FE51024FCF8C3E496FE08E496FFC1
:102B2500800AE51024FCF88606088607C005C0065D
:102B3500C0078B828C83122B5FAE82AF8315811504
:102B450081D005ED600DC3E49EFCE49FFD8C828D74
:102B55008380048E828F83D01022C010858110AEB1
:102B650082AF837D007C00E51024FCF808E6235441
:102B750001FB702FE51024FCF8E626F608E633F68F
:102B8500E51024FCF8C3EE96EF08965011E51024E5
:102B9500FCF808E618C313C613C608F680050C8CA6
:102BA5000580C4E51024FCF8C3EE96EF0896400DA9
:102BB500E51024FCF8EEC396FEEF0896FFE5102419
:102BC500FCF808E618C313C613C608F68D041DECF9
:0D2BD50070D18E828F83D010227582002275
:00000001FF
