:042000000220113277
:03200B0002347626
:03206A0002200E43
:03200E0002206D40
:10206D00123465908003740CF07494A3F0E4A3F023
:10207D009080007432F07494A3F0E4A3F090943245
:10208D00740CF07494A3F0E4A3F0908000E0FDA331
:10209D00E0FEA3E0FF74032DFDE43EFE8D828E83F2
:1020AD008FF0E412374F908000E0FDA3E0FEA3E037
:1020BD00FF74042DFDE43EFE8D828E838FF074023D
:1020CD0012374F908000E0FDA3E0FEA3E0FF740502
:1020DD002DFDE43EFE8D828E838FF0742812374FD6
:1020ED00A3E412374F908000E0FDA3E0FEA3E0FFD4
:1020FD0074072DFDE43EFE9094CE740DF07448A34C
:10210D00F07480A3F08D828E838FF01234E490945E
:10211D00CE742CF07448A3F07480A3F090945F7586
:10212D00F0001234E490839E740AF0E4A3F0744B33
:10213D00C0E07448C0E07480C0E01239AF1581155D
:10214D00811581744EC0E07448C0E07480C0E01207
:10215D0039AF158115811581744BC0E07448C0E00D
:10216D007480C0E01239AF158115811581909527C6
:10217D00E0F5F0A3E045F0602C747FC0E07448C03A
:10218D00E07480C0E01239AF158115811581744B53
:10219D00C0E07448C0E07480C0E01239AF158115FD
:1021AD00811581802A74ACC0E07448C0E07480C091
:1021BD00E01239AF158115811581744BC0E074485B
:1021CD00C0E07480C0E01239AF158115811581749E
:1021DD00DCC0E07448C0E07480C0E01239AF1581F6
:1021ED0015811581744BC0E07448C0E07480C0E067
:1021FD001239AF1581158115817420C0E0744EC060
:10220D00E07413C0E07449C0E07480C0E01239AFCF
:10221D00E58124FBF5811234B3AC82AD83AEF0FFC2
:10222D009093F8ECF0EDA3F0EEA3F0EFA3F07E01A8
:10223D007F00C374209E74CE8FF063F08095F050B4
:10224D00030224B7C007C00612303C12301E909412
:10225D00587402F0E4A3F090945A7403F0E4A3F0E0
:10226D009094CE7441F07449A3F07480A3F09094CF
:10227D007E75F0001234E490945E7401F09094BE7B
:10228D00747EF07494A3F0E4A3F090945FF5F012D3
:10229D00332CAC82AD83D006D007EC4DB40100E4F5
:1022AD0033FD908008F0ED3395E0A3F0909458E065
:1022BD00FCA3E0FDC3EC9403ED6480948050679023
:1022CD0094DDECF0EDA3F0900005C007C006C0054D
:1022DD00C00412376AE5828583F0D004D00524FD51
:1022ED00FAE5F034FFFB90945CEAF0EBA3F09094E8
:1022FD00AB7403F0E4A3F09094AD745CF07494A30C
:10230D00F0E4A3F08C828D83C005C0041230F4D0AC
:10231D0004D005D006D0070CBC00010D909458ECEC
:10232D00F0EDA3F0808E909458ECF0EDA3F0909426
:10233D005CE0FAA3E0FB9094B27470F07480A3F0AB
:10234D00E4A3F09094B5ECF0EDA3F09094B7EAF01F
:10235D00EBA3F090800C75F000C007C0061231366B
:10236D00908000E0FBA3E0FCA3E0FD8B828C838DCD
:10237D00F0122D07D006D0078E048F057B4190807B
:10238D000BE0C39B407B9094BC7443F08B82C007E1
:10239D00C006C005C004C00312330CAA82D003D0FE
:1023AD0004D005D006D00790945EE0F9B5024E90AA
:1023BD0094A7745EF07494A3F0E4A3F0758200C04A
:1023CD0007C006C005C004C00312304A9094CE74F5
:1023DD0060F07449A3F07480A3F090947E75F000C2
:1023ED001234E4D003D004D005D006D00790945A0F
:1023FD00ECF0EDA3F0908006ECF0EDA3F00B0223D2
:10240D008B909458E0FCA3E0FD90945AE0FAA3E081
:10241D00FB9094DDECF0EDA3F08A828B83C007C0B6
:10242D000612376AE5828583F090945AF0E5F0A3A1
:10243D00F090945CE0FCA3E0FD90945AE0FAA3E0E8
:10244D00FB9094E5ECF0EDA3F08A828B83C005C080
:10245D0004C003C002123813A882A983D002D0038E
:10246D00D004D005909458E8F0E9A3F09094DDEAFB
:10247D00C39CF0EB9DA3F0900007C001C000123784
:10248D006AE5828583F0D000D00190945AC398F00C
:10249D00E5F099A3F090945875F000122F29D0060D
:1024AD00D0070EBE00010F02223F1234B3AC82AD35
:1024BD0083AEF0FF9093FCECF0EDA3F0EEA3F0EF04
:1024CD00A3F0747FC0E07449C0E07480C0E012399D
:1024DD00AF158115811581744BC0E07448C0E0744F
:1024ED0080C0E01239AF1581158115817490C0E05F
:1024FD007449C0E07480C0E01239AF1581158115A3
:10250D0081744BC0E07448C0E07480C0E01239AFF4
:10251D00158115811581908006E0C0E0A3E0C0E033
:10252D0074C7C0E07449C0E07480C0E01239AFE5F3
:10253D008124FBF5817405C0E0E4C0E074E1C0E0E6
:10254D007449C0E07480C0E01239AFE58124FBF519
:10255D0081908008E0C0E0A3E0C0E074FBC0E074AF
:10256D0049C0E07480C0E01239AFE58124FBF581EC
:10257D007401C0E0E4C0E074E1C0E07449C0E074EF
:10258D0080C0E01239AFE58124FBF58190800AE02F
:10259D00FF7E00C007C0067415C0E0744AC0E07429
:1025AD0080C0E01239AFE58124FBF5817441C0E0B4
:1025BD00E4C0E0742FC0E0744AC0E07480C0E01243
:1025CD0039AFE58124FBF58190800BE0FF7E00C0E3
:1025DD0007C0067449C0E0744AC0E07480C0E012C0
:1025ED0039AFE58124FBF5817442C0E0E4C0E074AD
:1025FD002FC0E0744AC0E07480C0E01239AFE581AD
:10260D0024FBF58190801CE0FEA3E0FFC006C0070F
:10261D007463C0E0744AC0E07480C0E01239AFE565
:10262D008124FBF5817407C0E0E4C0E074E1C0E0F3
:10263D007449C0E07480C0E01239AFE58124FBF528
:10264D008190839EE0FEA3E0FFC006C007747DC0AD
:10265D00E0744AC0E07480C0E01239AFE58124FB1C
:10266D00F5817497C0E0744AC0E07480C0E01239FF
:10267D00AF15811581158174C2C0E0744AC0E07434
:10268D0080C0E01239AF158115811581908000E071
:10269D00FDA3E0FEA3E0FF8D828E838FF0124494A4
:1026AD00FDA3124494FEC005C00674CFC0E0744A69
:1026BD00C0E07480C0E01239AFE58124FBF5817470
:1026CD00E9C0E0744AC0E07480C0E01239AF1581F2
:1026DD0015811581908000E0FDA3E0FEA3E0FF745D
:1026ED00032DFDE43EFE8D828E838FF0124494FD0A
:1026FD007F00C005C007741BC0E0744BC0E0748040
:10270D00C0E01239AFE58124FBF581E4C0E0C0E003
:10271D0074E1C0E07449C0E07480C0E01239AFE5E7
:10272D008124FBF581908000E0FDA3E0FEA3E0FF96
:10273D0074042DFDE43EFE8D828E838FF012449441
:10274D00FD7F00C005C0077435C0E0744BC0E07458
:10275D0080C0E01239AFE58124FBF5817402C0E041
:10276D00E4C0E074E1C0E07449C0E07480C0E012E0
:10277D0039AFE58124FBF581908000E0FDA3E0FEFB
:10278D00A3E0FF74052DFDE43EFE8D828E838FF058
:10279D00124494FDA3124494FEC005C006744FC0AC
:1027AD00E0744BC0E07480C0E01239AFE58124FBCA
:1027BD00F5817411C0E0E4C0E074E1C0E07449C07B
:1027CD00E07480C0E01239AFE58124FBF581908083
:1027DD0000E0FDA3E0FEA3E0FF74072DFDE43EFE47
:1027ED00C005C006C0077469C0E0744BC0E07480BA
:1027FD00C0E01239AFE58124FAF5817483C0E0742D
:10280D004BC0E07480C0E01239AF15811581158180
:10281D0074B9C0E0744BC0E07480C0E01239AF15DC
:10282D008115811581908003E0FDA3E0FEA3E0FFFB
:10283D008D828E838FF0124494FDA3124494FEC0BA
:10284D0005C00674CFC0E0744AC0E07480C0E012C9
:10285D0039AFE58124FBF58174CBC0E0744BC0E04A
:10286D007480C0E01239AF158115811581908003F8
:10287D00E0FDA3E0FEA3E0FF74032DFDE43EFE8D1D
:10288D00828E838FF0124494FD7F00C005C00774C3
:10289D001BC0E0744BC0E07480C0E01239AFE5811D
:1028AD0024FBF581E4C0E0C0E074E1C0E07449C0F0
:1028BD00E07480C0E01239AFE58124FBF581908092
:1028CD0003E0FDA3E0FEA3E0FF74042DFDE43EFE56
:1028DD008D828E838FF0124494FD7F00C005C0075A
:1028ED007435C0E0744BC0E07480C0E01239AFE5C0
:1028FD008124FBF5817401C0E0E4C0E074E1C0E027
:10290D007449C0E07480C0E01239AFE58124FBF555
:10291D0081908003E0FDA3E0FEA3E0FF74052DFD93
:10292D00E43EFE8D828E838FF0124494FDA31244FB
:10293D0094FEC005C006744FC0E0744BC0E07480B7
:10294D00C0E01239AFE58124FBF5817412C0E0E4DB
:10295D00C0E074E1C0E07449C0E07480C0E0123999
:10296D00AFE58124FBF581908003E0FDA3E0FEA39C
:10297D00E0FF74072DFDE43EFEC005C006C00774E0
:10298D0069C0E0744BC0E07480C0E01239AFE581DE
:10299D0024FAF5817483C0E0744BC0E07480C0E00C
:1029AD001239AF158115811581909458E0C0E0A3BF
:1029BD00E0C0E0740CC0E0744CC0E07480C0E01264
:1029CD0039AFE58124FBF5817405C0E0E4C0E07406
:1029DD00E1C0E07449C0E07480C0E01239AFE58118
:1029ED0024FBF58190945AE0C0E0A3E0C0E074268A
:1029FD00C0E0744CC0E07480C0E01239AFE58124B2
:102A0D00FBF581740DC0E0E4C0E074E1C0E07449F1
:102A1D00C0E07480C0E01239AFE58124FBF58190F0
:102A2D00945CE0C0E0A3E0C0E07440C0E0744CC032
:102A3D00E07480C0E01239AFE58124FBF5817407A5
:102A4D00C0E0E4C0E074E1C0E07449C0E07480C04F
:102A5D00E01239AFE58124FBF58190945EE0FF7EB5
:102A6D0000C007C006745AC0E0744CC0E07480C04A
:102A7D00E01239AFE58124FBF5817401C0E0E4C0BB
:102A8D00E074E1C0E07449C0E07480C0E01239AF79
:102A9D00E58124FBF581745FC0E07494C0E0E4C06F
:102AAD00E07474C0E0744CC0E07480C0E01239AFC3
:102ABD00E58124FAF581748EC0E0744CC0E0748019
:102ACD00C0E01239AF158115811581747EC0E07497
:102ADD0094C0E0E4C0E074C4C0E0744CC0E0748005
:102AED00C0E01239AFE58124FAF58174DEC0E074DF
:102AFD004CC0E07480C0E01239AF1581158115818D
:102B0D00744BC0E07448C0E07480C0E01239AF155A
:102B1D0081158115819093F8E0FCA3E0FDA3E0FE03
:102B2D00A3E0FF9093FCE0F8A3E0F9A3E0FAA3E0A3
:102B3D00FBE8C39CFCE99DFDEA9EFEEB9FFF909494
:102B4D0000ECF0EDA3F0EEA3F0EFA3F0C3EC94D006
:102B5D00ED9407EE9400EF6480948050427414C09D
:102B6D00E0744DC0E07480C0E01239AF158115815D
:102B7D001581744BC0E0744DC0E07480C0E0123913
:102B8D00AF158115811581744BC0E07448C0E07498
:102B9D0080C0E01239AF158115811581022D038C8E
:102BAD00828D838EF0EF1236B5AC82AD83AEF0FF21
:102BBD00C007C006C005C004C004C005C006C007DC
:102BCD0090240075F074744912353DA882A983AA2A
:102BDD00F0FBE58124FCF5817480C0E07496C0E0C3
:102BED007498C0E0744BC0E0888289838AF0EB1240
:102BFD0043D1A882A983AAF0FBE58124FCF581D0FD
:102C0D0004D005D006D007909404E8F0E9A3F0EACB
:102C1D00A3F0EBA3F0C004C005C006C007909680DA
:102C2D0075F098744B1243D1AC82AD83AEF0FFE5D5
:102C3D008124FCF581909408ECF0EDA3F0EEA3F067
:102C4D00EFA3F0746CC0E0744DC0E07480C0E0126E
:102C5D0039AF158115811581909404E0FCA3E0FD39
:102C6D00A3E0FEA3E08C828D838EF01236E2AC825F
:102C7D00AD83AEF0FFC004C005C006C0077499C097
:102C8D00E0744DC0E07480C0E01239AFE58124F9E5
:102C9D00F58174A0C0E0744DC0E07480C0E01239BD
:102CAD00AF158115811581909408E0FCA3E0FDA37B
:102CBD00E0FEA3E08C828D838EF01236E2AC82AD05
:102CCD0083AEF0FFC004C005C006C0077499C0E014
:102CDD00744DC0E07480C0E01239AFE58124F9F580
:102CED0081744BC0E07448C0E07480C0E01239AF0D
:102CFD0015811581158143870222AFF0AE83E582E0
:102D0D0090949DF0EEA3F0EFA3F090949DE0F5105C
:102D1D00A3E0F511A3E0F5128510828511838512CC
:102D2D00F0124494FAA3124494FBA3124494FC8A27
:102D3D00008B018C07881389148F15908000E0FD9E
:102D4D00A3E0FEA3E0FF9094D4EDF0EEA3F0EFA38B
:102D5D00F09094D77426F0E4A3F085138285148344
:102D6D008515F0C004C003C00212360ED002D00388
:102D7D00D00474042510F513E43511F514851215DE
:102D8D0074052510F516E43511F5178512188516FD
:102D9D00828517838518F0740512374FA3E4123717
:102DAD004F74042AFDE43BFE8C070DBD00010E851A
:102DBD0016828517838518F0124494F8A312449453
:102DCD00F98D828E838FF0E812374FA3E912374FBA
:102DDD008510828511838512F0124494FDA312444F
:102DED0094FEA3124494FF8A828B838CF0ED1237EC
:102DFD004FA3EE12374FA3EF12374F8A828B838C7E
:102E0D00F0C004C003C002122F91D002D003D00431
:102E1D0074032AFDE43BFE8C078D828E838FF012A6
:102E2D0044946003022EEF74042AF516E43BF51763
:102E3D008C1874012516F8E43517F9AF18888289B6
:102E4D00838FF0740612374FA3E412374F85138228
:102E5D008514838515F0124494FF9094A7E516F020
:102E6D00E517A3F0E518A3F08F82C004C003C002DC
:102E7D0012304AD002D003D004908000E0FDA3E0D0
:102E8D00FEA3E0FF8D828E838FF0124494FDA3127A
:102E9D004494FEA3124494FF8A828B838CF0ED122E
:102EAD00374FA3EE12374FA3EF12374F74042AFAA0
:102EBD00E43BFB0ABA00010B8A828B838CF012442F
:102ECD0094FEA3124494FF9094AB740AF0E4A3F023
:102EDD009094ADEAF0EBA3F0ECA3F08E828F830219
:102EED0030F4AD10AE11AF128510828511838512AD
:102EFD00F0124494FAA3124494FBA3124494FC9050
:102F0D0094D4EAF0EBA3F0ECA3F09094D77426F0F0
:102F1D00E4A3F08D828E838FF002360EAFF0AE8378
:102F2D00E5829094A0F0EEA3F0EFA3F09094A0E0D2
:102F3D00FDA3E0FEA3E0FF8D828E838FF0124494FB
:102F4D00FBA3124494FC740A2BFBE43CFC90800A16
:102F5D00E0FABA41281BBBFF011C908006E0F9A3E3
:102F6D00E0FAEBC399F9EC9AFA8D828E838FF0E932
:102F7D0012374FA3EA12374F9094A3E4F09094A325
:102F8D00E070CA22AFF0AE83E5829094A4F0EEA378
:102F9D00F0EFA3F0908000E0FDA3E0FEA3E0FF9032
:102FAD008000E0F5F0A3E045F060339094A4E0FAE2
:102FBD00A3E0FBA3E0FC8D828E838FF0124494FD81
:102FCD00A3124494FEA3124494FF8A828B838CF047
:102FDD00ED12374FA3EE12374FA3EF12374F9080FC
:102FED0006E0FEA3E0FF908000E0FBA3E0FCA3E081
:102FFD00FD74052BFBE43CFC9094ABEEF0EFA3F0DD
:10300D009094ADEBF0ECA3F0EDA3F090000A02303C
:10301D00F490800AE0FFE4BF410104FF7E00908040
:10302D0008E04FF0A3E04EF090800B7442F0229038
:0D303D00800A7441F0908008E4F0A3F022B6
:10480D004448525953544F4E452050524F475241F0
:10481D004D2C20534F4D4520535452494E47004483
:10482D0048525953544F4E452050524F4752414DC7
:10483D002C203127535420535452494E47000D0A12
:10484D00004468727973746F6E652042656E63689B
:10485D006D61726B2C2056657273696F6E20322EEE
:10486D003120284C616E67756167653A2043290DCB
:10487D000A0050726F6772616D20636F6D70696CA5
:10488D00656420776974682027726567697374653C
:10489D007227206174747269627574650D0A005017
:1048AD00726F6772616D20636F6D70696C656420E6
:1048BD00776974686F75742027726567697374659D
:1048CD007227206174747269627574650D0A0050E7
:1048DD006C65617365206769766520746865206E07
:1048ED00756D626572206F662072756E73207468C7
:1048FD00726F756768207468652062656E63686D98
:10490D0061726B3A2000457865637574696F6E202E
:10491D007374617274732C2025642072756E73200C
:10492D007468726F756768204468727973746F6EFE
:10493D00650D0A004448525953544F4E452050526C
:10494D004F4752414D2C2032274E4420535452494B
:10495D004E47004448525953544F4E452050524FE4
:10496D004752414D2C203327524420535452494E27
:10497D004700457865637574696F6E20656E647365
:10498D000D0A0046696E616C2076616C7565732049
:10499D006F6620746865207661726961626C6573FB
:1049AD00207573656420696E207468652062656E7C
:1049BD0063686D61726B3A0D0A00496E745F476CE6
:1049CD006F623A202020202020202020202020252A
:1049DD00640D0A00202020202020202073686F7590
:1049ED006C642062653A20202025640D0A00426F18
:1049FD006F6C5F476C6F623A2020202020202020B2
:104A0D0020202025640D0A0043685F315F476C6FDD
:104A1D00623A202020202020202020202025630DF8
:104A2D000A00202020202020202073686F756C64E0
:104A3D002062653A20202025630D0A0043685F320D
:104A4D005F476C6F623A20202020202020202020FC
:104A5D002025630D0A004172725F315F476C6F62F2
:104A6D005B385D3A2020202020202025640D0A008F
:104A7D004172725F325F476C6F625B385D5B375DB1
:104A8D003A2020202025640D0A00202020202020FF
:104A9D00202073686F756C642062653A2020204E6B
:104AAD00756D6265725F4F665F52756E73202B2058
:104ABD0031300D0A005074725F476C6F622D3E0DE0
:104ACD000A0020205074725F436F6D703A202020D1
:104ADD002020202020202025640D0A0020202020C9
:104AED002020202073686F756C642062653A202049
:104AFD002028696D706C656D656E746174696F6E7B
:104B0D002D646570656E64656E74290D0A00202034
:104B1D0044697363723A2020202020202020202019
:104B2D0020202025640D0A002020456E756D5F4301
:104B3D006F6D703A20202020202020202025640D2C
:104B4D000A002020496E745F436F6D703A2020205B
:104B5D002020202020202025640D0A0020205374C1
:104B6D00725F436F6D703A2020202020202020207E
:104B7D002025730D0A00202020202020202073687E
:104B8D006F756C642062653A202020444852595359
:104B9D00544F4E452050524F4752414D2C20534FAC
:104BAD004D4520535452494E470D0A004E657874B9
:104BBD005F5074725F476C6F622D3E0D0A002020AE
:104BCD0020202020202073686F756C642062653A68
:104BDD0020202028696D706C656D656E7461746937
:104BED006F6E2D646570656E64656E74292C20730F
:104BFD00616D652061732061626F76650D0A0049F4
:104C0D006E745F315F4C6F633A202020202020208E
:104C1D002020202025640D0A00496E745F325F4C00
:104C2D006F633A2020202020202020202020256482
:104C3D000D0A00496E745F335F4C6F633A2020207C
:104C4D00202020202020202025640D0A00456E758F
:104C5D006D5F4C6F633A20202020202020202020E3
:104C6D00202025640D0A005374725F315F4C6F6311
:104C7D003A202020202020202020202025730D0ADE
:104C8D0000202020202020202073686F756C642068
:104C9D0062653A2020204448525953544F4E4520C6
:104CAD0050524F4752414D2C2031275354205354CD
:104CBD0052494E470D0A005374725F325F4C6F6359
:104CCD003A202020202020202020202025730D0A8E
:104CDD0000202020202020202073686F756C642018
:104CED0062653A2020204448525953544F4E452076
:104CFD0050524F4752414D2C2032274E4420535491
:104D0D0052494E470D0A004D6561737572656420F9
:104D1D0074696D6520746F6F20736D616C6C207498
:104D2D006F206F627461696E206D65616E696E676B
:104D3D0066756C20726573756C74730D0A00506C1A
:104D4D006561736520696E637265617365206E754B
:104D5D006D626572206F662072756E730D0A004D5F
:104D6D006963726F7365636F6E647320666F722013
:104D7D006F6E652072756E207468726F756768202E
:104D8D004468727973746F6E653A2000256C6420E7
:104D9D000D0A004468727973746F6E6573207065C7
:104DAD0072205365636F6E643A20202020202020EE
:104DBD002020202020202020202020202020200006
:024DE8000100C8
:10304A00E5829094AAF09094A7E0FDA3E0FEA3E0A5
:10305A00FF9094AAE0FC8D828E838FF012374F8CFA
:10306A0082C007C006C005123452E5828583F0D0BB
:10307A0005D006D00745F0700B8D828E838FF074D1
:10308A000312374F9094AAE0FC24FB405CEC2C908E
:10309A00309D7380088010803A804E80418D828EE8
:1030AA00838FF0E402374F908006E0FBA3E0FCC375
:1030BA0074649B74808CF063F08095F0500A8D8262
:1030CA008E838FF0E402374F8D828E838FF07403E4
:1030DA0002374F8D828E838FF0740102374F8D82B3
:1030EA008E838FF0740202374F22AF83E582909469
:1030FA00B0F0EFA3F09094B0E0FEA3E0FF74022ECC
:10310A00FEE43FFF9094ADE0FBA3E0FCA3E0FD905A
:10311A0094ABE0F9A3E0FAEE29FEEF3AFF8B828C3A
:10312A00838DF0EE12374FA3EF02374FAFF0AE8325
:10313A00E5829094B9F0EEA3F0EFA3F09094B5E095
:10314A00FEA3E0FF74052EFCE43FFD9094B9E0F580
:10315A001BA3E0F51CA3E0F51DEC2CF519ED33F5E6
:10316A001AE519251BF51EE51A351CF51F851D20C4
:10317A009094B7E0F521A3E0F522851E82851F838E
:10318A008520F0E52112374FA3E52212374F740646
:10319A002EF8E43FFAE828F8EA33FAE8251BF8EAB9
:1031AA00351CFAAB1D88828A838BF0E52112374FD2
:1031BA00A3E52212374F74232EFAE43FFBEA2AFAD8
:1031CA00EB33FBEA251BFAEB351CF9AB1D8A828926
:1031DA00838BF0EC12374FA3ED12374F9094B2E085
:1031EA00F525A3E0F526A3E0F5279094DDECF0EDB4
:1031FA00A3F0900064C007C006C005C00412376A75
:10320A00858221858322D004D005D006D007E52106
:10321A002525F51EE5223526F51F85272074062E5D
:10322A00F51BE43FF51C8C238D24C3E51B9523E590
:10323A001C64808524F063F08095F0402CE52325FA
:10324A0023F8E52433FBE8251EF8EB351FFBAA20FB
:10325A0088828B838AF0EC12374FA3ED12374F0521
:10326A0023E4B523C5052480C1E5212525F8E522F7
:10327A003526FAAB271CEC2C28F8E43AFA88828A1D
:10328A00838BF0124494FCA3124494FD0CBC0001FD
:10329A000D88828A838BF0EC12374FA3ED12374FD9
:1032AA009094DD74192EF0E43FA3F0900064123775
:1032BA006AAE82AF83EE2525FEEF3526FFAD27E500
:1032CA00192EFEE51A3FFF9094B9E0FAA3E0FBA39A
:1032DA00E0FCE5192AFAE51A3BFB8A828B838CF01B
:1032EA00124494FAA3124494FB8E828F838DF0EADF
:1032FA0012374FA3EB12374F9080067405F0E4A300
:10330A00F022E5829094BDF0E0FF9094BCE0FEEFDD
:10331A00B5060280047582002290800AEFF0758259
:10332A000122AFF0AE83E5829094C1F0EEA3F0EFF4
:10333A00A3F09094C1E0F528A3E0F529A3E0F52ACB
:10334A009094BEE0FAA3E0FBA3E0FC78027900C304
:10335A00740298748089F063F08095F04062E825E1
:10336A0028FDE93529FEAF2A8D828E838FF012441B
:10337A0094FD740128FEE439FFC000C001EE2AFE64
:10338A00EF3BF98C078E8289838FF01244949094D4
:10339A00BCF08D82C004C003C002C001C000123359
:1033AA000CE582D000D001D002D003D004D001D0E5
:1033BA0000709C9094C67441F008B8009209808FFE
:1033CA009094C4E8F0E9A3F09094C6E0FFBF5700D8
:1033DA00400EBF5A0050099094C47407F0E4A3F059
:1033EA009094C6E0FFBF5204900001229094C1E07D
:1033FA00FDA3E0FEA3E0FF9094DFEAF0EBA3F0EC7C
:10340A00A3F08D828E838FF012378AAE82AF83C388
:10341A00E49E74808FF063F08095F050279094C4F6
:10342A00E0FEA3E0FF9094C474072EF0E43FA3F0FB
:10343A009094C4E0FEA3E0FF908006EEF0EFA3F0C4
:10344A009000012290000022E5829094C7F0E0FFEC
:10345A00BF02049000012290000022C28C758CFAEF
:10346A00758A9A75890175A882D28C22C0E0C082B9
:10347A00C083C0D075D008AC2BAD2CAE2DAF2E7446
:10348A00012CF52BE43DF52CE43EF52DE43FF52E19
:10349A009094C87401F0C28C758CFA758A9AD28C91
:1034AA00D0D0D083D082D0E0329094C8E4F0909407
:1034BA00CAE52BF0E52CA3F0E52DA3F0E52EA3F049
:1034CA009094C8E070E39094CAE0FCA3E0FDA3E006
:1034DA00FEA3E08C828D838EF022AFF0AE83E5826C
:1034EA009094D1F0EEA3F0EFA3F09094D1E0FDA375
:1034FA00E0FEA3E0FF9094CEE0FAA3E0FBA3E0FC99
:10350A008D3D8E3E8F3F8A828B838CF0124494F9D4
:10351A00A3AA82AB83853D82853E83853FF0E9126B
:10352A00374FA385823D85833EE970DA8D828E838B
:10353A008FF0221235E0BC0003023933EF60FA3013
:10354A00D502B2D1E583B4FF03023949E582B4FF5B
:10355A0003023949258340072482400B0239332468
:10356A0083145003023949F582EA8DF0A4A8F0EADF
:10357A008EF0A428F8E435F0F9EB8DF0A428E935AB
:10358A00F0F9E433CA8FF0A429F9EA35F0FAEBF836
:10359A008EF0A429F9EA35F0FAE433FBEC8DF0A4B5
:1035AA0029F9EA35F0FAE43BFBE88FF0A42AFAEBB2
:1035BA0035F0FBE433CCFD8EF0A42AFAEB35F0FBB0
:1035CA00E43CFCED8FF0A42BFBEC35F0FC20E70388
:1035DA00123682023912AA82AB83A2F73392D1F54C
:1035EA00826002D2F7ACF0E58124F9F8E6FD08E63C
:1035FA00FE0886F008E6A2F73392D5F5836002D278
:04360A00F7AFF02204
:06204000E478FFF6D8FD74
:10360E00AFF0AE83E5829094D9F0EEA3F0EFA3F085
:10361E009094D9E0F53DA3E0F53EA3E0F53FAA3D39
:10362E00AB3EAC3F9094D4E0F8A3E0F9A3E0FF905A
:10363E0094D7E0F540A3E0F541AD40AE411540749E
:10364E00FFB540021541ED4E6020888289838FF0D0
:10365E00124494FEA3A882A9838A828B838CF0EEF7
:10366E0012374FA3AA82AB8380CF853D82853E83DE
:10367E00853FF0227804EC7011E58224F8500AF5AB
:10368E0082E4C9CACBFCD8EF22EC7820058220E771
:10369E0013D5820122C3E933F9EA33FAEB33FBEC9B
:1036AE0033FCD8EA158222FCABF0AA83A982749E61
:1036BE00F582C2D1EC30E716D2D1E9F42401F9EA51
:1036CE00F43400FAEBF43400FBECF43400FC123664
:1036DE008202391212373DC3749E958240397900A9
:1036EE001244B030D126E9F42401F582EAF4340014
:1036FE00F583EBF43400F5F0ECF43400700AE58257
:10370E00458345F0700122E430E70F22EC20E714E8
:10371E0089828A838BF02230D10AE4F582F583F513
:0F372E00F074802274FFF582F583F5F0747F222A
:10201E007902E94400601B7A01904DE8782775A09B
:10202E0095E493F2A308B8000205A0D9F4DAF2758C
:02203E00A0FF01
:10373D00AA82AB83A2F73392D1F5826002D2F7ACA5
:10374D00F02220F71130F6138883A88220F509F6B0
:10375D00A8837583002280FEF280F5F022AA83AB48
:10376D00828BF09094DDE0A4F8A9F08AF0E0A42912
:10377D00F98BF0A3E0A429F58388822222AFF0AE65
:10378D0083E5829094E2F0EEA3F0EFA3F09094E243
:10379D00E0FDA3E0FEA3E0FF9094DFE0FAA3E0FBE1
:1037AD00A3E0FC8D828E838FF0124494F879008A09
:1037BD00828B838CF0124494F53DC002C003C0048B
:1037CD00AB3D7C00E8C39BF8E99CF9883E893FD06E
:1037DD0004D003D002E849701BE53D60170DBD0014
:1037ED00010E9094E2EDF0EEA3F0EFA3F00ABA0013
:1037FD00B20B80AF9094E2EDF0EEA3F0EFA3F08565
:06380D003E82853F83228C
:102046007800E84400600A790075A080E4F309D8B6
:10205600FC7827E84415600C7916908000E4F0A31C
:04206600D8FCD9FACF
:10381300AF83E5829094E7F0EFA3F09094E7E0FEA6
:10382300A3E0FF30E709C3E49EFCE49FFD80048E20
:10383300048F059094E5E0FEA3E0FF33E433FB60DF
:1038430009C3E49EF9E49FFA80048E018F029094E9
:10385300E9E9F0EAA3F08C828D83C003123885AEC8
:1038630082AF83D0039094E7E0A3E033E4336B604B
:103873000CC3E49EFCE49FFD8C828D83228E828F99
:103883008322AF83E5829094EBF0EFA3F09094ED65
:10389300E4F0A3F09094E9E0FEA3E0FF7D109094A0
:1038A300EBE0FBA3E0FC9094EF235401F0EB2BFB44
:1038B300EC33FC9094EBEBF0ECA3F09094EDE0FB95
:1038C300A3E0FCEB2BFBEC33FC9094EDEBF0ECA3CF
:1038D300F09094EFE060089094EDE043E001F09005
:1038E30094EDE0FBA3E0FCC3EB9EEC9F40139094AC
:1038F300EDEBC39EF0EC9FA3F09094EBE043E0016B
:10390300F0DD9B9094EBE0FEA3E08E82F58322B979
:103913008003EA13B34010EA2401FAE43BFBE43CDE
:10392300FC50047C800582BC000EBB000BBA00086F
:10393300E4F5F0F583F58222A2D1E582138CF092AF
:10394300F78B838A8222E4F583F58275F080F4A2F3
:10395300D11322E4F583F58275F0C0747F22C03C55
:1039630085813C7E008E831244F7D03C22AFF0AEBB
:1039730083E5829094F1F0EEA3F0EFA3F09094F13D
:10398300E0FDA3E0FEA3E0FF9094F0E0FC9095053A
:10399300E4F0A3F0A3F0909508EDF0EEA3F0EFA30D
:1039A300F090950BECF0903961023AB8C03CE58198
:1039B300F53C24FBFF909505E4F0A3F0A3F0E53C70
:1039C30024FBF8909508E6F008E6A3F008E6A3F0D8
:1039D30090950BEFF0903961123AB8D03C22E58212
:1039E300909501F0E0FF9094F7E0C0E0A3E0C0E021
:1039F300A3E0C0E01239FC800D9094F5E0C0E0A391
:103A0300E0C0E08F82221581158115819094FFE03B
:103A13002401F0A3E03400F022E582909502F0E067
:103A23002430FF24C6500D74072FFF9094F4E060F8
:103A3300034307208F820239E1E582909503F0E08A
:103A4300FFC4540FF582C007123A1CD00753070F67
:103A53008F82023A1CE582909504F09094FAE0FC80
:103A6300A3E0FDA3E0FEA3E0FF9094FEE0FB753D21
:103A730020909504E0F98B00E828F8EF23540148DF
:103A8300FBEC2CFCED33FDEE33FEEF33FFC3EB9980
:103A93004007EBC399FB430401E53D14FA8A3D70EB
:103AA300D59094FAECF0EDA3F0EEA3F0EFA3F09031
:103AB30094FEEBF022AF83E58290950CF0EFA3F038
:103AC30090950CE0FEA3E0FF9094F5EEF0EFA3F0E9
:103AD300909505E0FDA3E0FEA3E0FF9094F7EDF0E1
:103AE300EEA3F0EFA3F09094FFE4F0A3F090950819
:103AF300E0FDA3E0FEA3E0FF8D828E838FF01244EE
:103B030094FC90950874012DF0E43EA3F0EFA3F02C
:103B1300EC70030243ADBC250280030243A59095DC
:103B23000EE4F090950FF0909510F0909511F090B1
:103B33009512F0909513F0909514F0909515F090E0
:103B43009517F0909518F0A3F090951A14F0A3F040
:103B5300909508E0FDA3E0FEA3E0FF8D828E838FA6
:103B6300F0124494FBA3AD82AE83909508EDF0EE82
:103B7300A3F0EFA3F090951EEBF0BB25088B821208
:103B830039E1023AF0BB30005003023C51EB24C64A
:103B93005003023C5190951AE0F532A3E0F53374DB
:103BA300FFB53263B53360C005C006C007909518F2
:103BB300E0FAA3E0FF9094DDEAF0EFA3F090000AAF
:103BC300C005C00312376AAE82AF83D003D0058B22
:103BD300027D00EA2EFEED3FFFEE24D0FEEF34FF20
:103BE300FF909518EEF0EFA3F0D007D006D0059024
:103BF3009518E0F5F0A3E045F06003023B5E909575
:103C03000F7401F0023B5EC005C006C0079094DD4F
:103C1300E532F0E533A3F090000AC006C005C00307
:103C230012376AAA82AF83D003D005D0067E00EB99
:103C33002AFAEE3FFFEA24D0FAEF34FFFF90951AF9
:103C4300EAF0EFA3F0D007D006D005023B5E9095D3
:103C53001EE0FBBB2E2FC005C006C00790951AE0DF
:103C6300FAA3E0FFBAFF05BFFF028009D007D00621
:103C7300D005023B5ED007D006D00590951AE4F03C
:103C8300A3F0023B5EBB61004014EB2485400F9020
:103C9300951E74DF5BF09094F47401F080059094AA
:103CA300F4E4F090951EE0FBBB20028075BB2B0271
:103CB3008067BB2D028059BB4202806FBB430280E9
:103CC3007CBB4403023F48BB4603023F6EBB480331
:103CD300023B5EBB4903023F48BB4A03023B5EBB58
:103CE3004C028050BB4F03023F56BB5003023EB60B
:103CF300BB53028077BB5403023B5EBB5503023FB9
:103D03005EBB5803023F66BB5A03023B5E023F762B
:103D130090950E7401F0023B5E9095107401F002D1
:103D23003B5E9095117401F0023B5E909513740114
:103D3300F0023B5E9095147401F0023B5E90951384
:103D4300E0600E90950BE014F9F090951EE7F0807B
:103D53000F90950BE024FEFFF08F0190951EE7F086
:103D630090951EE0F5821239E1023F8590950BE0B4
:103D730024FDFFF08F0187050987060987071919B5
:103D83009094FAEDF0EEA3F0EFA3F08D828E838F83
:103D9300F01243B985823285833390951AE0FAA3F2
:103DA300E0FDBAFF0DBDFF0A90951AE532F0E53349
:103DB300A3F090950EE0704B909518E0FAA3E0FD08
:103DC300C3E5329AE5339D503A909518EAC395328C
:103DD300F0ED9533A3F0909518E0FAA3E0FD8A0681
:103DE3008D071ABAFF011DEE4F6010758220C005C2
:103DF300C0021239E1D002D00580E3909518EAF0B1
:103E0300EDA3F090951AE0F535A3E0F5369094FA1A
:103E1300E0FAA3E0FDA3E0FF8A828D838FF01244D2
:103E230094F534603CC3E4953574808536F063F0D3
:103E33008095F0502C153574FFB535021536853451
:103E4300821239E19094FAE0FAA3E0FDA3E0FF0ABD
:103E5300BA00010D9094FAEAF0EDA3F0EFA3F0801D
:103E6300AC90950EE07003023F85909518E0FEA399
:103E7300E0FFC3E5329EE5339F4003023F85909503
:103E830018EEC39532F0EF9533A3F0909518E0FE4A
:103E9300A3E0FF8E028F051EBEFF011FEA4D7003D4
:103EA300023F7D758220C007C0061239E1D006D0DB
:103EB3000780E090950BE024FDFDF08D0187370925
:103EC300873809873919199094FAE537F0E538A34B
:103ED300F0E539A3F09094FCE0FDBD80004008902C
:103EE300951E7443F08020BD6000400890951E74B9
:103EF30050F08013BD4000400890951E7449F08037
:103F03000690951E7458F090951EE0FDF582C0054D
:103F13001239E175823A1239E17582301239E1754D
:103F230082781239E1D005BD4902800EBD5002806E
:103F3300099094FBE0F582123A3C9094FAE0F58202
:103F4300123A3C803D9095127401F0909517740AD3
:103F5300F0802F9095177408F08027909517740AB6
:103F6300F0801F9095177410F080179095157401C9
:103F7300F0800F8B821239E18008909518EEF0EFF4
:103F8300A3F0909515E0607190950BE024FCFFF091
:103F93008F018703098705098706098707191919F7
:103FA3009094FAEBF0EDA3F0EEA3F0EFA3F090946E
:103FB300FA74CDF0744DA3F07480A3F09094FAE0FA
:103FC300F537A3E0F538A3E0F53974012537FAE4B2
:103FD3003538FBAF399094FAEAF0EBA3F0EFA3F096
:103FE3008537828538838539F0124494FF70030244
:103FF3003AF08F821239E180C3909517E070030283
:104003003AF0909513E0604790950BE014F9F08730
:10401300077E007D007B009094FAEFF0EEA3F0EDB5
:10402300A3F0EBA3F0909512E060030240C89094D4
:10403300FAE0FBA3E0A3E0A3E07D007E007F009015
:1040430094FAEBF0EDA3F0EEA3F0EFA3F0807690FB
:104053009514E0602890950BE024FCFFF08F018716
:10406300030987050987060987071919199094FA1F
:10407300EBF0EDA3F0EEA3F0EFA3F0804890950BE7
:10408300E024FEFFF08F01870609870719EF3395B8
:10409300E0FDFB9094FAEEF0EFA3F0EDA3F0EBA3B9
:1040A300F0909512E0701E9094FAE0FBA3E0FDA35C
:1040B300E0A3E07E007F009094FAEBF0EDA3F0EE36
:1040C300A3F0EFA3F0909512E060419094FAE0FB27
:1040D300A3E0FDA3E0FEA3E0FF30E72B9094FAE01A
:1040E300FBA3E0FDA3E0FEA3E0FFC3E49BFBE49D91
:1040F300FDE49EFEE49FFF9094FAEBF0EDA3F0EE57
:10410300A3F0EFA3F08005909512E4F09095167458
:1041130001F0909517E0F535753A24753B95E4F574
:1041230032F5339094FEE4F0853582123A58909537
:1041330016E070269094FEE0C4F537853A82853BFD
:1041430083E0FFE5374207853A82853B83EFF0152D
:104153003A74FFB53A02153B800C9094FEE0FF855C
:104163003A82853B83F00532E4B5320205339095FC
:1041730016E0B40100E433F09094FAE0FAA3E0FB14
:10418300A3E0FEA3E0FFEA4B4E4F7097909525E521
:104193003AF0E53BA3F090951CE532F0E533A3F04C
:1041A300909518E0F5F0A3E045F070099095187428
:1041B30001F0E4A3F090950FE0FFE0704790950EB7
:1041C300E0704185323A85333B909518E0FAA3E0DD
:1041D300FBC007AF3A0F8F067F00C3EE9AEF9BD069
:1041E300075019758220C007C003C0021239E1D0FD
:1041F30002D003D0071ABAFF011B80D5909518EAA5
:10420300F0EBA3F0909512E0602075822DC00712A9
:1042130039E1D007909518E024FFFDA3E034FFFEB9
:10422300909518EDF0EEA3F0805690951CE0F5F014
:10423300A3E045F0604A909510E0602075822BC0A2
:10424300071239E1D007909518E024FFFDA3E0346D
:10425300FFFE909518EDF0EEA3F08024909511E009
:10426300601E758220C0071239E1D007909518E0CF
:1042730024FFFDA3E034FFFE909518EDF0EEA3F0CC
:1042830090950EE0704890951CE0F53AA3E0F53B5D
:10429300909518E0FAA3E0FBC0078A068B071ABAC9
:1042A300FF011BC3E53A9EE53B9FD0075053EF60E8
:1042B300067D307E0080047D207E008D82C007C095
:1042C30003C0021239E1D002D003D00780CA90950F
:1042D30018E0FEA3E0FF90951CE0F53AA3E0F53B60
:1042E300C3E53A9EE53B9F500F909518EEC3953A70
:1042F300F0EF953BA3F08011909518E4F0A3F080C4
:1043030008909518EAF0EBA3F0909525E0FEA3E062
:10431300FF90951CE0F53AA3E0F53BAA3AAD3B15B7
:104323003A74FFB53A02153BEA4D6045909516E0A5
:10433300B40100E433F0909516E070140EBE000152
:104343000F8E828F83E0C4540FFD9094FEF0800E95
:104353008E828F83E0FD53050F9094FEEDF09094D1
:10436300FEE0F582C007C006123A1CD006D00780D3
:10437300AA90950EE07003023AF0909518E0FEA320
:10438300E0FF8E038F051EBEFF011FEB4D7003027E
:104393003AF0758220C007C0061239E1D006D00773
:1043A30080E08C821239E1023AF09094FFE0FEA3A0
:0643B300E08E82F583227A
:0B4DCD003C4E4F20464C4F41543E002E
:1043B900AA82AB831244946003A380F8C3E5829A6E
:1043C900F582E5839BF583221235E030D502B2D11F
:1043D900BF0009BC0003023956023949BC00030277
:1043E9003933E583B4FF0BE582B4FF030239560282
:1043F9003933E582B4FF03023949C3958350072451
:104409007F400B0239332480145003023949F58265
:10441900C3ED9AEE9BEF9C40111582C3EA33F9EB89
:1044290033FAEC33FBE433FC8005E4CCCBCAF9C0A6
:104439008275F019C3E99DEA9EEB9FEC9400D5F0D3
:1044490002802D400EE99DF9EA9EFAEB9FFBEC9460
:1044590000FCC3B3E833F8E58233F582E58333F52D
:1044690083C3E933F9EA33FAEB33FBEC33FC80C459
:10447900B3E4F938FAE43582FBE43583FCD08250A1
:0B4489000405827C8012368202392A72
:0D2011007581411244F3E582600302200E48
:1044940020F71430F6148883A88220F507E6A88351
:1044A40075830022E280F7E49322E0226040F8253D
:1044B40082500274FFF582E824F8501ECCCBCAF96E
:1044C400E4CC24F85014CBCAF9E4CB24F8500BCA3A
:1044D400F9E4CA24F8500379002224086010F8C3D0
:1044E400EC13FCEB13FBEA13FAE913F9D8F1227588
:1044F400820022C0E0E58212003CD0E022C0E0123B
:104504000036F582758300D0E022C0E0C0F074FF6D
:10451400F5F0120039400375F000F58285F083D080
:10452400F0D0E022AD82AE83AFF08D828E838FF027
:10453400124494FC60107B008C828B831244F70D30
:10454400BD00E70E80E422AF827E80EE5F60067CD1
:10455400317D0080047C307D008C828D831244F791
:10456400EEC313FE70E522AE82AF837C007D80EC47
:104574005EFAED5F4A60067A317B0080047A307B14
:10458400008A828B831244F7EDC313CC13CCFD4C09
:1045940070DD22C03C85813CC082C083C0F0C0E095
:1045A400E5812404F581E53C2405F8E4F608F608E1
:1045B400F6087680A83C08E53C2405F9E756FC0992
:1045C400E70856FD09E70856FE09E70856FFEC4DD3
:1045D4004E4F60067E317F0080047E307F008E82E5
:1045E4008F831244F7E53C2405F8080808E6C31352
:1045F400F618E613F618E613F618E613F6E53C2467
:1046040005F8E608460846084670A9853C81D03C72
:1046140022E582FFC4540FFE53060F7D00EE24D81A
:10462400F582ED344DF583E493FE7D008E828D8317
:104634001244F753070F7E00EF24D8F582EE344D71
:10464400F583E493FF7E008F828E830244F7AE826B
:10465400E583FFC4540FFC53040F7D00EC24D8F50C
:1046640082ED344DF583E493FD7C008D828C8312BE
:1046740044F78F0553050F7C00ED24D8F582EC3404
:104684004DF583E493FD7C008D828C831244F78E78
:1046940004EFC4CCC4540F6CCC540FCC6CCC530476
:1046A4000F7D00EC24D8F582ED344DF583E493FDC1
:1046B4007C008D828C831244F753060F7F00EE2416
:1046C400D8F582EF344DF583E493FF7E008F828E1C
:1046D400830244F7AC82AD83AEF0FFC4540FF853A9
:1046E400000FE4F9E824D8F582E9344DF583E49326
:1046F400FB7A008B828A831244F78F0353030F7A69
:1047040000EB24D8F582EA344DF583E493FB7A0078
:104714008B828A831244F78E00EFC4C8C4540F6896
:10472400C8540FC868C853000FE4F9E824D8F582C8
:10473400E9344DF583E493FB7A008B828A83124437
:10474400F78E0353030F7A00EB24D8F582EA344D35
:10475400F583E493FB7A008B828A831244F78D00FD
:10476400EEC4C8C4540F68C8540FC868C8F9EFC46D
:1047740054F049EFC4540F53000FE4F9E824D8F57A
:1047840082E9344DF583E493FB7A008B828A8312A9
:1047940044F78D0353030F7A00EB24D8F582EA34EF
:1047A4004DF583E493FB7A008B828A831244F78C61
:1047B40000EDC4C8C4540F68C8540FC868C8F9EEE3
:1047C400C454F0498E02EFC4CAC4540F6ACA540FC9
:1047D400CA6ACA53000FE4F9E824D8F582E9344DD3
:1047E400F583E493FB7A008B828A831244F75304A3
:1047F4000FE4FDEC24D8F582ED344DF583E493FF0A
:094804007E008F828E830244F7CE
:104DD8003031323334353637383941424344454629
:00000001FF
